:020000040000fa
:080000000001040000000000f3
:020000040000fa
:04000800f8010000fb
:020000040000fa
:04000c00c801000027
:020000040000fa
:04001000ce0100001d
:020000040000fa
:04001400d401000013
:020000040000fa
:04001800da01000009
:020000040000fa
:04001c00f8010000e7
:020000040000fa
:04002000f8010000e3
:020000040000fa
:04002400f8010000df
:020000040000fa
:04002800f8010000db
:020000040000fa
:04002c00f8010000d7
:020000040000fa
:04003000f8010000d3
:020000040000fa
:04003400360f000083
:020000040000fa
:04003800f8010000cb
:020000040000fa
:04003c00f8010000c7
:020000040000fa
:04004000f8010000c3
:020000040000fa
:04004400f8010000bf
:020000040000fa
:04004800f8010000bb
:020000040000fa
:04004c00f8010000b7
:020000040000fa
:04005000f8010000b3
:020000040000fa
:04005400f8010000af
:020000040000fa
:04005800f8010000ab
:020000040000fa
:04005c00f8010000a7
:020000040000fa
:04006000f8010000a3
:020000040000fa
:04006400f80100009f
:020000040000fa
:04006800f80100009b
:020000040000fa
:04006c00f801000097
:020000040000fa
:04007000f801000093
:020000040000fa
:04007400f80100008f
:020000040000fa
:04007800f80100008b
:020000040000fa
:04007c00f801000087
:020000040000fa
:04008000f801000083
:020000040000fa
:04008400f80100007f
:020000040000fa
:04008800f80100007b
:020000040000fa
:04008c00f801000077
:020000040000fa
:04009000f801000073
:020000040000fa
:04009400f80100006f
:020000040000fa
:04009800f80100006b
:020000040000fa
:04009c00f801000067
:020000040000fa
:0400a000f801000063
:020000040000fa
:0400a400f80100005f
:020000040000fa
:0400a800f80100005b
:020000040000fa
:0400ac00f801000057
:020000040000fa
:0400b000f801000053
:020000040000fa
:0400b400f80100004f
:020000040000fa
:0400b800f80100004b
:020000040000fa
:0400bc00f801000047
:020000040000fa
:0400c000f801000043
:020000040000fa
:0400c400f80100003f
:020000040000fa
:0400c800f80100003b
:020000040000fa
:0400cc00f801000037
:020000040000fa
:0400d000f801000033
:020000040000fa
:0400d400f80100002f
:020000040000fa
:0400d800f80100002b
:020000040000fa
:04010800f8010000fa
:020000040000fa
:04010c00e00100000e
:020000040000fa
:04011000e601000004
:020000040000fa
:04011400ec010000fa
:020000040000fa
:04011800f2010000f0
:020000040000fa
:04011c00f8010000e6
:020000040000fa
:04012000f8010000e2
:020000040000fa
:04012400f8010000de
:020000040000fa
:04012800f8010000da
:020000040000fa
:04012c00f8010000d6
:020000040000fa
:04013000f8010000d2
:020000040000fa
:04013400f8010000ce
:020000040000fa
:04013800f8010000ca
:020000040000fa
:04013c00f8010000c6
:020000040000fa
:04014000f8010000c2
:020000040000fa
:04014400f8010000be
:020000040000fa
:04014800f8010000ba
:020000040000fa
:04014c00f8010000b6
:020000040000fa
:04015000f8010000b2
:020000040000fa
:04015400f8010000ae
:020000040000fa
:04015800f8010000aa
:020000040000fa
:04015c00f8010000a6
:020000040000fa
:04016000f8010000a2
:020000040000fa
:04016400f80100009e
:020000040000fa
:04016800f80100009a
:020000040000fa
:04016c00f801000096
:020000040000fa
:04017000f801000092
:020000040000fa
:04017400f80100008e
:020000040000fa
:04017800f80100008a
:020000040000fa
:04017c00f801000086
:020000040000fa
:04018000f801000082
:020000040000fa
:04018400f80100007e
:020000040000fa
:04018800f80100007a
:020000040000fa
:04018c00f801000076
:020000040000fa
:04019000f801000072
:020000040000fa
:04019400f80100006e
:020000040000fa
:04019800f80100006a
:020000040000fa
:04019c00f801000066
:020000040000fa
:0401a000f801000062
:020000040000fa
:0401a400f80100005e
:020000040000fa
:0401a800f80100005a
:020000040000fa
:0401ac00f801000056
:020000040000fa
:0401b000f801000052
:020000040000fa
:0401b400f80100004e
:020000040000fa
:0401b800f80100004a
:020000040000fa
:0401bc00f801000046
:020000040000fa
:0401c000f801000042
:020000040000fa
:0401c400f80100003e
:020000040000fa
:0401c800f80100003a
:020000040000fa
:0401cc00f801000036
:020000040000fa
:0401d000f801000032
:020000040000fa
:0401d400f80100002e
:020000040000fa
:0401d800f80100002a
:020000040000fa
:100200004fa020000eff20000e018800000000001b
:10021000000020000000e000020032000001200089
:100220002002880014000700730007000000e000af
:1002300003003a0060642100010020000200370042
:100240000000200001002000810f7000010032003a
:1002500014000700000020000000e000020032004f
:100260000000020000000000e60e02000000000096
:100270000040da000000fe004440a9008005200094
:100280000000e0000300320000002000a001880010
:100290004440a800000006008a1f78008b1f7800e9
:1002a0000000060091018800800478000000eb0047
:1002b0001a003700e284440032a0b4009905ba0065
:1002c000e284440032a0b4009906ba00e2844400fb
:1002d00032a0b4000006eb00476fde00fd07b2005d
:1002e000636ce10003003a00ebff07000000eb0045
:1002f0000a003700606ce10004003a00005deb008a
:100300008b05e900fdff3e00040037006168e10055
:10031000010032000086eb000b00070019c7ba008d
:100320001905ba000e04e00003003a000a00e000dc
:10033000e0ff3a0000000600fe07b2009e018800c0
:100340008a047800f5ff3700395dba008b05e900b3
:100350000c003200295dba008b05e900080032006c
:100360000c00e00003003a00e284440032a0b40034
:10037000f5ff370019ddba008b05e900faff3a00f6
:100380008904e800e184440032a0b40000000600c3
:100390000000fa008020a900ffff37000000fa00eb
:1003a0008060a900ffff37000000fa008040a9002c
:1003b000ffff37000000fa008080a900ffff370030
:1003c0000000fa008020a900ffff37000000fa00bb
:1003d0008060a900ffff37000000fa008040a900fc
:1003e000ffff37000000fa008080a900ffff370000
:1003f0000000fa00ffff37000000050003f0a20034
:10040000889fbe008a9fbe008c1f78001b010700da
:10041000220133006450e1004f0032006420e1000b
:100420005200320003826c0007003b000905d00037
:100430000306d000820f54000c065d000200390054
:100440000200320089017800030678008582550099
:1004500004003d000003fd008103fd008502ea0069
:100460008b854200840f720002003b006000100088
:10047000e08018006011b8000005eb007a28e10068
:100480000a00390006007800c75ddd00f707b200fa
:10049000878075002d003700828171000a01780085
:1004a000610560008180d1000080d3008502e900f1
:1004b000f9ff3b00060440008784480002003b002f
:1004c00060041400e0841c000988a30007003200c7
:1004d0008a81710082817100610164008904d10008
:1004e0000884d3008b05e800170037000978a300c3
:1004f00013003a000b00e000130034008b05e90004
:100500000804440089844c000a4474000978a3005c
:100510000d003a000b00e000070034008b05e900f5
:100520000804440089844c0001003a000b002000bc
:100530000978a300f7ff32000001eb00020037004a
:10054000828171000a017800910007000cf0a70079
:1005500001f0a000da0037006420e10002003a0058
:10056000838f6c00da0033000801be000200be0079
:10057000d3003700889fbe008a9fbe008c1f780082
:10058000be000700c500330003866c006450e10024
:100590002e0032006420e100330032006150e1009f
:1005a0002f0032006120e1003100320085855500c6
:1005b000eb07b00009002000080420000500370008
:1005c0000804440089844c000a00310006034300fb
:1005d00087834b000001530081815b00f8ff3300eb
:1005e0000203be000800a0000804440089844c00f7
:1005f000f6ff3900c639dd008301730001003200c7
:10060000130020008904d1000884d3000998a300b6
:10061000050032000800a7000300a0008904d100f3
:100620000884d3008b05e8008904d1000884d30036
:100630000001eb000281d2005500070001f0a1008b
:100640000cf0a70001f0a0009d0037006420e1003d
:100650009f0032000801be000200be00f7ff370015
:100660006120e1009a0032006000b800f3ff37001b
:100670000000200001f82700f0ff370014002000e0
:10068000ca003700f4ff2f00c80037000001be0089
:10069000650007000470a70003f0a1006509b10020
:1006a000160032000d0035006828e1000600350014
:1006b000f0ff2f00f1ff27000300e00013003b00d4
:1006c0000100280000000500000040008180480073
:1006d0008502e900fcff3a0008003700f88f42006d
:1006e00002003c008000eb00000005008100d1000a
:1006f0000080d3008502e800fcff3a000300e00020
:1007000002003b0060001000e080180000000600be
:100710000001be00440007000470a70003f0a10020
:1007200003f8a30013003a006509b100100032007d
:10073000090035006928e1000200350001002800a9
:100740000000050000004000818048008502e900ab
:10075000fcff3a0000000600f88f4200050035005b
:100760008100d1000080d3008502e800fcff3a0040
:10077000000006008000eb00000005004f89de004d
:1007800082017800a40037006011b800b200370081
:1007900081002000618055000b003d000b0020000f
:1007a00061fe2f000100e1001d0034008281710014
:1007b000610164008904d1000884d3000000e800ce
:1007c000faff3a007100200061006400030070002d
:1007d000020060000900320061044400e0844c0023
:1007e0000988a500050032008b05e8006808e100d3
:1007f00002003a008904d1000884d300f20f2000df
:100800000258e10005003d00c75ddd00f907b200b8
:100810008980750008007800000006000bf82700aa
:100820008b00780000000500c70ade00f107b20067
:10083000f50fb20008003200e1cf420002003200a2
:100840000170a00024000500810f7000010032003b
:100850000408050044000500810f700002003a0002
:10086000140005008502e9000000400081c0480036
:10087000fcff3b000170a000240005000004be0046
:10088000e9ff07000003be000405be000200be0031
:10089000e5ff0700844f7500000006000200be005f
:1008a0006450e100050036006420e10002003600db
:1008b0000968a30001003a000800be000160a00022
:1008c0004f0678004f05be004f04be000000060032
:1008d000f0ff2f00f1ff2700f9ff3700889fbe00cf
:1008e0008a9fbe008c1f7800e4ff0700ebff3300f7
:1008f00003866c006450e100240032006420e100b3
:10090000270032006150e100220032006120e10046
:10091000210032008b854200eb07b1000134b800a2
:10092000003ab8000804420089844a00013ab8003d
:100930000030b8008880400009014a0004003300fc
:100940000000400081804800020149008b05e90059
:10095000c909dd008301700001003200130020008e
:10096000c814de004814dd004709de001200b200a2
:10097000c808de000884700085ff070001f0a100b0
:100980000cf0a70001f0a000cdff37006120e100ce
:10099000cfff32000801be000200be00f7ff3700a3
:1009a0006150e100fcff3a00c9ff3700889fbe009c
:1009b0008a9fbe00841f7800b0ff07004f007800b8
:1009c00011003300f0ff2f00838f6c0006003b0006
:1009d000040565000a00a7000800370009f0a6001a
:1009e0001000200008003700820f5400838f5c0045
:1009f000030039001000200001003e00000020002c
:100a000009f0a7000000ea004f05be004f04be0039
:100a10000000e00000000600881f78000304780052
:100a20000300e00007003d0060001000e0801800b7
:100a300060011900e081190002003b0001f02d0067
:100a4000030037000400070008f0a70001f0a00031
:100a50004f04780000000600889fbe008a9fbe00f9
:100a600000827000040271000482710026003200ce
:100a70000004be000200be006011b8006b09200037
:100a8000950220000182cf000a0039000541b10023
:100a90000082cf00070039000541b1000982cf0074
:100aa000040039000541b1000882cf00010039007f
:100ab0000541b10005425200120032000a003b001d
:100ac00082817100610164008100d1000080d30047
:100ad0008984d3000884d3008b05e8000442e80031
:100ae000f7ff3a00070037000804440089844c00ef
:100af00000004800818048008b05e9000442e900bd
:100b0000f9ff3a0022ff07004f05be004f04be0068
:100b100000000600020037000204e0000b00320073
:100b2000810178000002780030417800b14f510017
:100b3000f9ff32001000200014427800934f520059
:100b4000030031000080eb00000006000000eb0015
:040b5000000006009b
:020000040000fa
:100b5400535900004e43000000440000434200008b
:100b64005553000000560000505600005353000037
:100b7400004900005056000053530000005000008c
:100b8400575200005353000000570000484f000024
:100b94004953000000230000534f00004c41000063
:100ba4005233000023300000362300000a00000006
:100bb400425200004f4100004443000041530000f2
:100bc4005400000023440000495300002330000077
:100bd400332300000a0000004552000052000000c8
:100be400234500005252000023300000332300004c
:100bf4000a00000000000000230a000000000000ba
:020000040000fa
:100c04000000fa00f1408000703e2000808f500008
:100c14000600340010418000e10f500003003a0048
:100c2400250007001e28ef000d003700f14080006a
:100c3400703e2000808f5000060034002041800068
:100c4400e10f500003003a00330007001e28ef00b4
:100c540003003700f04080000000e800f040880006
:100c64000080fa00000006000000fa0050418000f5
:100c74000000a20000f0a7000000ea000000ea0063
:100c84004f00de00504188000080fa00000006009a
:100c94000000fa00604180000000a20000f0a700fc
:100ca4000000ea000000ea004f00de006041880016
:100cb4000080fa00000006000000fa00889fbe00d1
:100cc40050418000e10f500010003a00b60e800041
:100cd40094468000a5468000b2458000c34580004c
:100ce4007046800081468000584680006946800036
:100cf400861f78000403be000202be000001be008d
:100d04000800be00930207008f87e9004f04be006d
:100d14000080fa00000006000000fa00889fbe0070
:100d240060418000e10f500010003a00b60e8000d0
:100d340094468000a5468000b2458000c3458000eb
:100d440070468000814680005846800069468000d5
:100d5400861f78000403be000202be000001be002c
:100d64000800be00b00207008f87e9004f04be00f0
:100d74000080fa00000006000200fa000000eb0008
:100d8400000f78000000eb00000f7800130037001c
:100d94001e007800c200dd00608520000081400054
:100da4006000b8000089be001e007800c200dd00ab
:100db40020872000008140006000b8000089be0048
:100dc4001e007800c200dd00e088200000814000a1
:100dd4006000b8000089be001e0fe8001e00780005
:100de400e60f5000eaff34000080fa00000006001d
:100df4000200fa000000eb00000f7800c010800031
:100e0400610060000000e0003d003200e01080005e
:100e1400000f7800100320009e007800808f50009f
:100e240009003a00c04780000000e00006003a00d4
:100e34002428ef002228ef0010002000d04788006b
:100e44002000200030418800100320009e0078001c
:100e5400808f500009003a00c0478000e10f500025
:100e640006003a002428ef002228ef00100020009a
:100e7400d047880030002000304188000003200063
:100e84009e007800808f500005003a002428ef006f
:100e94002228ef00fa28ef001000200030418800db
:100ea400200620009e007800808f5000040032004d
:100eb400200420009e007800808f500004003a0037
:100ec40010002000104188002428ef0066ff07006e
:100ed400500620009e007800808f500004003200ed
:100ee400500420009e007800808f500004003a00d7
:100ef40010002000204188002228ef0064ff070032
:100f04000080fa00000006000000fa00d642a800a3
:100f1400d662a800e0478000f147800016fe070073
:100f24000200200003f023006bfe0700f7fd07001a
:100f340095070700d662a9000080fa0000000600a9
:100f44000000fa006000b800f90007000080fa0011
:100f5400000006000000fa00c04780000000e00026
:100f640004003a00004180000000e80000418800cd
:100f7400010037002028ef0001418000301f2000cd
:100f8400808f500006003400d0478000e10f5000ed
:100f940003003a002028ef002000200030418800a0
:100fa4000080fa00000006003c00fa00881f780068
:100fb4006017980071179800021f9800131f98007b
:100fc400241f9800351f9800461f9800571f98004b
:100fd4006066260061f62300008fbe00000020003a
:100fe40001f023002007980031079800f026210023
:100ff40031b023004007980051079800a0702d00dd
:1010040031c223006007980071079800a0702d007a
:1010140031c22300000f9800110f9800a0702d001a
:1010240031c22300200f9800310f98004e19900010
:10103400de1990002e189000be189000eefc0700f8
:10104400400f9800510f98000e1990009e199000bf
:101054006e109000fe109000e7fc0700600f9800ef
:10106400710f980018c0b3006e019000fe0190004b
:101074006e089000fe0890007ffd07000000e0006d
:10108400010034000044eb000804e000400032009a
:101094006e009000fe00900001f0a20018c0b300a2
:1010a4006e099000fe09900073fd07000000e00047
:1010b400010034000044eb000804e0003400320076
:1010c40018c0b3000e0990009e0990004e089000cd
:1010d400de08900068fd07000000e0000100340015
:1010e4000044eb000804e0000e0032000e089000fb
:1010f4009e08900001f0a20018c0b3004e099000b1
:10110400de0990005cfd07000000e00001003400ef
:101114000044eb000804e00002003200000000007c
:101124006100370018c0b3000e0990009e099000ba
:101134004e089000de08900051fd07000000e0001a
:1011440001003c000044eb000804e0000800320009
:10115400c0408000d14080004e019000de0190002c
:10116400a5fc0700c0408800d14088004e0037002d
:10117400c0408000d14080004e019000de0190000c
:101184009efc0700c0408800d1408800460037001c
:101194006e119000fe1190002e189000be18900061
:1011a400f3fc070000179800111798006e099000cf
:1011b400fe0990004e089000de089000ecfc070049
:1011c40020179800311798002e119000be1190003e
:1011d4000e1090009e10900088fc070040179800a5
:1011e4005117980018c0b3002e099000be09900052
:1011f4004e109000de1090001ffd07000000e0007c
:10120400010034000044eb000804e0000c0032004c
:101214002e089000be08900001f0a20018c0b30090
:101224004e119000de11900013fd07000000e00055
:10123400010034000044eb000804e0001a003a0006
:1012440018c0b3002e099000be0990004e10900003
:10125400de1090000afd07000000e00001003c00e1
:101264000044eb000804e00008003200c0408000a5
:10127400d14080004e019000de0190005efc07002a
:10128400c0408800d140880007003700c04080007b
:10129400d14080004e019000de01900057fc070011
:1012a400c0408800d1408800c0408000d140800008
:1012b40018c0b3001e01be00f1fc07000000e000ee
:1012c40001003d000044eb000804e000030032008c
:1012d4001e01be00c2408800d3408800c040800088
:1012e400d140800018c0b3002e019000be019000d0
:1012f400e1fc07000000e000010034000044eb00c2
:101304000804e000040032002e019000be019000a9
:10131400c2408800d3408800c0408000d140800093
:10132400030007004f0478000080fa000000060064
:101334000400fa00008fbe0002002c006341240068
:101344001e00be0064fd0700f0fc070000007800ea
:10135400b00e88001e01be000000200001f823002a
:1013640025fc070002002c00634124005afd0700fd
:10137400e6fc070000007800c00e88000080fa0038
:10138400000006000000fa00d622ef00000f200043
:1013940090168800f01f2000301688000421ef000a
:1013a40021088000f0fc2f00008060000040a000b5
:1013b4002008880050e6200010088800a10480005e
:1013c400f0ff28000080600000c0a000a004880096
:1013d4008460a9008c60a80005e1a80000f02f003b
:1013e40040158800a022ef0001158000f0cf2f00e7
:1013f400008060000090a00000158800aa22ef0081
:10140400a222ef005000200020158800a622ef0041
:10141400a1e2a80030032000400e8800ca21ef009a
:10142400c021ef00010e800030ff2f00008060001b
:10143400000e8800010e8000c0ff2f0000806000b5
:101444000010a000000e8800c0122000200e8800aa
:10145400c221ef00c1e1a80010062000f0108800ae
:1014640017e2a80019e2a8001942a8000080fa00b7
:10147400000006000200fa00000f78001e00780049
:1014840030158800a022a8001000200001002000d0
:101494003d060700a022a9000000000000158000fe
:1014a400610060000000e000fcff320000148000d6
:1014b4000080fa00000006000400fa0010079800fb
:1014c4009e009000010f78009e009000f0702200b2
:1014d400808f500014003600017122001e00780035
:1014e40076000700000f7800813e20001e0078007f
:1014f40072000700000f7800410620001e007800eb
:101504006e000700000f7800a10020001e00780084
:101514006a000700000f7800110020001e00780008
:1015240066000700000f78009e009000703e2000c7
:10153400808f5000140036009e009000f07022004e
:10154400808f500010003e00813e20001e00780075
:101554005a000700000f7800410620001e007800a2
:1015640056000700000f7800a10020001e0078003c
:1015740052000700000f7800110020001e007800c0
:101584004e000700000f78009e00900030062000f7
:10159400808f5000100036009e009000703e2000a6
:1015a400808f50000c003e00410620001e00780091
:1015b40042000700000f7800a10020001e00780000
:1015c4003e000700000f7800110020001e00780084
:1015d4003a000700000f78001e009000e90f500049
:1015e4000c0036009e00900030062000808f5000d2
:1015f40008003e00a10020001e0078002f00070014
:10160400000f7800110020001e0078002b00070056
:10161400000f78001e009000e90f500004003e0007
:10162400110020001e00780024000700000f78003d
:101634000080fa00000006000c00fa004007980041
:10164400510798004e009000de0090000efc070049
:10165400000f78001e007800cf80de0046fc0700f3
:101664000001be004e009000de00900062fb070007
:10167400100798002107980002002000a3472400c7
:101684001e009000ae00900093fc0700fefb0700d4
:10169400300798001e00780087ff0700e0c2b300ff
:1016a400200007003e00900083ff07003e009000ea
:1016b40081ff07000080fa00000006000400fa0021
:1016c400000f78001107980000000000c11080008e
:1016d40000202000008060000000e000fbff3a00d2
:1016e4009e0078001e00900000017800110009009f
:1016f4008280d8000003b000d01088009e007800db
:101704001e00900000017800110009008280d800ba
:101714008000fd00000f78001e0078000080fa00b1
:10172400000006000200fa00004f780000000000ec
:10173400c110800000202000008060000000e00054
:10174400fbff3a001e00fb00d01088000080fa0066
:10175400000006001000fa00008fbe002207980067
:1017640033079800440798005507980066079800c7
:101774007707980081002000709220005000070035
:101784001e00be00acff070060c5b300e5ff070004
:1017940081002000d0932000490007002e00900013
:1017a400be009000a4ff070010c4b300ddff0700d3
:1017b4009100200060952000410007004e00900039
:1017c400de0090009cff070070c5b300d5ff070042
:1017d40091002000d0942000390007006e00900092
:1017e400fe00900094ff070060c5b300cdff070022
:1017f4008100200050942000310007004eb897006b
:101804008000eb00dffb0700325c2f00030c240098
:1018140057fb070088ff070050c2b300c1ff070051
:101824000080fa00000006001000fa00008fbe00dd
:10183400220798003307980044079800550798003a
:1018440066079800770798001e00be007aff07001d
:10185400b0c3b300b3ff07002e009000be00900099
:1018640075ff0700b0c3b300aeff07004e00900041
:10187400de00900070ff0700b0c3b300a9ff0700ab
:101884006e009000fe0090006bff0700b0c3b30031
:10189400a4ff07004eb897008000eb00b9fb0700d7
:1018a400325c2f00030c240031fb070062ff0700a9
:1018b400a0c0b3009bff07000080fa0000000600f0
:1018c4000400fa00000f780011079800f628ef00d2
:1018d4000e00370000000000c1108000002020002e
:1018e400008060000000e000fbff3a00b047800089
:1018f4001e004000104078000000fb00d01088005b
:10190400b04780000000e800b04788001e00900047
:101914008000e900b0478000808f5000edff3c005c
:101924000080fa00000006000600fa00889fbe004e
:10193400008fbe00220798000200200003f023005d
:101944001e00be00e4fb07000004be002e00900051
:10195400c200dd0060852000008040001000be0051
:101964000200200003f02300dbfb07000001be009f
:101974000800be00a1fa07002e019000c211dd008c
:10198400e2882000028141000089be002e00900000
:10199400c200dd0060852000008040003e18780011
:1019a4002e1078002e009000c200dd00e088200098
:1019b400008040001000be002e019000c211dd0026
:1019c40022872000028141000089be002e00900081
:1019d400c200dd00e0882000008040001000be004e
:1019e4004f04be000080fa00000006000600fa0062
:1019f400889fbe00008fbe002207980082992900ac
:101a040093cf23001e00be00b3fb07000004be00fa
:101a14002e009000c200dd006085200000804000a0
:101a24001000be008299290093cf2300aafb07006f
:101a34000001be000800be0070fa07000004be00ea
:101a44002e009000c200dd002087200000804000ae
:101a54001000be006266260003f723009efb070009
:101a64000001be000800be0064fa07002e019000c9
:101a7400c211dd00e2882000028141000089be001d
:101a84002e009000c200dd00608520000080400030
:101a94003e1878002e1078002e009000c200dd0061
:101aa400e0882000008040001000be002e0190005d
:101ab400c211dd0022872000028141000089be009e
:101ac4002e009000c200dd00e0882000008040006d
:101ad4001000be004f04be000080fa0000000600a3
:101ae4000600fa00889fbe00008fbe0022079800ff
:101af40092e42300d3b423001e00be0076fb07004b
:101b04000004be002e009000c200dd0060852000ad
:101b1400008040001000be0092e42300d3b42300f0
:101b24006dfb07000001be000800be0033fa070089
:101b34000004be002e009000c200dd0020872000bb
:101b4400008040001000be0032582600e3f7230056
:101b540061fb07000001be000800be0027fa070071
:101b64002e019000c211dd00e288200002814100b4
:101b74000089be002e009000c200dd0060852000b8
:101b8400008040003e1878002e1078002e0090004f
:101b9400c200dd00e0882000008040001000be008c
:101ba4002e019000c211dd00228720000281410035
:101bb4000089be002e009000c200dd00e0882000f5
:101bc400008040001000be004f04be000080fa00f8
:101bd400000006000600fa00889fbe00008fbe00c9
:101be4002207980002882a00439a23001e00be00a0
:101bf40039fb07000004be002e009000c200dd0087
:101c040060852000008040001000be0002882a0089
:101c1400439a230030fb07000001be000800be0009
:101c2400f6f907000004be002e009000c200dd009b
:101c340020872000008040001000be00626d2d004f
:101c4400f3f7230024fb07000001be000800be00d8
:101c5400eaf907002e019000c211dd00e28820009d
:101c6400028141000089be002e009000c200dd0008
:101c740060852000008040003e1878002e10780017
:101c84002e009000c200dd00e088200000804000ab
:101c94001000be002e019000c211dd00228720003a
:101ca400028141000089be002e009000c200dd00c8
:101cb400e0882000008040001000be004f04be00f9
:101cc4000080fa00000006000000fa006000b8007e
:101cd40097fd0700c04780000000e00004003a00c0
:101ce400004180000000e800004188000100370046
:101cf4002028ef0001418000301f2000808f500019
:101d040006003400d0478000e10f500003003a0081
:101d14002028ef0020002000304188000080fa00d5
:101d2400000006000000fa0030418000e30f50007c
:101d34001b003200e30f500005003e00e10f50008d
:101d440013003200e10f50000d003e000700370081
:101d5400e50f500017003200e50f5000170039005e
:101d6400e60f50001100320015003700d6ff0700bf
:101d74000000200001f023006dfd07001000370073
:101d840061fc070050002000304188000c0037003f
:101d94006bfc070040002000304188000800370039
:101da40067fc0700600020003041880069fc0700e0
:101db40003003700000000000100370000000000ad
:101dc4000080fa00000006000000fa00505b2100c9
:101dd40031f823000040880011408800d009280011
:101de40061ea23002040880031408800e093270006
:101df40001f92300404088005140880040012d0033
:101e040041f023006040880071408800d05d2b00c1
:101e140041f82300804088009140880040822200dd
:101e2400210b2400a0408800b1408800c00f20008e
:101e340090168800d622a800cb02a8006000b80043
:101e44003bfd07004ffd0700cbfb0700404180002e
:101e5400e10f500002003a00b2ff07002828ef000b
:101e6400e3fb0700f9ff37003600f800809fbe004f
:101e7400829fbe00849fbe00869fbe00889fbe00d6
:101e84003400f80000002000a00188000000fa00df
:101e94008460a900cb02a8000000eb0075fd0700d8
:101ea4008000eb0037fa0700f04188000142880007
:101eb400f04180000142800002002000030a240057
:101ec40085fa070002f02f00f3772400a8f9070031
:101ed4007041880081418800704180008141800008
:101ee40002002000031724007bfa070002002000f0
:101ef400030824009ef907005042880061428800cc
:101f040054428000654280000040800011408000ff
:101f14000001be000400be0095f90700504288008d
:101f24006142880054428000654280002040800065
:101f3400314080000001be000400be002ff90700fc
:101f440050428800614288001000200049fd0700cb
:101f54008000eb000bfa0700d0418800e1418800c3
:101f6400d0418000e141800002002000030a2400e7
:101f740059fa070002f02f00f37724007cf90700d8
:101f840090418800a141880090418000a1418000d7
:101f940002002000031424004ffa07003042880096
:101fa4004142880034428000454280004040800025
:101fb400514080000001be000400be006cf907001f
:101fc400304288004142880034428000454280000b
:101fd40060408000714080000001be000400be002b
:101fe40006f90700304288004142880020002000a2
:101ff40020fd07008000eb00e2f907001042880092
:10200400214288001042800021428000020020000a
:10201400030a240030fa070002f02f00f3772400ab
:1020240053f90700b0418800c1418800b0418000e5
:10203400c141800002002000a32c240026fa0700de
:10204400704288008142880074428000854280008a
:1020540080408000914080000001be000400be006a
:1020640043f907007042880081428800744280006e
:1020740085428000a0408000b14080000001be0085
:102084000400be00ddf80700704288008142880029
:10209400544280006542800030428000414280000a
:1020a4000001be000400be000bfa07009042880045
:1020b400a142880030428000414280000001eb00d0
:1020c4004afe07005046880061468800504280005e
:1020d400614280001200200044fe07007046880020
:1020e40081468800704280008142800022002000e6
:1020f4003efe070090468800a146880030428000da
:10210400414280003200200007fe0700d0468800cc
:10211400e146880050428000614280004200200075
:1021240001fe0700f04688000147880070428000e5
:102134008142800052002000fbfd07001047880008
:102144002147880090428000a14280006200200064
:1021540063fe0700b0458800c14588001047800031
:102164002147800018c0b30002002000a33a2400d5
:1021740043f907000000e00001003c000044eb00cc
:102184000804e0000d003200104780002147800061
:1021940018c0b30002002000c33d240036f9070034
:1021a4000000e000010035000044eb000804e000fa
:1021b40002003200f828ef0006003700100020006b
:1021c4003041880030002000304188001000200099
:1021d400c0478800e140800030062000808f500016
:1021e4001a00340030418000e50f500017003a0017
:1021f40074478000854780007246800083468000d3
:10220400504780006147800058468000694680003e
:102214000403be000202be000001be000800be00ae
:1022240061fb07001c28ef005046800061468000d7
:1022340050478800614788007046800081468000ce
:10224400704788008147880003003700e040800021
:102254000000e800e040880069fa07001000200050
:10226400404188000080fa003400f9004f04be00a9
:102274004f03be004f02be004f01be004f00be0020
:102284003600f900004006000800fa002007980014
:10229400310798000000eb00000f78000000eb000d
:1022a400100798000000eb00000f780018003700ba
:1022b40000000000c11080000020200000806000a9
:1022c4000000e000fbff3a000000eb00100798005c
:1022d40004003700000000001e0090000000e80029
:1022e400100798009e009000703e2000808f5000e0
:1022f400f8ff34001e007800ae009000008040001b
:10230400104078000000fb00d01088001e0fe80089
:102314003e0090000000e9009e0f5000e4ff3c00e6
:102324000080fa00000006000400fa00204798002c
:102334000000eb00000f780000000000c1108000d6
:1023440000202000008060000000e000fbff3a0055
:102354000000eb00000f78000200370000000000ce
:102364001e0fe800703e20009e007800808f500011
:10237400faff34002e4090000000fb00d0108800cb
:102384000080fa00000006000400fa000040eb00a0
:10239400004f7800a15a2800e0982000dcf90700db
:1023a4000000e00002003a0028020700480037005d
:1023b400f15a2800e0982000d5f907000000e00059
:1023c40005003a00a09f2000100078007800070064
:1023d4001e0207003e003700515b2800e0982000f1
:1023e400cbf907000000e00005003a00a09f2000a0
:1023f400100090006e00070014020700340037003c
:10240400b15b2800e0982000c1f907000000e0005b
:1024140005003a00a09f20002000900064000700ff
:102424000a0207002a003700115c2800e098200007
:10243400b7f907000000e00005003a00a09f200063
:10244400300090005a000700000207002000370007
:10245400715c2800e0982000adf907000000e0005e
:1024640005003a00d1002000d05c280086ff070058
:10247400f601070016003700a15d2800e09820004f
:10248400a3f907000000e00006003a00a1002000c4
:10249400405e28007cff0700022aef00eb010700e2
:1024a4000b003700e15e2800e098200098f907004f
:1024b4000000e00005003a00a1002000205f280091
:1024c40071ff0700e101070001003700df01070089
:1024d4000080fa00000006000600fa0020079800b9
:1024e4000000eb00000f7800803e200010079800e9
:1024f4002e009000104078000000fb0001fd2f002a
:10250400808040001e0090000088b9000000780020
:10251400000f780040062000100798002e0090005d
:102524000000e800104078000000fb0001fd2f00cf
:10253400808040001e0090000088b90000007800f0
:102544001e0f4000a0002000100798002e009000ed
:102554000080e800104078000000fb0001fd2f001f
:10256400808040001e0090000088b90000007800c0
:102574001e0f400010002000100798002e0090004d
:1025840063004000104078000000fb0001fd2f00b4
:10259400808040001e0090000088b9000000780090
:1025a4001e0f40001e0078000080fa0000000600a4
:1025b4001400fa00100f98000000eb0020079800a8
:1025c40004003700000000002e0090000000e80026
:1025d40020079800ae009000f0702200808f500019
:1025e400f8ff34001e0890000000e00003003d00e6
:1025f4001e0890000000ea00100f98009e0890004a
:102604002107980010002000000f78000a0037000e
:10261400ae009000a0002000000178001100090025
:102624008200d800200798001e0078006a00b900d4
:1026340000007800000f78002e009000e90f500091
:10264400f3ff3c000000eb00100798001c0037006b
:102654009e0890001e007800000178001100090017
:102664008200d800004078000043b0008040780029
:10267400660147001e0090000000410001487800f8
:102684009e0890001e0078000001780011000900e7
:102694008200d8008000fd00100f98009e00780092
:1026a400a000200000017800110009008200d80079
:1026b400000f78001e0090000000e800100798004a
:1026c4001e0078000000e000e1ff3c00c05f28002d
:1026d40080407800660147001e0090000000410021
:1026e400014878001e0890000000e00003003d004f
:1026f4001e0890000000ea00100f98009e08900049
:102704002107980010002000000f78000a0037000d
:10271400ae009000a0002000000178001100090024
:102724008200d800200798001e0078006a00b900d3
:1027340000007800000f78002e009000e90f500090
:10274400f3ff3c0000c3b300005798001e00900044
:10275400004078000043b0001057980030c2b30026
:10276400f1fe07001e0090008000e80066004700ac
:10277400c5fe070030c2b300ebfe0700700047003f
:1027840031002000c0fe070030c2b300e6fe07009f
:102794000080fa00000006001400fa00100f9800f0
:1027a4000000eb0020079800040037000000000040
:1027b4002e0090000000e80020079800ae00900072
:1027c400f0702200808f5000f8ff34001e08900043
:1027d4000000e00003003d001e0890000000ea0035
:1027e400100f98009e089000210798001000200008
:1027f400000f78000a003700ae009000a00020000f
:1028040000017800110009008200d8002007980018
:102814001e0078006a00b90000007800000f7800fc
:102824002e009000e90f5000f3ff3c009e0890003a
:1028340040062000808f5000430034000000eb006d
:10284400100798003c003700400620009e007800e6
:10285400808f50001c003a009e0890001e007800f3
:1028640000017800110009008200d80000407800bf
:102874000043b00080407800660147001e009000cd
:1028840000004100014878001e0090000000e800ac
:1028940010079800e60047001e00900000804000ea
:1028a400e1c2b300014878009e0890001e00780041
:1028b40000017800110009008200d8008000fd00aa
:1028c400100f9800130037009e0890001e00780037
:1028d40000017800110009008200d800004078004f
:1028e4000043b00080407800660147001e0090005d
:1028f40000004100014878009e0890001e00780006
:1029040000017800110009008200d8008000fd0059
:10291400100f98009e007800a000200000017800ad
:10292400110009008200d800000f78001e009000fa
:102934000000e800100798001e0078000000e00086
:10294400c1ff3c001700370000c3b3006047980084
:10295400e0c2b300704798009e089000a0002000d9
:1029640000017800110009008200d80000407800be
:102974000043b000004f98009e089000a000200083
:1029840000017800110009008200d8008000fd00d9
:10299400004078000043b000104f98004000200031
:1029a40010079800e60047001e00900000804000d9
:1029b4008040eb000148780000c3b3000057980042
:1029c4001e009000004078000043b00010579800ab
:1029d40030c2b30054fe07001e0090008000e800df
:1029e4006600470028fe070030c2b3004efe070011
:1029f400700047003100200023fe07002100200062
:102a0400e05f280020fe07000080fa0000000600b6
:102a14001400fa00100f98000000eb002007980043
:102a240004003700000000002e0090000000e800c1
:102a340020079800ae009000f0702200808f5000b4
:102a4400f8ff34001e0890000000e00003003d0081
:102a54001e0890000000ea00100f98009e089000e5
:102a64002107980010002000000f78000a003700aa
:102a7400ae009000a00020000001780011000900c1
:102a84008200d800200798001e0078006a00b90070
:102a940000007800000f78002e009000e90f50002d
:102aa400f3ff3c001e089000ea0f5000420034007f
:102ab4000000eb00100798003b0037001e00780070
:102ac400ea0f50001c003a009e0890001e00780097
:102ad40000017800110009008200d800004078004d
:102ae4000043b00080407800660147001e0090005b
:102af40000004100014878001e0090000000e8003a
:102b040010079800e60047001e0090000080400077
:102b1400e1c2b300014878009e0890001e007800ce
:102b240000017800110009008200d8008000fd0037
:102b3400100f9800130037009e0890001e007800c4
:102b440000017800110009008200d80000407800dc
:102b54000043b00080407800660147001e009000ea
:102b640000004100014878009e0890001e00780093
:102b740000017800110009008200d8008000fd00e7
:102b8400100f98009e007800a0002000000178003b
:102b9400110009008200d800000f78001e00900088
:102ba4000000e800100798001e0078000000e00014
:102bb400c2ff3c000a00370000c3b300604798001e
:102bc400e0c2b300704798001e08900000407800ef
:102bd4000043b000004f9800300020001007980018
:102be400e60047001e009000008040008040eb009b
:102bf4000148780000c3b300005798001e009000fd
:102c0400004078000043b0001057980030c2b30071
:102c1400c5fd07001e0090008000e8006600470024
:102c240099fd070030c2b300bffd070070004700e4
:102c34003100200094fd070021002000e05f2800ff
:102c440091fd07000080fa00000006000000fa0071
:102c5400f429ef00f629ef008e69ef000080fa00f6
:102c6400000006000000fa000080fa0000000600e0
:102c74000000fa000080fa00000006000000fa00dc
:082c84000080fa0000000600c8
:020000040000fa
:102c8c0000080000f800000000000000f808000038
:102c9c009600000002000000010001000080c3004b
:102cac00c9010a0020312d00547572006e206f008e
:102cbc006e20530079737400656d00000a2030009b
:102ccc002d547500726e20006f66660020537900db
:102cdc00737465006d000a0020565f0050563d006d
:102cec00000a2000522d52006561640020446100ee
:102cfc00746100000a2049005f5056003d000a0034
:102d0c002044750074793d00000a2000565f6f0066
:102d1c0075743d00000a2000506f770065723d000d
:102d2c00000a20002a2a2a005379730074656d006a
:102d3c00204f4e002a2a2a00200a00000a202a00ce
:102d4c002a2a530079737400656d20004f464600a3
:102d5c002a2a2a00200a00000a445500545900006f
:102d6c008e0900007400000000000000020a000040
:102d7c000200000002000000010000000000000042
:020000040000fa
:102d8c00f03fb1000180b10006003500ee030900f0
:102d9c0000000000403fb1000180b100fbff3d008e
:102dac001000b000203fb000020035000080090088
:082dbc00000000000000060009
:020000040000fa
:102dc4000000fa000080fa00000006000000fa008b
:082dd4000080fa000000060077
:020000040000fa
:0200000401f009
:04000000f3bf00004a
:020000040000fa
:0200000401f009
:04000400ff7f00007a
:020000040000fa
:0200000401f009
:04000800ecff000009
:00000001FF
