:020000040000fa
:080000000001040000000000f3
:020000040000fa
:04000800f8010000fb
:020000040000fa
:04000c00c801000027
:020000040000fa
:04001000ce0100001d
:020000040000fa
:04001400d401000013
:020000040000fa
:04001800da01000009
:020000040000fa
:04001c00f8010000e7
:020000040000fa
:04002000f8010000e3
:020000040000fa
:04002400f8010000df
:020000040000fa
:04002800f8010000db
:020000040000fa
:04002c00f8010000d7
:020000040000fa
:04003000f8010000d3
:020000040000fa
:04003400d80c0000e4
:020000040000fa
:04003800f8010000cb
:020000040000fa
:04003c00f8010000c7
:020000040000fa
:04004000f8010000c3
:020000040000fa
:04004400f8010000bf
:020000040000fa
:04004800f8010000bb
:020000040000fa
:04004c00f8010000b7
:020000040000fa
:04005000f8010000b3
:020000040000fa
:04005400f8010000af
:020000040000fa
:04005800f8010000ab
:020000040000fa
:04005c00f8010000a7
:020000040000fa
:04006000f8010000a3
:020000040000fa
:04006400f80100009f
:020000040000fa
:04006800f80100009b
:020000040000fa
:04006c00f801000097
:020000040000fa
:04007000f801000093
:020000040000fa
:04007400f80100008f
:020000040000fa
:04007800f80100008b
:020000040000fa
:04007c00f801000087
:020000040000fa
:04008000f801000083
:020000040000fa
:04008400f80100007f
:020000040000fa
:04008800f80100007b
:020000040000fa
:04008c00f801000077
:020000040000fa
:04009000f801000073
:020000040000fa
:04009400f80100006f
:020000040000fa
:04009800f80100006b
:020000040000fa
:04009c00f801000067
:020000040000fa
:0400a000f801000063
:020000040000fa
:0400a400f80100005f
:020000040000fa
:0400a800f80100005b
:020000040000fa
:0400ac00f801000057
:020000040000fa
:0400b000f801000053
:020000040000fa
:0400b400f80100004f
:020000040000fa
:0400b800f80100004b
:020000040000fa
:0400bc00f801000047
:020000040000fa
:0400c000f801000043
:020000040000fa
:0400c400f80100003f
:020000040000fa
:0400c800f80100003b
:020000040000fa
:0400cc00f801000037
:020000040000fa
:0400d000f801000033
:020000040000fa
:0400d400f80100002f
:020000040000fa
:0400d800f80100002b
:020000040000fa
:04010800f8010000fa
:020000040000fa
:04010c00e00100000e
:020000040000fa
:04011000e601000004
:020000040000fa
:04011400ec010000fa
:020000040000fa
:04011800f2010000f0
:020000040000fa
:04011c00f8010000e6
:020000040000fa
:04012000f8010000e2
:020000040000fa
:04012400f8010000de
:020000040000fa
:04012800f8010000da
:020000040000fa
:04012c00f8010000d6
:020000040000fa
:04013000f8010000d2
:020000040000fa
:04013400f8010000ce
:020000040000fa
:04013800f8010000ca
:020000040000fa
:04013c00f8010000c6
:020000040000fa
:04014000f8010000c2
:020000040000fa
:04014400f8010000be
:020000040000fa
:04014800f8010000ba
:020000040000fa
:04014c00f8010000b6
:020000040000fa
:04015000f8010000b2
:020000040000fa
:04015400f8010000ae
:020000040000fa
:04015800f8010000aa
:020000040000fa
:04015c00f8010000a6
:020000040000fa
:04016000f8010000a2
:020000040000fa
:04016400f80100009e
:020000040000fa
:04016800f80100009a
:020000040000fa
:04016c00f801000096
:020000040000fa
:04017000f801000092
:020000040000fa
:04017400f80100008e
:020000040000fa
:04017800f80100008a
:020000040000fa
:04017c00f801000086
:020000040000fa
:04018000f801000082
:020000040000fa
:04018400f80100007e
:020000040000fa
:04018800f80100007a
:020000040000fa
:04018c00f801000076
:020000040000fa
:04019000f801000072
:020000040000fa
:04019400f80100006e
:020000040000fa
:04019800f80100006a
:020000040000fa
:04019c00f801000066
:020000040000fa
:0401a000f801000062
:020000040000fa
:0401a400f80100005e
:020000040000fa
:0401a800f80100005a
:020000040000fa
:0401ac00f801000056
:020000040000fa
:0401b000f801000052
:020000040000fa
:0401b400f80100004e
:020000040000fa
:0401b800f80100004a
:020000040000fa
:0401bc00f801000046
:020000040000fa
:0401c000f801000042
:020000040000fa
:0401c400f80100003e
:020000040000fa
:0401c800f80100003a
:020000040000fa
:0401cc00f801000036
:020000040000fa
:0401d000f801000032
:020000040000fa
:0401d400f80100002e
:020000040000fa
:0401d800f80100002a
:020000040000fa
:100200006f8b20000eff20000e0188000000000010
:10021000000020000000e000020032000001200089
:100220002002880014000700730007000000e000af
:1002300003003a0020db200001002000020037000c
:100240000000200001002000810f7000010032003a
:1002500014000700000020000000e000020032004f
:100260000000020000000000fe0802000000000084
:100270000040da000000fe004440a9000000200019
:100280000000e0000300320000002000a001880010
:100290004440a800000006008a1f78008b1f7800e9
:1002a0000000060091018800800478000000eb0047
:1002b0001a003700e284440032a0b4009905ba0065
:1002c000e284440032a0b4009906ba00e2844400fb
:1002d00032a0b4000006eb00476fde00fd07b2005d
:1002e000636ce10003003a00ebff07000000eb0045
:1002f0000a003700606ce10004003a00005deb008a
:100300008b05e900fdff3e00040037006168e10055
:10031000010032000086eb000b00070019c7ba008d
:100320001905ba000e04e00003003a000a00e000dc
:10033000e0ff3a0000000600fe07b2009e018800c0
:100340008a047800f5ff3700395dba008b05e900b3
:100350000c003200295dba008b05e900080032006c
:100360000c00e00003003a00e284440032a0b40034
:10037000f5ff370019ddba008b05e900faff3a00f6
:100380008904e800e184440032a0b40000000600c3
:100390000000fa008020a900ffff37000000fa00eb
:1003a0008060a900ffff37000000fa008040a9002c
:1003b000ffff37000000fa008080a900ffff370030
:1003c0000000fa008020a900ffff37000000fa00bb
:1003d0008060a900ffff37000000fa008040a900fc
:1003e000ffff37000000fa008080a900ffff370000
:1003f0000000fa00ffff37000000050003f0a20034
:10040000889fbe008a9fbe008c1f78001b010700da
:10041000220133006450e1004f0032006420e1000b
:100420005200320003826c0007003b000905d00037
:100430000306d000820f54000c065d000200390054
:100440000200320089017800030678008582550099
:1004500004003d000003fd008103fd008502ea0069
:100460008b854200840f720002003b006000100088
:10047000e08018006011b8000005eb007a28e10068
:100480000a00390006007800c75ddd00f707b200fa
:10049000878075002d003700828171000a01780085
:1004a000610560008180d1000080d3008502e900f1
:1004b000f9ff3b00060440008784480002003b002f
:1004c00060041400e0841c000988a30007003200c7
:1004d0008a81710082817100610164008904d10008
:1004e0000884d3008b05e800170037000978a300c3
:1004f00013003a000b00e000130034008b05e90004
:100500000804440089844c000a4474000978a3005c
:100510000d003a000b00e000070034008b05e900f5
:100520000804440089844c0001003a000b002000bc
:100530000978a300f7ff32000001eb00020037004a
:10054000828171000a017800910007000cf0a70079
:1005500001f0a000da0037006420e10002003a0058
:10056000838f6c00da0033000801be000200be0079
:10057000d3003700889fbe008a9fbe008c1f780082
:10058000be000700c500330003866c006450e10024
:100590002e0032006420e100330032006150e1009f
:1005a0002f0032006120e1003100320085855500c6
:1005b000eb07b00009002000080420000500370008
:1005c0000804440089844c000a00310006034300fb
:1005d00087834b000001530081815b00f8ff3300eb
:1005e0000203be000800a0000804440089844c00f7
:1005f000f6ff3900c639dd008301730001003200c7
:10060000130020008904d1000884d3000998a300b6
:10061000050032000800a7000300a0008904d100f3
:100620000884d3008b05e8008904d1000884d30036
:100630000001eb000281d2005500070001f0a1008b
:100640000cf0a70001f0a0009d0037006420e1003d
:100650009f0032000801be000200be00f7ff370015
:100660006120e1009a0032006000b800f3ff37001b
:100670000000200001f82700f0ff370014002000e0
:10068000ca003700f4ff2f00c80037000001be0089
:10069000650007000470a70003f0a1006509b10020
:1006a000160032000d0035006828e1000600350014
:1006b000f0ff2f00f1ff27000300e00013003b00d4
:1006c0000100280000000500000040008180480073
:1006d0008502e900fcff3a0008003700f88f42006d
:1006e00002003c008000eb00000005008100d1000a
:1006f0000080d3008502e800fcff3a000300e00020
:1007000002003b0060001000e080180000000600be
:100710000001be00440007000470a70003f0a10020
:1007200003f8a30013003a006509b100100032007d
:10073000090035006928e1000200350001002800a9
:100740000000050000004000818048008502e900ab
:10075000fcff3a0000000600f88f4200050035005b
:100760008100d1000080d3008502e800fcff3a0040
:10077000000006008000eb00000005004f89de004d
:1007800082017800a40037006011b800b200370081
:1007900081002000618055000b003d000b0020000f
:1007a00061fe2f000100e1001d0034008281710014
:1007b000610164008904d1000884d3000000e800ce
:1007c000faff3a007100200061006400030070002d
:1007d000020060000900320061044400e0844c0023
:1007e0000988a500050032008b05e8006808e100d3
:1007f00002003a008904d1000884d300f20f2000df
:100800000258e10005003d00c75ddd00f907b200b8
:100810008980750008007800000006000bf82700aa
:100820008b00780000000500c70ade00f107b20067
:10083000f50fb20008003200e1cf420002003200a2
:100840000170a00024000500810f7000010032003b
:100850000408050044000500810f700002003a0002
:10086000140005008502e9000000400081c0480036
:10087000fcff3b000170a000240005000004be0046
:10088000e9ff07000003be000405be000200be0031
:10089000e5ff0700844f7500000006000200be005f
:1008a0006450e100050036006420e10002003600db
:1008b0000968a30001003a000800be000160a00022
:1008c0004f0678004f05be004f04be000000060032
:1008d000f0ff2f00f1ff2700f9ff3700889fbe00cf
:1008e0008a9fbe008c1f7800e4ff0700ebff3300f7
:1008f00003866c006450e100240032006420e100b3
:10090000270032006150e100220032006120e10046
:10091000210032008b854200eb07b1000134b800a2
:10092000003ab8000804420089844a00013ab8003d
:100930000030b8008880400009014a0004003300fc
:100940000000400081804800020149008b05e90059
:10095000c909dd008301700001003200130020008e
:10096000c814de004814dd004709de001200b200a2
:10097000c808de000884700085ff070001f0a100b0
:100980000cf0a70001f0a000cdff37006120e100ce
:10099000cfff32000801be000200be00f7ff3700a3
:1009a0006150e100fcff3a00c9ff3700889fbe009c
:1009b0008a9fbe00841f7800b0ff07004f007800b8
:1009c00011003300f0ff2f00838f6c0006003b0006
:1009d000040565000a00a7000800370009f0a6001a
:1009e0001000200008003700820f5400838f5c0045
:1009f000030039001000200001003e00000020002c
:100a000009f0a7000000ea004f05be004f04be0039
:100a10000000e00000000600881f78000304780052
:100a20000300e00007003d0060001000e0801800b7
:100a300060011900e081190002003b0001f02d0067
:100a4000030037000400070008f0a70001f0a00031
:100a50004f04780000000600889fbe008a9fbe00f9
:100a600000827000040271000482710026003200ce
:100a70000004be000200be006011b8006b09200037
:100a8000950220000182cf000a0039000541b10023
:100a90000082cf00070039000541b1000982cf0074
:100aa000040039000541b1000882cf00010039007f
:100ab0000541b10005425200120032000a003b001d
:100ac00082817100610164008100d1000080d30047
:100ad0008984d3000884d3008b05e8000442e80031
:100ae000f7ff3a00070037000804440089844c00ef
:100af00000004800818048008b05e9000442e900bd
:100b0000f9ff3a0022ff07004f05be004f04be0068
:040b100000000600db
:020000040000fa
:100b14000400fa00008fbe0002002c006341240090
:100b24001e00be006cff0700f8fe070000007800fe
:100b3400b00e88001e01be000000200001f8230052
:100b44002dfe070002002c006341240062ff070011
:100b5400eefe070000007800c00e88000080fa0056
:100b6400000006000000fa00d622ef00c00f2000ab
:100b740090168800f01f200030168800c702a900d4
:100b84000421ef0021088000f0fc2f0000806000a9
:100b94000040a0002008880050e6200010088800cb
:100ba400a1048000f0ff28000080600000c0a000c5
:100bb400a00488008460a9008c60a80005e1a80056
:100bc40000f02f0040158800a022ef0001158000de
:100bd400f0cf2f00008060000090a0000015880076
:100be400aa22ef00a222ef00500020002015880066
:100bf400a622ef00a1e2a80030032000400e8800e6
:100c0400ca21ef00c021ef00010e800030ff2f0049
:100c140000806000000e8800010e8000c0ff2f00dd
:100c2400008060000010a000000e8800c0122000a8
:100c3400200e8800c221ef00c1e1a80010062000a8
:100c4400f010880017e2a80019e2a8001942a800d1
:100c54000080fa00000006000200fa00000f78008d
:100c64001e00780030158800a022a8001000200083
:100c740001002000ee030700a022a90000000000ec
:100c840000158000610060000000e000fcff3200fd
:100c9400001480000080fa00000006000200fa0040
:100ca400000f78009e00780051458800f070220003
:100cb4009e007800808f500014003600504580005c
:100cc40001712200730007005045880050458000e0
:100cd400813e20006f000700504588005045800089
:100ce400410620006b0007005045880050458000f5
:100cf400a10020006700070050458800504580008f
:100d0400110020006300070050458800703e200059
:100d14009e007800808f500014003600f07022008e
:100d24009e007800808f500010003e0050458000e7
:100d3400813e200057000700504588005045800040
:100d440041062000530007005045880050458000ac
:100d5400a10020004f000700504588005045800046
:100d6400110020004b000700504588003006200089
:100d74009e007800808f500010003600703e2000e6
:100d84009e007800808f50000c003e00504580008b
:100d9400410620003f000700504588005045800070
:100da400a10020003b00070050458800504580000a
:100db4001100200037000700504588001e0078000d
:100dc400e90f50000c003600300620009e00780029
:100dd400808f500008003e0050458000a100200094
:100de4002c00070050458800504580001100200069
:100df40028000700504588001e007800e90f5000c5
:100e040004003e005045800011002000210007002e
:100e1400504588000080fa00000006000400fa0033
:100e2400008fbe001e00be0017fe07000000780001
:100e34006045880060458000cf80de004efe0700dc
:100e44000001be001e00be006bfd07008045880047
:100e54009145880080458000914580000200200073
:100e6400a34724009cfe070007fe0700000078004b
:100e7400704588006045800088ff0700e0c2b30029
:100e84001d0007007045800084ff07000080fa0001
:100e9400000006000400fa00000f78001107980013
:100ea40000000000c11080000020200000806000cd
:100eb4000000e000fbff3a009e0078001e00900056
:100ec40000017800110009008280d8000003b000fe
:100ed400d01088009e0078001e0090000001780069
:100ee400110009008280d8008000fd00000f780006
:100ef4000080fa00000006000200fa00004f7800ab
:100f040000000000c110800000202000008060006c
:100f14000000e000fbff3a001e00fb00d010880038
:100f24000080fa00000006000e00fa00008fbe00e8
:100f34002207980033079800440798005607980042
:100f440067079800810020007082200022000700bb
:100f54002e009000be009000b0ff070060c5b300f3
:100f6400e5ff070081002000d08320001a0007005d
:100f74001e00be00a9ff070010c4b300deff070077
:100f84008100200050842000130007004e009000d0
:100f94008000eb00fbfd0700325c2f00030c2400f3
:100fa40073fd07009dff070050c2b300d2ff070086
:100fb40091002000d0842000070007005e0090000c
:100fc400ee00900095ff070060c5b300caff07005c
:100fd4000080fa00000006000400fa00000f780008
:100fe40011079800b428ef000e003700000000003d
:100ff400c110800000202000008060000000e0009c
:10100400fbff3a00a04580001e004000104078001d
:101014000000fb00d0108800a04580000000e8001c
:10102400a04588001e0090008000e900a0458000d3
:10103400808f5000edff3c000080fa0000000600a5
:101044000600fa00889fbe00008fbe0022079800a9
:101054000200200003f023001e00be001efe070055
:101064000004be002e009000c200dd006088200055
:10107400008040001000be000200200003f02300a6
:1010840015fe07000001be000800be00dbfc0700df
:101094002e019000c211dd00e2892000028141008e
:1010a4000089be002e009000c200dd006088200090
:1010b400008040003e1878002e1078002e0090002a
:1010c400c200dd00e0892000008040001000be0066
:1010d4002e019000c211dd0022892000028141000e
:1010e4000089be002e009000c200dd00e0892000cf
:1010f400008040001000be004f04be000080fa00d3
:10110400000006000600fa00889fbe00008fbe00a3
:10111400220798008299290093cf23001e00be0065
:10112400edfd07000004be002e009000c200dd00ab
:1011340060882000008040001000be0082992900d1
:1011440093cf2300e4fd07000001be000800be00a9
:10115400aafc07000004be002e009000c200dd00bf
:1011640020892000008040001000be006266260036
:1011740003f72300d8fd07000001be000800be00ed
:101184009efc07002e019000c211dd00e2892000c0
:10119400028141000089be002e009000c200dd00e3
:1011a40060882000008040003e1878002e107800ef
:1011b4002e009000c200dd00e08920000080400085
:1011c4001000be002e019000c211dd002289200013
:1011d400028141000089be002e009000c200dd00a3
:1011e400e0892000008040001000be004f04be00d3
:1011f4000080fa00000006007600fa00881f7800dc
:1012040040062000700f98007e0890008000e900de
:10121400011798004200dd000000e8000000e8002b
:101224000000d100800040000f0078008187470053
:101234000000e8000000d1000000400010179800f2
:101244007e0890008000e900211798004200dd002c
:101254000000e8000000e8000000d1008000400029
:101264000f007800818747000000e8000000d100eb
:1012740000004000301798007e0890008000e900cc
:10128400411798004200dd000000e8000000e8007b
:101294000000d100800040000f00780081874700e3
:1012a4000000e8000000d100000040005017980042
:1012b4000000eb00600798000000eb006017980046
:1012c4000000eb00700798000000eb007017980016
:1012d4000000eb00000f98006000b800001f9800a9
:1012e400111f98000000200001f02300500f980007
:1012f400610f98006066260061f62300201f9800a5
:10130400311f9800d0cc2c00c1ec2300401f980062
:10131400511f9800f026210031b02300601f98006f
:10132400711f9800a0702d0031c22300002798007f
:1013340011279800a0702d0031c2230020279800a7
:1013440031279800a0702d0031c223004027980057
:1013540051279800f026210031a823006027980027
:101364007127980000382c00911c2000002f980051
:10137400112f9800fbfd07006000b800e4fd070092
:101384000000eb00000f9800150037000e089000d5
:10139400c200dd0060882000008140006000b800c9
:1013a4000089be000e089000c200dd0020892000e4
:1013b400008140006000b8000089be000e08900063
:1013c400c200dd00e0892000008140006000b80018
:1013d4000089be000e0890000000e800000f98008d
:1013e4000e089000e20f5000e8ff340003003700bd
:1013f4000000000001003700000000009e10900073
:101404006e0090004200dd00008040002e29900014
:10141400be2990000288be00be1090006e009000ad
:101424004200dd00008040004e299000de2990003b
:101434000288be00de1090006e0090004200dd00c5
:10144400008040006e299000fe2990000288be00b2
:101454006e0090000000e80060079800ee00900025
:101464007e089000808f5000e1ff3a006000b800d1
:10147400008fbe006000b800200798003107980074
:101484006000b80040079800510798000000eb0086
:1014940060079800220037009e1090006e009000b4
:1014a4004200dd00008040001000be000001be00cc
:1014b4001e00be00d1fb0700008fbe00be109000ce
:1014c4006e0090004200dd00008040001000be006d
:1014d4000001be002e009000be009000c7fb070074
:1014e4002007980031079800de1090006e009000ed
:1014f4004200dd00008040001000be000001be007c
:101504004e009000de009000bcfb070040079800ee
:10151400510798006e0090000000e80060079800f2
:10152400ee0090007e089000808f5000daff3500b6
:101534007e089000cf80de008ffc07000001be0013
:101544001e00be000afc0700008fbe007e0890004b
:10155400cf80de0088fc07000001be002e00900052
:10156400be00900002fc0700200798003107980095
:101574007e089000cf80de007ffc07000001be00e3
:101584004e009000de009000f9fb07004007980031
:10159400510798000000eb0060079800e0108000fd
:1015a400003798008e30900010032000808f500088
:1015b40013003a007e0090000000e00010003a00a2
:1015c4001000200070079800410120006085200071
:1015d40081fe0700d642a800d602a8000e2890007b
:1015e4009e28900064fc0700d2cc2c00c3dc2300ae
:1015f400b9fc070045fc07008d010700d602a900cd
:101604008e30900000032000808f500005003a00c7
:101614000000eb007007980051012000a086200014
:101624006dfe070020072000003798008e309000e0
:1016340020072000808f5000040032008e3090007c
:1016440020052000808f500009003a00b00e800071
:101654004e039000de039000000278000e19900003
:101664009e1990002e009000be0090002efe0700f0
:101674007e0090000000e00003003a006000b80023
:1016840023fd0700d642a9007e009000e10f500020
:1016940059ff3a001e099000ae0990001e00be00da
:1016a40055fb070010379800213798003e09900039
:1016b400ce0990002e009000be0090004efb070063
:1016c400303798004137980018c0b3000e219000bd
:1016d4009e2190003e309000ce309000e6fb070043
:1016e4000000e000010034000044eb000804e000c6
:1016f400400032000e2090009e20900001f0a200d5
:1017040018c0b3003e319000ce319000dafb0700e0
:101714000000e000010034000044eb000804e00095
:101724003400320018c0b3002e219000be21900076
:101734001e309000ae309000cffb07000000e000a8
:10174400010034000044eb000804e0000e00320005
:101754002e209000be20900001f0a20018c0b3001b
:101764001e319000ae319000c3fb07000000e00082
:10177400010034000044eb000804e00002003200e1
:10178400000000006000370018c0b3002e21900054
:10179400be2190001e309000ae309000b8fb0700d0
:1017a4000000e00001003c000044eb000804e000fd
:1017b400080032006e199000fe1990005e08900037
:1017c400ee0890000cfb0700500f9800610f980082
:1017d4004d0037006e199000fe1990005e089000cd
:1017e400ee08900005fb0700500f9800610f980069
:1017f400450037002e019000be0190001e00be007f
:101804005bfb070050379800613798003e31900029
:10181400ce3190001e309000ae30900054fb070093
:1018240070379800013f98007e3190008e39900007
:101834005e309000ee309000f0fa0700103f980000
:10184400213f980018c0b3004e219000de21900083
:101854001e389000ae38900087fb07000000e000bf
:10186400010034000044eb000804e0000c003200e6
:101874004e209000de20900001f0a20018c0b300ba
:101884001e399000ae3990007bfb07000000e00099
:10189400010034000044eb000804e0001a003a00a0
:1018a40018c0b3004e219000de2190001e38900035
:1018b400ae38900072fb07000000e00001003c001d
:1018c4000044eb000804e000080032006e199000a8
:1018d400fe1990005e089000ee089000c6fa07001a
:1018e400500f9800610f9800070037006e199000a0
:1018f400fe1990005e089000ee089000bffa070001
:10190400500f9800610f980018c0b3002e19900072
:10191400be1990005e089000ee08900058fb070086
:101924000000e00001003d000044eb000804e0007a
:10193400040032002e199000be199000520f980036
:10194400630f980018c0b3004e199000de19900080
:101954005e089000ee08900047fb07000000e000de
:10196400010034000044eb000804e00004003200ed
:101974004e199000de199000520f9800630f9800e2
:101984001e01be00120f9800230f98002e01900034
:10199400be019000320f9800430f98005e0890003b
:1019a400ee0890005afc070094fe37003600f80059
:1019b400809fbe00829fbe00849fbe00869fbe00a3
:1019c4003400f80000002000a00188002800fa007c
:1019d4008460a900b01680000000d100614060005e
:1019e40011c0b30000c05000614060000080fb00e3
:1019f4006100600000004000b11680000110a100e9
:101a040001007000b0168800cb02a8000000eb00b3
:101a140091fc07008000eb005afb0700008fbe001a
:101a240002002000030a24001e00be00aafb0700d7
:101a340002f02f00f3772400cdfa07002007980066
:101a44003107980002002000031724002e009000a4
:101a5400be009000a0fb0700020020000308240041
:101a6400c3fa0700400798005107980010002000af
:101a740079fc07008000eb0042fb07006007980038
:101a84007107980002002000030a24006e009000f1
:101a9400fe00900090fb070002f02f00f377240073
:101aa400b3fa0700000f9800110f980002002000fd
:101ab400031424000e0890009e08900086fb070083
:101ac400200f9800310f98002000200062fc0700ce
:101ad4008000eb002bfb0700400f9800510f98008b
:101ae40002002000030a24004e089000de08900043
:101af40079fb070002f02f00f37724009cfa07001b
:101b0400600f9800710f980002002000a32c24009d
:101b14006e089000fe0890006ffb07000017980005
:101b2400111798000001eb000e1090009e10900019
:101b340043fd07002017980031179800cb02a90035
:101b44000080fa003400f9004f03be004f02be00cb
:101b54004f01be004f00be003600f90000400600f1
:020000040000fa
:101b640086080000300000000000000000080000ab
:101b740086000000020000000a2031002d54750088
:101b8400726e20006f6e20005379730074656d00cf
:101b9400000a2000302d540075726e00206f66001c
:101ba4006620530079737400656d00000a205600a6
:101bb4005f5056003d000a0020522d00526561001e
:101bc4006420440061746100000a2000495f5000f1
:101bd400563d00000a204400757479003d000a0057
:101be40020565f006f7574003d000a00202a2a0009
:101bf4002a537900737465006d204f004e2a2a0021
:101c04002a200a00000a20002a2a2a005379730095
:101c140074656d00204f4600462a2a002a200a00d7
:101c2400000a440055545900000000000000000060
:020000040000fa
:101c3400f03fb1000180b10006003500ee03090059
:101c440000000000403fb1000180b100fbff3d00f7
:101c54001000b000203fb0000200350000800900f1
:081c6400000000000000060072
:020000040000fa
:101c6c000000fa000080fa00000006000000fa00f4
:081c7c000080fa0000000600e0
:020000040000fa
:0200000401f009
:04000000f3bf00004a
:020000040000fa
:0200000401f009
:04000400ff7f00007a
:020000040000fa
:0200000401f009
:04000800fc7f000079
:00000001FF
