:020000040000fa
:080000000001040000000000f3
:020000040000fa
:04000800f8010000fb
:020000040000fa
:04000c00c801000027
:020000040000fa
:04001000ce0100001d
:020000040000fa
:04001400d401000013
:020000040000fa
:04001800da01000009
:020000040000fa
:04001c00f8010000e7
:020000040000fa
:04002000f8010000e3
:020000040000fa
:04002400f8010000df
:020000040000fa
:04002800f8010000db
:020000040000fa
:04002c00f8010000d7
:020000040000fa
:04003000f8010000d3
:020000040000fa
:04003400580c000064
:020000040000fa
:04003800f8010000cb
:020000040000fa
:04003c00f8010000c7
:020000040000fa
:04004000f8010000c3
:020000040000fa
:04004400f8010000bf
:020000040000fa
:04004800f8010000bb
:020000040000fa
:04004c00f8010000b7
:020000040000fa
:04005000f8010000b3
:020000040000fa
:04005400f8010000af
:020000040000fa
:04005800f8010000ab
:020000040000fa
:04005c00f8010000a7
:020000040000fa
:04006000f8010000a3
:020000040000fa
:04006400f80100009f
:020000040000fa
:04006800f80100009b
:020000040000fa
:04006c00f801000097
:020000040000fa
:04007000f801000093
:020000040000fa
:04007400f80100008f
:020000040000fa
:04007800f80100008b
:020000040000fa
:04007c00f801000087
:020000040000fa
:04008000f801000083
:020000040000fa
:04008400f80100007f
:020000040000fa
:04008800f80100007b
:020000040000fa
:04008c00f801000077
:020000040000fa
:04009000f801000073
:020000040000fa
:04009400f80100006f
:020000040000fa
:04009800f80100006b
:020000040000fa
:04009c00f801000067
:020000040000fa
:0400a000f801000063
:020000040000fa
:0400a400f80100005f
:020000040000fa
:0400a800f80100005b
:020000040000fa
:0400ac00f801000057
:020000040000fa
:0400b000f801000053
:020000040000fa
:0400b400f80100004f
:020000040000fa
:0400b800f80100004b
:020000040000fa
:0400bc00f801000047
:020000040000fa
:0400c000f801000043
:020000040000fa
:0400c400f80100003f
:020000040000fa
:0400c800f80100003b
:020000040000fa
:0400cc00f801000037
:020000040000fa
:0400d000f801000033
:020000040000fa
:0400d400f80100002f
:020000040000fa
:0400d800f80100002b
:020000040000fa
:04010800f8010000fa
:020000040000fa
:04010c00e00100000e
:020000040000fa
:04011000e601000004
:020000040000fa
:04011400ec010000fa
:020000040000fa
:04011800f2010000f0
:020000040000fa
:04011c00f8010000e6
:020000040000fa
:04012000f8010000e2
:020000040000fa
:04012400f8010000de
:020000040000fa
:04012800f8010000da
:020000040000fa
:04012c00f8010000d6
:020000040000fa
:04013000f8010000d2
:020000040000fa
:04013400f8010000ce
:020000040000fa
:04013800f8010000ca
:020000040000fa
:04013c00f8010000c6
:020000040000fa
:04014000f8010000c2
:020000040000fa
:04014400f8010000be
:020000040000fa
:04014800f8010000ba
:020000040000fa
:04014c00f8010000b6
:020000040000fa
:04015000f8010000b2
:020000040000fa
:04015400f8010000ae
:020000040000fa
:04015800f8010000aa
:020000040000fa
:04015c00f8010000a6
:020000040000fa
:04016000f8010000a2
:020000040000fa
:04016400f80100009e
:020000040000fa
:04016800f80100009a
:020000040000fa
:04016c00f801000096
:020000040000fa
:04017000f801000092
:020000040000fa
:04017400f80100008e
:020000040000fa
:04017800f80100008a
:020000040000fa
:04017c00f801000086
:020000040000fa
:04018000f801000082
:020000040000fa
:04018400f80100007e
:020000040000fa
:04018800f80100007a
:020000040000fa
:04018c00f801000076
:020000040000fa
:04019000f801000072
:020000040000fa
:04019400f80100006e
:020000040000fa
:04019800f80100006a
:020000040000fa
:04019c00f801000066
:020000040000fa
:0401a000f801000062
:020000040000fa
:0401a400f80100005e
:020000040000fa
:0401a800f80100005a
:020000040000fa
:0401ac00f801000056
:020000040000fa
:0401b000f801000052
:020000040000fa
:0401b400f80100004e
:020000040000fa
:0401b800f80100004a
:020000040000fa
:0401bc00f801000046
:020000040000fa
:0401c000f801000042
:020000040000fa
:0401c400f80100003e
:020000040000fa
:0401c800f80100003a
:020000040000fa
:0401cc00f801000036
:020000040000fa
:0401d000f801000032
:020000040000fa
:0401d400f80100002e
:020000040000fa
:0401d800f80100002a
:020000040000fa
:100200002f9320000eff20000e0188000000000048
:10021000000020000000e000020032000001200089
:100220002002880014000700730007000000e000af
:1002300003003a0040df20000100200002003700e8
:100240000000200001002000810f7000010032003a
:1002500014000700000020000000e000020032004f
:1002600000000200000000003e0c02000000000040
:100270000040da000000fe004440a9000000200019
:100280000000e0000300320000002000a001880010
:100290004440a800000006008a1f78008b1f7800e9
:1002a0000000060091018800800478000000eb0047
:1002b0001a003700e284440032a0b4009905ba0065
:1002c000e284440032a0b4009906ba00e2844400fb
:1002d00032a0b4000006eb00476fde00fd07b2005d
:1002e000636ce10003003a00ebff07000000eb0045
:1002f0000a003700606ce10004003a00005deb008a
:100300008b05e900fdff3e00040037006168e10055
:10031000010032000086eb000b00070019c7ba008d
:100320001905ba000e04e00003003a000a00e000dc
:10033000e0ff3a0000000600fe07b2009e018800c0
:100340008a047800f5ff3700395dba008b05e900b3
:100350000c003200295dba008b05e900080032006c
:100360000c00e00003003a00e284440032a0b40034
:10037000f5ff370019ddba008b05e900faff3a00f6
:100380008904e800e184440032a0b40000000600c3
:100390000000fa008020a900ffff37000000fa00eb
:1003a0008060a900ffff37000000fa008040a9002c
:1003b000ffff37000000fa008080a900ffff370030
:1003c0000000fa008020a900ffff37000000fa00bb
:1003d0008060a900ffff37000000fa008040a900fc
:1003e000ffff37000000fa008080a900ffff370000
:1003f0000000fa00ffff37000000050003f0a20034
:10040000889fbe008a9fbe008c1f78001b010700da
:10041000220133006450e1004f0032006420e1000b
:100420005200320003826c0007003b000905d00037
:100430000306d000820f54000c065d000200390054
:100440000200320089017800030678008582550099
:1004500004003d000003fd008103fd008502ea0069
:100460008b854200840f720002003b006000100088
:10047000e08018006011b8000005eb007a28e10068
:100480000a00390006007800c75ddd00f707b200fa
:10049000878075002d003700828171000a01780085
:1004a000610560008180d1000080d3008502e900f1
:1004b000f9ff3b00060440008784480002003b002f
:1004c00060041400e0841c000988a30007003200c7
:1004d0008a81710082817100610164008904d10008
:1004e0000884d3008b05e800170037000978a300c3
:1004f00013003a000b00e000130034008b05e90004
:100500000804440089844c000a4474000978a3005c
:100510000d003a000b00e000070034008b05e900f5
:100520000804440089844c0001003a000b002000bc
:100530000978a300f7ff32000001eb00020037004a
:10054000828171000a017800910007000cf0a70079
:1005500001f0a000da0037006420e10002003a0058
:10056000838f6c00da0033000801be000200be0079
:10057000d3003700889fbe008a9fbe008c1f780082
:10058000be000700c500330003866c006450e10024
:100590002e0032006420e100330032006150e1009f
:1005a0002f0032006120e1003100320085855500c6
:1005b000eb07b00009002000080420000500370008
:1005c0000804440089844c000a00310006034300fb
:1005d00087834b000001530081815b00f8ff3300eb
:1005e0000203be000800a0000804440089844c00f7
:1005f000f6ff3900c639dd008301730001003200c7
:10060000130020008904d1000884d3000998a300b6
:10061000050032000800a7000300a0008904d100f3
:100620000884d3008b05e8008904d1000884d30036
:100630000001eb000281d2005500070001f0a1008b
:100640000cf0a70001f0a0009d0037006420e1003d
:100650009f0032000801be000200be00f7ff370015
:100660006120e1009a0032006000b800f3ff37001b
:100670000000200001f82700f0ff370014002000e0
:10068000ca003700f4ff2f00c80037000001be0089
:10069000650007000470a70003f0a1006509b10020
:1006a000160032000d0035006828e1000600350014
:1006b000f0ff2f00f1ff27000300e00013003b00d4
:1006c0000100280000000500000040008180480073
:1006d0008502e900fcff3a0008003700f88f42006d
:1006e00002003c008000eb00000005008100d1000a
:1006f0000080d3008502e800fcff3a000300e00020
:1007000002003b0060001000e080180000000600be
:100710000001be00440007000470a70003f0a10020
:1007200003f8a30013003a006509b100100032007d
:10073000090035006928e1000200350001002800a9
:100740000000050000004000818048008502e900ab
:10075000fcff3a0000000600f88f4200050035005b
:100760008100d1000080d3008502e800fcff3a0040
:10077000000006008000eb00000005004f89de004d
:1007800082017800a40037006011b800b200370081
:1007900081002000618055000b003d000b0020000f
:1007a00061fe2f000100e1001d0034008281710014
:1007b000610164008904d1000884d3000000e800ce
:1007c000faff3a007100200061006400030070002d
:1007d000020060000900320061044400e0844c0023
:1007e0000988a500050032008b05e8006808e100d3
:1007f00002003a008904d1000884d300f20f2000df
:100800000258e10005003d00c75ddd00f907b200b8
:100810008980750008007800000006000bf82700aa
:100820008b00780000000500c70ade00f107b20067
:10083000f50fb20008003200e1cf420002003200a2
:100840000170a00024000500810f7000010032003b
:100850000408050044000500810f700002003a0002
:10086000140005008502e9000000400081c0480036
:10087000fcff3b000170a000240005000004be0046
:10088000e9ff07000003be000405be000200be0031
:10089000e5ff0700844f7500000006000200be005f
:1008a0006450e100050036006420e10002003600db
:1008b0000968a30001003a000800be000160a00022
:1008c0004f0678004f05be004f04be000000060032
:1008d000f0ff2f00f1ff2700f9ff3700889fbe00cf
:1008e0008a9fbe008c1f7800e4ff0700ebff3300f7
:1008f00003866c006450e100240032006420e100b3
:10090000270032006150e100220032006120e10046
:10091000210032008b854200eb07b1000134b800a2
:10092000003ab8000804420089844a00013ab8003d
:100930000030b8008880400009014a0004003300fc
:100940000000400081804800020149008b05e90059
:10095000c909dd008301700001003200130020008e
:10096000c814de004814dd004709de001200b200a2
:10097000c808de000884700085ff070001f0a100b0
:100980000cf0a70001f0a000cdff37006120e100ce
:10099000cfff32000801be000200be00f7ff3700a3
:1009a0006150e100fcff3a00c9ff3700889fbe009c
:1009b0008a9fbe00841f7800b0ff07004f007800b8
:1009c00011003300f0ff2f00838f6c0006003b0006
:1009d000040565000a00a7000800370009f0a6001a
:1009e0001000200008003700820f5400838f5c0045
:1009f000030039001000200001003e00000020002c
:100a000009f0a7000000ea004f05be004f04be0039
:100a10000000e00000000600881f78000304780052
:100a20000300e00007003d0060001000e0801800b7
:100a300060011900e081190002003b0001f02d0067
:100a4000030037000400070008f0a70001f0a00031
:100a50004f04780000000600889fbe008a9fbe00f9
:100a600000827000040271000482710026003200ce
:100a70000004be000200be006011b8006b09200037
:100a8000950220000182cf000a0039000541b10023
:100a90000082cf00070039000541b1000982cf0074
:100aa000040039000541b1000882cf00010039007f
:100ab0000541b10005425200120032000a003b001d
:100ac00082817100610164008100d1000080d30047
:100ad0008984d3000884d3008b05e8000442e80031
:100ae000f7ff3a00070037000804440089844c00ef
:100af00000004800818048008b05e9000442e900bd
:100b0000f9ff3a0022ff07004f05be004f04be0068
:040b100000000600db
:020000040000fa
:100b14000200fa000000eb00000f78000000eb0078
:100b2400000f7800130037001e007800c200dd00bb
:100b340060812000008140006000b8000089be0090
:100b44001e007800c200dd00e08220000081400029
:100b54006000b8000089be001e007800c200dd00fd
:100b640060842000008140006000b8000089be005d
:100b74001e0fe8001e007800e50f5000eaff340065
:100b84000080fa00000006000200fa00889fbe0000
:100b94000000eb00000f7800c010800061006000ce
:100ba4000000e00030003200e0108000000f780008
:100bb400100320009e007800808f50000a003a0045
:100bc40000408000e40f500007003a0030458000e8
:100bd4000000e00004003a001000200020458800d6
:100be4002000200000408800000320009e007800c0
:100bf400808f500003003a0000408000e50f500051
:100c04000300320000408000e60f500003003a0069
:100c1400a428ef00100020000040880020072000d6
:100c24009e007800808f50000400320020052000d0
:100c34009e007800808f50000b003a003243800001
:100c440043438000b40e80001043800021438000a1
:100c540098438000a94380000203be000001be0047
:100c64000800be00140207004f04be000080fa0012
:100c7400000006000000fa00d642a800d602a80030
:100c84004045800051458000bbfe0700d2cc2c00bb
:100c9400c3dc230010ff07009cfe070008040700c4
:100ca400d602a9000080fa00000006000000fa0045
:100cb4006000b800fa000700d642a9000080fa00dc
:100cc400000006000000fa00304580000000e0004b
:100cd40004003a00a04080000000e800a040880022
:100ce400010037001428ef00a1408000401f2000bd
:100cf400808f500006003a0020458000e10f50002c
:100d040003003a001428ef0020002000004088006f
:100d14000080fa00000006003c00fa00881f7800fa
:100d24006017980071179800021f9800131f98000d
:100d3400241f9800351f9800461f9800571f9800dd
:100d44006066260061f62300008fbe00d0cc2c0024
:100d5400c1ec23002007980031079800f0262100f9
:100d640031b023004007980051079800a0702d006f
:100d740031c223006007980071079800a0702d000d
:100d840031c22300000f9800110f9800a0702d00ad
:100d940031c22300200f9800310f98004e199000a3
:100da400de1990002e189000be18900092fd0700e6
:100db400400f9800510f98000e1990009e19900052
:100dc4006e109000fe1090008bfd0700600f9800dd
:100dd400710f980018c0b3006e019000fe019000de
:100de4006e089000fe08900023fe07000000e0005b
:100df400010034000044eb000804e000400032002d
:100e04006e009000fe00900001f0a20018c0b30034
:100e14006e099000fe09900017fe07000000e00034
:100e2400010034000044eb000804e0003400320008
:100e340018c0b3000e0990009e0990004e0890005f
:100e4400de0890000cfe07000000e0000100340002
:100e54000044eb000804e0000e0032000e0890008d
:100e64009e08900001f0a20018c0b3004e09900043
:100e7400de09900000fe07000000e00001003400dd
:100e84000044eb000804e00002003200000000000f
:100e94006100370018c0b3000e0990009e0990004d
:100ea4004e089000de089000f5fd07000000e00009
:100eb40001003c000044eb000804e000080032009c
:100ec40070408000814080004e019000de0190005f
:100ed40049fd070070408800814088004e003700bb
:100ee40070408000814080004e019000de0190003f
:100ef40042fd0700704088008140880046003700aa
:100f04006e119000fe1190002e189000be189000f3
:100f140097fd070000179800111798006e099000bc
:100f2400fe0990004e089000de08900090fd070036
:100f340020179800311798002e119000be119000d0
:100f44000e1090009e1090002cfd07004017980092
:100f54005117980018c0b3002e099000be099000e4
:100f64004e109000de109000c3fd07000000e0006a
:100f7400010034000044eb000804e0000c003200df
:100f84002e089000be08900001f0a20018c0b30023
:100f94004e119000de119000b7fd07000000e00044
:100fa400010034000044eb000804e0001a003a0099
:100fb40018c0b3002e099000be0990004e10900096
:100fc400de109000aefd07000000e00001003c00d0
:100fd4000044eb000804e000080032007040800088
:100fe400814080004e019000de01900002fd070068
:100ff40070408800814088000700370070408000fe
:10100400814080004e019000de019000fbfc07004f
:1010140070408800814088007040800081408000da
:1010240018c0b3001e01be0095fd07000000e000db
:1010340001003d000044eb000804e000030032001e
:101044001e01be007240880083408800704080000a
:101054008140800018c0b3002e019000be019000b2
:1010640085fd07000000e000010034000044eb00af
:101074000804e000040032002e019000be0190003c
:101084007240880083408800704080008140800066
:10109400030007004f0478000080fa0000000600f7
:1010a4000400fa00008fbe0002002c0063412400fb
:1010b4001e00be0008fe070094fd07000000780033
:1010c400b00e88001e01be000000200001f82300bd
:1010d400c9fc070002002c0063412400fefd070048
:1010e4008afd070000007800c00e88000080fa0026
:1010f400000006000000fa00d622ef00c00f200016
:1011040090168800f01f2000301688000421ef009c
:1011140021088000f0fc2f00008060000040a00047
:101124002008880050e6200010088800a1048000f0
:10113400f0ff28000080600000c0a000a004880028
:101144008460a9008c60a80005e1a80000f02f00cd
:1011540040158800a022ef0001158000f0cf2f0079
:10116400008060000090a00000158800aa22ef0013
:10117400a222ef005000200020158800a622ef00d4
:10118400a1e2a80030032000400e8800ca21ef002d
:10119400c021ef00010e800030ff2f0000806000ae
:1011a400000e8800010e8000c0ff2f000080600048
:1011b4000010a000000e8800c0122000200e88003d
:1011c400c221ef00c1e1a80010062000f010880041
:1011d40017e2a80019e2a8001942a8000080fa004a
:1011e400000006000200fa00000f78001e007800dc
:1011f40030158800a022a800100020000100200063
:10120400af020700a022a900000000000015800022
:10121400610060000000e000fcff32000014800068
:101224000080fa00000006000200fa00000f7800b7
:101234009e00780041408800f07022009e007800f3
:10124400808f50001400360040408000017122005d
:10125400730007004040880040408000813e200029
:101264006f00070040408800404080004106200095
:101274006b0007004040880040408000a10020002f
:1012840067000700404088004040800011002000b3
:101294006300070040408800703e20009e007800f4
:1012a400808f500014003600f07022009e007800f9
:1012b400808f500010003e0040408000813e20009e
:1012c400570007004040880040408000410620004d
:1012d400530007004040880040408000a1002000e7
:1012e4004f0007004040880040408000110020006b
:1012f4004b00070040408800300620009e00780024
:10130400808f500010003600703e20009e00780050
:10131400808f50000c003e004040800041062000b9
:101324003f0007004040880040408000a1002000aa
:101334003b0007004040880040408000110020002e
:1013440037000700404088001e007800e90f500075
:101354000c003600300620009e007800808f50007c
:1013640008003e0040408000a10020002c0007003f
:101374004040880040408000110020002800070001
:10138400404088001e007800e90f500004003e0031
:1013940040408000110020002100070040408800e8
:1013a4000080fa00000006000400fa00008fbe006e
:1013b4001e00be00b4fc0700000078005040880006
:1013c40050408000cf80de00ebfc07000001be002f
:1013d4001e00be0008fc0700204088003140880041
:1013e400204080003140800002002000a3472400f8
:1013f40039fd0700a4fc0700000078006040880065
:101404005040800088ff0700e0c2b3001e000700c0
:101414006040800084ff07000080fa00000006009e
:101424000400fa00000f7800110798000000000083
:10143400c110800000202000008060000000e00057
:10144400fbff3a009e0078001e0090000001780027
:10145400110009008280d8000003b000d010880079
:101464009e0078001e009000000178001100090021
:101474008280d8008000fd00000f78000000eb009f
:101484000080fa00000006000200fa00004f780015
:1014940000000000c11080000020200000806000d7
:1014a4000000e000fbff3a001e00fb00d0108800a3
:1014b4000080fa00000006000e00fa00008fbe0053
:1014c40022079800330798004407980056079800ad
:1014d4006707980081002000308d2000220007005b
:1014e4001e00be00b0ff070060c5b300e6ff0700a2
:1014f40081002000908e20001b0007002e00900029
:10150400be009000a8ff070010c4b300deff070070
:1015140081002000108f2000130007004e0090006f
:101524008000eb0097fc0700325c2f00030c2400c2
:101534000ffc07009cff070050c2b300d2ff070056
:1015440091002000908f2000070007005e009000ab
:10155400ee00900094ff070060c5b300caff0700c7
:101564000080fa00000006000400fa00000f780072
:1015740011079800a228ef000e00370000000000b9
:10158400c110800000202000008060000000e00006
:10159400fbff3a00104580001e0040001040780018
:1015a4000000fb00d0108800104580000000e80017
:1015b400104588001e0090008000e900104580005e
:1015c400808f5000edff3c000080fa000000060010
:1015d4000600fa00889fbe00008fbe002207980014
:1015e4000200200003f023001e00be00bafc070026
:1015f4000004be002e009000c200dd0060812000c7
:10160400008040001000be000200200003f0230010
:10161400b1fc07000001be000800be0077fb070014
:101624002e019000c211dd0062842000028141007d
:101634000089be002e009000c200dd006081200001
:10164400008040003e1878002e1078002e00900094
:10165400c200dd0060842000008040001000be0055
:101664002e019000c211dd00e282200002814100bf
:101674000089be002e009000c200dd0060842000be
:10168400008040001000be004f04be000080fa003d
:10169400000006000600fa00889fbe00008fbe000e
:1016a400220798008299290093cf23001e00be00d0
:1016b40089fc07000004be002e009000c200dd007b
:1016c40060812000008040001000be008299290043
:1016d40093cf230080fc07000001be000800be0079
:1016e40046fb07000004be002e009000c200dd008f
:1016f400e0822000008040001000be0062662600e8
:1017040003f7230074fc07000001be000800be00bc
:101714003afb07002e019000c211dd006284200014
:10172400028141000089be002e009000c200dd004d
:1017340060812000008040003e1878002e10780060
:101744002e009000c200dd00608420000080400074
:101754001000be002e019000c211dd00e2822000c4
:10176400028141000089be002e009000c200dd000d
:1017740060842000008040001000be004f04be00c2
:101784000080fa00000006000000fa0030458000e6
:101794000000e00004003a00a04080000000e800df
:1017a400a0408800010037001428ef00a140800009
:1017b400401f2000808f500006003a002045800022
:1017c400e10f500003003a001428ef00200020002d
:1017d400004088000080fa00000006000000fa00c3
:1017e40000408000e30f500018003200e30f500067
:1017f40005003e00e10f500010003200e10f5000e0
:101804000a003e0007003700e50f500014003200c4
:10181400e50f500014003900e60f50000e003200ae
:1018240013003700d8ff07001100370011fd07002f
:1018340050002000004088000d0037001bfd070009
:1018440040002000004088000900370017fd070011
:1018540060002000004088001afd070004003700e3
:10186400cb02a90002003700cb02a8000000000050
:101874000080fa00000006000000fa001dfe0700c8
:10188400a3fc0700cb02a900010037000000000000
:10189400bdfc070010408000e10f5000fbff3a0040
:1018a400ceff07000228ef00f9ff37003600f800ea
:1018b400809fbe00829fbe00849fbe00869fbe00a4
:1018c400889fbe003400f80000002000a0018800ba
:1018d4000000fa008460a900b01680000000d10066
:1018e4006140600011c0b30000c05000614060005e
:1018f4000080fb006100600000004000b116800021
:101904000110a10001007000b01688000000eb0077
:1019140034fe07008000eb009afb07007044880047
:1019240081448800704480008144800002002000cb
:10193400030a2400e8fb070002f02f00f3772400d9
:101944000bfb0700f043880001448800f04380004b
:10195400014480000200200003172400defb07007e
:10196400020020000308240001fb0700d044880083
:10197400e1448800100020001afe07008000eb00fc
:1019840080fb070050448800614488005044800074
:101994006144800002002000030a2400cefb0700fb
:1019a40002f02f00f3772400f1fa070010448800b6
:1019b400214488001044800021448000020020005b
:1019c40003142400c4fb0700b0448800c144880009
:1019d4002000200003fe07008000eb0069fb0700e5
:1019e40090448800a144880090448000a144800071
:1019f40002002000030a2400b7fb070002f02f00b6
:101a0400f3772400dafa0700304488004144880060
:101a1400304480004144800002002000a32c2400b4
:101a2400adfb0700f044880001458800b044800005
:101a3400c14480000001eb0016ff0700f04288005b
:101a440001438800d0448000e1448000120020005b
:101a540010ff07001043880021438800f0448000f1
:101a640001458000220020000aff0700304388005f
:101a740041438800b0448000c1448000320020000b
:101a8400d3fe07005043880061438800d04480009f
:101a9400e144800042002000cdfe0700704388002e
:101aa40081438800f04480000145800052002000fa
:101ab400c7fe070090438800a1438800f0448000db
:101ac4000145800018c0b30002002000031a24005e
:101ad400ebfa07000000e00001003c000044eb00ca
:101ae4000804e0000d003200f0448000014580004d
:101af40018c0b3000200200003222400defa07000d
:101b04000000e000010035000044eb000804e000a0
:101b140002003200a628ef00060037001000200063
:101b240000408800300020000040880010002000a1
:101b3400304588009140800030062000808f50009e
:101b44001a00340000408000e50f500017003a00ee
:101b5400d4438000e5438000124380002343800087
:101b6400b0438000c1438000f842800009438000f4
:101b74000403be000202be000001be000800be0055
:101b840065fc07001228ef00f0428000014380004a
:101b9400b0438800c1438800104380002143800083
:101ba400d0438800e1438800030037009040800060
:101bb4000000e800904088001000200010408800d9
:101bc4000080fa003400f9004f04be004f03be0049
:101bd4004f02be004f01be004f00be003600f900a8
:041be40000400600b7
:020000040000fa
:101be800a40800008e0000000200000001000100af
:101bf8000080c300c9010a0020312d00547572000d
:101c08006e206f006e20530079737400656d0000bc
:101c18000a2030002d547500726e20006f66660031
:101c280020537900737465006d000a0020565f0028
:101c380050563d00000a2000522d52006561640094
:101c480020446100746100000a2049005f5056007a
:101c58003d000a002044750074793d00000a200008
:101c6800565f6f0075743d00000a20002a2a2a007a
:101c78005379730074656d00204f4e002a2a2a009c
:101c8800200a00000a202a002a2a530079737400c7
:101c9800656d20004f4646002a2a2a00200a0000c7
:101ca8000a445500545900000000000000080000d4
:0c1cb800a400000000000000000000007c
:020000040000fa
:101cc400f03fb1000180b10006003500ee030900c9
:101cd40000000000403fb1000180b100fbff3d0067
:101ce4001000b000203fb000020035000080090061
:081cf4000000000000000600e2
:020000040000fa
:101cfc000000fa000080fa00000006000000fa0064
:081d0c000080fa00000006004f
:020000040000fa
:0200000401f009
:04000000f3bf00004a
:020000040000fa
:0200000401f009
:04000400ff7f00007a
:020000040000fa
:0200000401f009
:04000800fcff0000f9
:00000001FF
