:020000040000fa
:080000000001040000000000f3
:020000040000fa
:04000800f8010000fb
:020000040000fa
:04000c00c801000027
:020000040000fa
:04001000ce0100001d
:020000040000fa
:04001400d401000013
:020000040000fa
:04001800da01000009
:020000040000fa
:04001c00f8010000e7
:020000040000fa
:04002000f8010000e3
:020000040000fa
:04002400f8010000df
:020000040000fa
:04002800f8010000db
:020000040000fa
:04002c00f8010000d7
:020000040000fa
:04003000f8010000d3
:020000040000fa
:040034008e0e00002c
:020000040000fa
:04003800f8010000cb
:020000040000fa
:04003c00f8010000c7
:020000040000fa
:04004000f8010000c3
:020000040000fa
:04004400f8010000bf
:020000040000fa
:04004800f8010000bb
:020000040000fa
:04004c00f8010000b7
:020000040000fa
:04005000f8010000b3
:020000040000fa
:04005400f8010000af
:020000040000fa
:04005800f8010000ab
:020000040000fa
:04005c00f8010000a7
:020000040000fa
:04006000f8010000a3
:020000040000fa
:04006400f80100009f
:020000040000fa
:04006800f80100009b
:020000040000fa
:04006c00f801000097
:020000040000fa
:04007000f801000093
:020000040000fa
:04007400f80100008f
:020000040000fa
:04007800f80100008b
:020000040000fa
:04007c00f801000087
:020000040000fa
:04008000f801000083
:020000040000fa
:04008400f80100007f
:020000040000fa
:04008800f80100007b
:020000040000fa
:04008c00f801000077
:020000040000fa
:04009000f801000073
:020000040000fa
:04009400f80100006f
:020000040000fa
:04009800f80100006b
:020000040000fa
:04009c00f801000067
:020000040000fa
:0400a000f801000063
:020000040000fa
:0400a400f80100005f
:020000040000fa
:0400a800f80100005b
:020000040000fa
:0400ac00f801000057
:020000040000fa
:0400b000f801000053
:020000040000fa
:0400b400f80100004f
:020000040000fa
:0400b800f80100004b
:020000040000fa
:0400bc00f801000047
:020000040000fa
:0400c000f801000043
:020000040000fa
:0400c400f80100003f
:020000040000fa
:0400c800f80100003b
:020000040000fa
:0400cc00f801000037
:020000040000fa
:0400d000f801000033
:020000040000fa
:0400d400f80100002f
:020000040000fa
:0400d800f80100002b
:020000040000fa
:04010800f8010000fa
:020000040000fa
:04010c00e00100000e
:020000040000fa
:04011000e601000004
:020000040000fa
:04011400ec010000fa
:020000040000fa
:04011800f2010000f0
:020000040000fa
:04011c00f8010000e6
:020000040000fa
:04012000f8010000e2
:020000040000fa
:04012400f8010000de
:020000040000fa
:04012800f8010000da
:020000040000fa
:04012c00f8010000d6
:020000040000fa
:04013000f8010000d2
:020000040000fa
:04013400f8010000ce
:020000040000fa
:04013800f8010000ca
:020000040000fa
:04013c00f8010000c6
:020000040000fa
:04014000f8010000c2
:020000040000fa
:04014400f8010000be
:020000040000fa
:04014800f8010000ba
:020000040000fa
:04014c00f8010000b6
:020000040000fa
:04015000f8010000b2
:020000040000fa
:04015400f8010000ae
:020000040000fa
:04015800f8010000aa
:020000040000fa
:04015c00f8010000a6
:020000040000fa
:04016000f8010000a2
:020000040000fa
:04016400f80100009e
:020000040000fa
:04016800f80100009a
:020000040000fa
:04016c00f801000096
:020000040000fa
:04017000f801000092
:020000040000fa
:04017400f80100008e
:020000040000fa
:04017800f80100008a
:020000040000fa
:04017c00f801000086
:020000040000fa
:04018000f801000082
:020000040000fa
:04018400f80100007e
:020000040000fa
:04018800f80100007a
:020000040000fa
:04018c00f801000076
:020000040000fa
:04019000f801000072
:020000040000fa
:04019400f80100006e
:020000040000fa
:04019800f80100006a
:020000040000fa
:04019c00f801000066
:020000040000fa
:0401a000f801000062
:020000040000fa
:0401a400f80100005e
:020000040000fa
:0401a800f80100005a
:020000040000fa
:0401ac00f801000056
:020000040000fa
:0401b000f801000052
:020000040000fa
:0401b400f80100004e
:020000040000fa
:0401b800f80100004a
:020000040000fa
:0401bc00f801000046
:020000040000fa
:0401c000f801000042
:020000040000fa
:0401c400f80100003e
:020000040000fa
:0401c800f80100003a
:020000040000fa
:0401cc00f801000036
:020000040000fa
:0401d000f801000032
:020000040000fa
:0401d400f80100002e
:020000040000fa
:0401d800f80100002a
:020000040000fa
:100200006f9720000eff20000e0188000000000004
:10021000000020000000e000020032000001200089
:100220002002880014000700730007000000e000af
:1002300003003a00c0032100010020000200370043
:100240000000200001002000810f7000010032003a
:1002500014000700000020000000e000020032004f
:1002600000000200000000006e0e0200000000000e
:100270000040da000000fe004440a9000000200019
:100280000000e0000300320000002000a001880010
:100290004440a800000006008a1f78008b1f7800e9
:1002a0000000060091018800800478000000eb0047
:1002b0001a003700e284440032a0b4009905ba0065
:1002c000e284440032a0b4009906ba00e2844400fb
:1002d00032a0b4000006eb00476fde00fd07b2005d
:1002e000636ce10003003a00ebff07000000eb0045
:1002f0000a003700606ce10004003a00005deb008a
:100300008b05e900fdff3e00040037006168e10055
:10031000010032000086eb000b00070019c7ba008d
:100320001905ba000e04e00003003a000a00e000dc
:10033000e0ff3a0000000600fe07b2009e018800c0
:100340008a047800f5ff3700395dba008b05e900b3
:100350000c003200295dba008b05e900080032006c
:100360000c00e00003003a00e284440032a0b40034
:10037000f5ff370019ddba008b05e900faff3a00f6
:100380008904e800e184440032a0b40000000600c3
:100390000000fa008020a900ffff37000000fa00eb
:1003a0008060a900ffff37000000fa008040a9002c
:1003b000ffff37000000fa008080a900ffff370030
:1003c0000000fa008020a900ffff37000000fa00bb
:1003d0008060a900ffff37000000fa008040a900fc
:1003e000ffff37000000fa008080a900ffff370000
:1003f0000000fa00ffff37000000050003f0a20034
:10040000889fbe008a9fbe008c1f78001b010700da
:10041000220133006450e1004f0032006420e1000b
:100420005200320003826c0007003b000905d00037
:100430000306d000820f54000c065d000200390054
:100440000200320089017800030678008582550099
:1004500004003d000003fd008103fd008502ea0069
:100460008b854200840f720002003b006000100088
:10047000e08018006011b8000005eb007a28e10068
:100480000a00390006007800c75ddd00f707b200fa
:10049000878075002d003700828171000a01780085
:1004a000610560008180d1000080d3008502e900f1
:1004b000f9ff3b00060440008784480002003b002f
:1004c00060041400e0841c000988a30007003200c7
:1004d0008a81710082817100610164008904d10008
:1004e0000884d3008b05e800170037000978a300c3
:1004f00013003a000b00e000130034008b05e90004
:100500000804440089844c000a4474000978a3005c
:100510000d003a000b00e000070034008b05e900f5
:100520000804440089844c0001003a000b002000bc
:100530000978a300f7ff32000001eb00020037004a
:10054000828171000a017800910007000cf0a70079
:1005500001f0a000da0037006420e10002003a0058
:10056000838f6c00da0033000801be000200be0079
:10057000d3003700889fbe008a9fbe008c1f780082
:10058000be000700c500330003866c006450e10024
:100590002e0032006420e100330032006150e1009f
:1005a0002f0032006120e1003100320085855500c6
:1005b000eb07b00009002000080420000500370008
:1005c0000804440089844c000a00310006034300fb
:1005d00087834b000001530081815b00f8ff3300eb
:1005e0000203be000800a0000804440089844c00f7
:1005f000f6ff3900c639dd008301730001003200c7
:10060000130020008904d1000884d3000998a300b6
:10061000050032000800a7000300a0008904d100f3
:100620000884d3008b05e8008904d1000884d30036
:100630000001eb000281d2005500070001f0a1008b
:100640000cf0a70001f0a0009d0037006420e1003d
:100650009f0032000801be000200be00f7ff370015
:100660006120e1009a0032006000b800f3ff37001b
:100670000000200001f82700f0ff370014002000e0
:10068000ca003700f4ff2f00c80037000001be0089
:10069000650007000470a70003f0a1006509b10020
:1006a000160032000d0035006828e1000600350014
:1006b000f0ff2f00f1ff27000300e00013003b00d4
:1006c0000100280000000500000040008180480073
:1006d0008502e900fcff3a0008003700f88f42006d
:1006e00002003c008000eb00000005008100d1000a
:1006f0000080d3008502e800fcff3a000300e00020
:1007000002003b0060001000e080180000000600be
:100710000001be00440007000470a70003f0a10020
:1007200003f8a30013003a006509b100100032007d
:10073000090035006928e1000200350001002800a9
:100740000000050000004000818048008502e900ab
:10075000fcff3a0000000600f88f4200050035005b
:100760008100d1000080d3008502e800fcff3a0040
:10077000000006008000eb00000005004f89de004d
:1007800082017800a40037006011b800b200370081
:1007900081002000618055000b003d000b0020000f
:1007a00061fe2f000100e1001d0034008281710014
:1007b000610164008904d1000884d3000000e800ce
:1007c000faff3a007100200061006400030070002d
:1007d000020060000900320061044400e0844c0023
:1007e0000988a500050032008b05e8006808e100d3
:1007f00002003a008904d1000884d300f20f2000df
:100800000258e10005003d00c75ddd00f907b200b8
:100810008980750008007800000006000bf82700aa
:100820008b00780000000500c70ade00f107b20067
:10083000f50fb20008003200e1cf420002003200a2
:100840000170a00024000500810f7000010032003b
:100850000408050044000500810f700002003a0002
:10086000140005008502e9000000400081c0480036
:10087000fcff3b000170a000240005000004be0046
:10088000e9ff07000003be000405be000200be0031
:10089000e5ff0700844f7500000006000200be005f
:1008a0006450e100050036006420e10002003600db
:1008b0000968a30001003a000800be000160a00022
:1008c0004f0678004f05be004f04be000000060032
:1008d000f0ff2f00f1ff2700f9ff3700889fbe00cf
:1008e0008a9fbe008c1f7800e4ff0700ebff3300f7
:1008f00003866c006450e100240032006420e100b3
:10090000270032006150e100220032006120e10046
:10091000210032008b854200eb07b1000134b800a2
:10092000003ab8000804420089844a00013ab8003d
:100930000030b8008880400009014a0004003300fc
:100940000000400081804800020149008b05e90059
:10095000c909dd008301700001003200130020008e
:10096000c814de004814dd004709de001200b200a2
:10097000c808de000884700085ff070001f0a100b0
:100980000cf0a70001f0a000cdff37006120e100ce
:10099000cfff32000801be000200be00f7ff3700a3
:1009a0006150e100fcff3a00c9ff3700889fbe009c
:1009b0008a9fbe00841f7800b0ff07004f007800b8
:1009c00011003300f0ff2f00838f6c0006003b0006
:1009d000040565000a00a7000800370009f0a6001a
:1009e0001000200008003700820f5400838f5c0045
:1009f000030039001000200001003e00000020002c
:100a000009f0a7000000ea004f05be004f04be0039
:100a10000000e00000000600881f78000304780052
:100a20000300e00007003d0060001000e0801800b7
:100a300060011900e081190002003b0001f02d0067
:100a4000030037000400070008f0a70001f0a00031
:100a50004f04780000000600889fbe008a9fbe00f9
:100a600000827000040271000482710026003200ce
:100a70000004be000200be006011b8006b09200037
:100a8000950220000182cf000a0039000541b10023
:100a90000082cf00070039000541b1000982cf0074
:100aa000040039000541b1000882cf00010039007f
:100ab0000541b10005425200120032000a003b001d
:100ac00082817100610164008100d1000080d30047
:100ad0008984d3000884d3008b05e8000442e80031
:100ae000f7ff3a00070037000804440089844c00ef
:100af00000004800818048008b05e9000442e900bd
:100b0000f9ff3a0022ff07004f05be004f04be0068
:040b100000000600db
:020000040000fa
:100b14000000fa0031408000703e2000808f5000b9
:100b24000600340050408000e10f500003003a00fa
:100b3400250007000628ef000d0037003140800033
:100b4400703e2000808f500006003400604080001a
:100b5400e10f500003003a00330007000628ef00bd
:100b640003003700304080000000e8003040880077
:100b74000080fa00000006000000fa0090408000a7
:100b84000000a20000f0a7000000ea000000ea0054
:100b94004f00de00904088000080fa00000006004c
:100ba4000000fa00a04080000000a20000f0a700ae
:100bb4000000ea000000ea004f00de00a0408800c8
:100bc4000080fa00000006000000fa00889fbe00c2
:100bd40090408000e10f500010003a00b60e8000f3
:100be400d4458000e5458000f24480000345800040
:100bf400b0458000c145800098458000a94580002b
:100c0400861f78000403be000202be000001be007d
:100c14000800be00930207008f87e9004f04be005e
:100c24000080fa00000006000000fa00889fbe0061
:100c3400a0408000e10f500010003a00b60e800082
:100c4400d4458000e5458000f244800003458000df
:100c5400b0458000c145800098458000a9458000ca
:100c6400861f78000403be000202be000001be001d
:100c74000800be00b00207008f87e9004f04be00e1
:100c84000080fa00000006000200fa000000eb00f9
:100c9400000f78000000eb00000f7800130037000d
:100ca4001e007800c200dd00e083200000814000c7
:100cb4006000b8000089be001e007800c200dd009c
:100cc400a0852000008140006000b8000089be00bb
:100cd4001e007800c200dd00608720000081400013
:100ce4006000b8000089be001e0fe8001e007800f6
:100cf400e60f5000eaff34000080fa00000006000e
:100d04000200fa000000eb00000f7800c010800021
:100d1400610060000000e0003d003200e01080004f
:100d2400000f7800100320009e007800808f500090
:100d340009003a00004780000000e00006003a0085
:100d44000c28ef000a28ef0010002000104788004c
:100d54002000200070408800100320009e007800ce
:100d6400808f500009003a0000478000e10f5000d6
:100d740006003a000c28ef000a28ef0010002000bb
:100d840010478800300020007040880000032000d5
:100d94009e007800808f500005003a000c28ef0078
:100da4000a28ef00e228ef001000200070408800bd
:100db400200620009e007800808f5000040032003e
:100dc400200420009e007800808f500004003a0028
:100dd40010002000504088000c28ef0066ff070038
:100de400500620009e007800808f500004003200de
:100df400500420009e007800808f500004003a00c8
:100e040010002000604088000a28ef0064ff0700fb
:100e14000080fa00000006000000fa00d642a80094
:100e2400d662a800204780003147800052fe0700a8
:100e34000200200003f02300a7fe070033fe070092
:100e4400c5040700d662a9000080fa00000006006d
:100e54000000fa006000b800f90007000080fa0002
:100e6400000006000000fa00004780000000e000d7
:100e740004003a00404080000000e8004040880040
:100e8400010037000828ef0041408000301f200097
:100e9400808f50000600340010478000e10f50009e
:100ea40003003a000828ef0020002000704088006a
:100eb4000080fa00000006003c00fa00881f780059
:100ec4006017980071179800021f9800131f98006c
:100ed400241f9800351f9800461f9800571f98003c
:100ee4006066260061f62300008fbe00000020002b
:100ef40001f023002007980031079800f026210014
:100f040031b023004007980051079800a0702d00cd
:100f140031c223006007980071079800a0702d006b
:100f240031c22300000f9800110f9800a0702d000b
:100f340031c22300200f9800310f98004e19900001
:100f4400de1990002e189000be1890002afd0700ac
:100f5400400f9800510f98000e1990009e199000b0
:100f64006e109000fe10900023fd0700600f9800a3
:100f7400710f980018c0b3006e019000fe0190003c
:100f84006e089000fe089000bbfd07000000e00022
:100f9400010034000044eb000804e000400032008b
:100fa4006e009000fe00900001f0a20018c0b30093
:100fb4006e099000fe099000affd07000000e000fc
:100fc400010034000044eb000804e0003400320067
:100fd40018c0b3000e0990009e0990004e089000be
:100fe400de089000a4fd07000000e00001003400ca
:100ff4000044eb000804e0000e0032000e089000ec
:101004009e08900001f0a20018c0b3004e099000a1
:10101400de09900098fd07000000e00001003400a4
:101024000044eb000804e00002003200000000006d
:101034006100370018c0b3000e0990009e099000ab
:101044004e089000de0890008dfd07000000e000cf
:1010540001003c000044eb000804e00008003200fa
:1010640000408000114080004e019000de0190009d
:10107400e1fc070000408800114088004e00370062
:1010840000408000114080004e019000de0190007d
:10109400dafc070000408800114088004600370051
:1010a4006e119000fe1190002e189000be18900052
:1010b4002ffd070000179800111798006e09900083
:1010c400fe0990004e089000de08900028fd0700fd
:1010d40020179800311798002e119000be1190002f
:1010e4000e1090009e109000c4fc0700401798005a
:1010f4005117980018c0b3002e099000be09900043
:101104004e109000de1090005bfd07000000e00030
:10111400010034000044eb000804e0000c0032003d
:101124002e089000be08900001f0a20018c0b30081
:101134004e119000de1190004ffd07000000e0000a
:10114400010034000044eb000804e0001a003a00f7
:1011540018c0b3002e099000be0990004e109000f4
:10116400de10900046fd07000000e00001003c0096
:101174000044eb000804e000080032000040800056
:10118400114080004e019000de0190009afc07009f
:1011940000408800114088000700370000408000ac
:1011a400114080004e019000de01900093fc070086
:1011b40000408800114088000040800011408000f9
:1011c40018c0b3001e01be002dfd07000000e000a2
:1011d40001003d000044eb000804e000030032007d
:1011e4001e01be00024088001340880000408000b9
:1011f4001140800018c0b3002e019000be01900081
:101204001dfd07000000e000010034000044eb0075
:101214000804e000040032002e019000be0190009a
:101224000240880013408800004080001140800084
:10123400030007004f0478000080fa000000060055
:101244000400fa00008fbe0002002c006341240059
:101254001e00be00a0fd07002cfd07000000780062
:10126400b00e88001e01be000000200001f823001b
:1012740061fc070002002c006341240096fd070076
:1012840022fd070000007800c00e88000080fa00ec
:10129400000006000000fa00d622ef00000f200034
:1012a40090168800f01f2000301688000421ef00fb
:1012b40021088000f0fc2f00008060000040a000a6
:1012c4002008880050e6200010088800a10480004f
:1012d400f0ff28000080600000c0a000a004880087
:1012e4008460a9008c60a80005e1a80000f02f002c
:1012f40040158800a022ef0001158000f0cf2f00d8
:10130400008060000090a00000158800aa22ef0071
:10131400a222ef005000200020158800a622ef0032
:10132400a1e2a80030032000400e8800ca21ef008b
:10133400c021ef00010e800030ff2f00008060000c
:10134400000e8800010e8000c0ff2f0000806000a6
:101354000010a000000e8800c0122000200e88009b
:10136400c221ef00c1e1a80010062000f01088009f
:1013740017e2a80019e2a8001942a8000080fa00a8
:10138400000006000200fa00000f78001e0078003a
:1013940030158800a022a8001000200001002000c1
:1013a4006d030700a022a9000000000000158000c2
:1013b400610060000000e000fcff320000148000c7
:1013c4000080fa00000006000400fa0010079800ec
:1013d4009e009000010f78009e009000f0702200a3
:1013e400808f500014003600017122001e00780026
:1013f40076000700000f7800813e20001e00780070
:1014040072000700000f7800410620001e007800db
:101414006e000700000f7800a10020001e00780075
:101424006a000700000f7800110020001e007800f9
:1014340066000700000f78009e009000703e2000b8
:10144400808f5000140036009e009000f07022003f
:10145400808f500010003e00813e20001e00780066
:101464005a000700000f7800410620001e00780093
:1014740056000700000f7800a10020001e0078002d
:1014840052000700000f7800110020001e007800b1
:101494004e000700000f78009e00900030062000e8
:1014a400808f5000100036009e009000703e200097
:1014b400808f50000c003e00410620001e00780082
:1014c40042000700000f7800a10020001e007800f1
:1014d4003e000700000f7800110020001e00780075
:1014e4003a000700000f78001e009000e90f50003a
:1014f4000c0036009e00900030062000808f5000c3
:1015040008003e00a10020001e0078002f00070004
:10151400000f7800110020001e0078002b00070047
:10152400000f78001e009000e90f500004003e00f8
:10153400110020001e00780024000700000f78002e
:101544000080fa00000006000c00fa004007980032
:10155400510798004e009000de0090004afc0700fe
:10156400000f78001e007800cf80de0082fc0700a8
:101574000001be004e009000de0090009efb0700bc
:10158400100798002107980002002000a3472400b8
:101594001e009000ae009000cffc07003afc07004c
:1015a400300798001e00780087ff0700e0c2b300f0
:1015b400200007003e00900083ff07003e009000db
:1015c40081ff07000080fa00000006000400fa0012
:1015d400000f78001107980000000000c11080007f
:1015e40000202000008060000000e000fbff3a00c3
:1015f4009e0078001e009000000178001100090090
:101604008280d8000003b000d01088009e007800cb
:101614001e00900000017800110009008280d800ab
:101624008000fd00000f78001e0078000080fa00a2
:10163400000006000200fa00004f780000000000dd
:10164400c110800000202000008060000000e00045
:10165400fbff3a001e00fb00d01088000080fa0057
:10166400000006001000fa00008fbe002207980058
:1016740033079800440798005507980066079800b8
:101684007707980081002000f090200050000700a8
:101694001e00be00acff070060c5b300e5ff0700f5
:1016a4008100200050922000490007002e00900085
:1016b400be009000a4ff070010c4b300ddff0700c4
:1016c40091002000e0932000410007004e009000ac
:1016d400de0090009cff070070c5b300d5ff070033
:1016e4009100200050932000390007006e00900004
:1016f400fe00900094ff070060c5b300cdff070013
:1017040081002000d0922000310007004eb89700dd
:101714008000eb001bfc0700325c2f00030c24004c
:1017240093fb070088ff070050c2b300c1ff070006
:101734000080fa00000006001000fa00008fbe00ce
:10174400220798003307980044079800550798002b
:1017540066079800770798001e00be007aff07000e
:10176400b0c3b300b3ff07002e009000be0090008a
:1017740075ff0700b0c3b300aeff07004e00900032
:10178400de00900070ff0700b0c3b300a9ff07009c
:101794006e009000fe0090006bff0700b0c3b30022
:1017a400a4ff07004eb897008000eb00f5fb07008c
:1017b400325c2f00030c24006dfb070062ff07005e
:1017c400a0c0b3009bff07000080fa0000000600e1
:1017d4000400fa00000f780011079800de28ef00db
:1017e4000e00370000000000c1108000002020001f
:1017f400008060000000e000fbff3a00f04680003b
:101804001e004000104078000000fb00d01088004b
:10181400f04680000000e800f04688001e009000ba
:101824008000e900f0468000808f5000edff3c000e
:101834000080fa00000006000600fa00889fbe003f
:10184400008fbe00220798000200200003f023004e
:101854001e00be0020fc07000004be002e00900005
:10186400c200dd00e0832000008040001000be00c4
:101874000200200003f0230017fc07000001be0053
:101884000800be00ddfa07002e019000c211dd0041
:1018940062872000028141000089be002e00900072
:1018a400c200dd00e0832000008040003e18780084
:1018b4002e1078002e009000c200dd00608720000a
:1018c400008040001000be002e019000c211dd0017
:1018d400a2852000028141000089be002e009000f4
:1018e400c200dd0060872000008040001000be00c0
:1018f4004f04be000080fa00000006000600fa0053
:10190400889fbe00008fbe0022079800829929009c
:1019140093cf23001e00be00effb07000004be00af
:101924002e009000c200dd00e08320000080400013
:101934001000be008299290093cf2300e6fb070024
:101944000001be000800be00acfa07000004be009f
:101954002e009000c200dd00a08520000080400021
:101964001000be006266260003f72300dafb0700be
:101974000001be000800be00a0fa07002e0190007e
:10198400c211dd0062872000028141000089be008f
:101994002e009000c200dd00e083200000804000a3
:1019a4003e1878002e1078002e009000c200dd0052
:1019b40060872000008040001000be002e019000cf
:1019c400c211dd00a2852000028141000089be0011
:1019d4002e009000c200dd006087200000804000df
:1019e4001000be004f04be000080fa000000060094
:1019f4000600fa00889fbe00008fbe0022079800f0
:101a040092e42300d3b423001e00be00b2fb0700ff
:101a14000004be002e009000c200dd00e083200020
:101a2400008040001000be0092e42300d3b42300e1
:101a3400a9fb07000001be000800be006ffa070002
:101a44000004be002e009000c200dd00a08520002e
:101a5400008040001000be0032582600e3f7230047
:101a64009dfb07000001be000800be0063fa0700ea
:101a74002e019000c211dd00628720000281410026
:101a84000089be002e009000c200dd00e08320002b
:101a9400008040003e1878002e1078002e00900040
:101aa400c200dd0060872000008040001000be00fe
:101ab4002e019000c211dd00a285200002814100a8
:101ac4000089be002e009000c200dd006087200067
:101ad400008040001000be004f04be000080fa00e9
:101ae400000006000600fa00889fbe00008fbe00ba
:101af4002207980002882a00439a23001e00be0091
:101b040075fb07000004be002e009000c200dd003b
:101b1400e0832000008040001000be0002882a00fc
:101b2400439a23006cfb07000001be000800be00be
:101b340032fa07000004be002e009000c200dd004f
:101b4400a0852000008040001000be00626d2d00c2
:101b5400f3f7230060fb07000001be000800be008d
:101b640026fa07002e019000c211dd0062872000d2
:101b7400028141000089be002e009000c200dd00f9
:101b8400e0832000008040003e1878002e1078008a
:101b94002e009000c200dd0060872000008040001d
:101ba4001000be002e019000c211dd00a2852000ad
:101bb400028141000089be002e009000c200dd00b9
:101bc40060872000008040001000be004f04be006b
:101bd4000080fa00000006000000fa006000b8006f
:101be40097fd0700004780000000e00004003a0071
:101bf400404080000000e8004040880001003700b9
:101c04000828ef0041408000301f2000808f5000e2
:101c14000600340010478000e10f500003003a0032
:101c24000828ef0020002000704088000080fa009f
:101c3400000006000000fa0070408000e30f50002e
:101c44001b003200e30f500005003e00e10f50007e
:101c540013003200e10f50000d003e000700370072
:101c6400e50f500017003200e50f5000170039004f
:101c7400e60f50001100320015003700d6ff0700b0
:101c84000000200001f023006dfd07001000370064
:101c940061fc070050002000704088000c003700f1
:101ca4006bfc0700400020007040880008003700eb
:101cb40067fc0700600020007040880069fc070092
:101cc400030037000000000001003700000000009e
:101cd4000080fa00000006000000fa00c00f200097
:101ce40090168800d622a800cb02a8006000b80095
:101cf40053fd070067fd0700e3fb070080408000f9
:101d0400e10f500002003a00caff07001028ef005c
:101d1400fbfb0700f9ff37003600f800809fbe0088
:101d2400829fbe00849fbe00869fbe00889fbe0027
:101d34003400f80000002000a00188000000fa0030
:101d44008460a9000000eb008efd07008000eb001a
:101d54008cfa0700304188004141880030418000fe
:101d64004141800002002000030a2400dafa07003f
:101d740002f02f00f3772400fdf90700b04088003b
:101d8400c1408800b0408000c140800002002000b3
:101d940003172400d0fa07000200200003082400df
:101da400f3f9070090418800a14188001000200049
:101db40074fd07008000eb0072fa070010418800f0
:101dc4002141880010418000214180000200200050
:101dd400030a2400c0fa070002f02f00f37724005e
:101de400e3f90700d0408800e1408800d04080003b
:101df400e14080000200200003142400b6fa07002a
:101e04007041880081418800200020005dfd0700aa
:101e14008000eb005bfa07005041880061418800b4
:101e2400504180006141800002002000030a240028
:101e3400a9fa070002f02f00f3772400ccf9070079
:101e4400f040880001418800f0408000014180009a
:101e540002002000a32c24009ffa0700122d220068
:101e6400b3f723009cfa070012ae2700c30b24002b
:101e740062f90700b0418800c141880094418000a4
:101e8400a541800070418000814180000001be00b6
:101e94000400be0090fa0700d0418800e1418800a8
:101ea40070418000814180000001eb0093fe070037
:101eb40090458800a145880090418000a1418000a0
:101ec400120020008dfe0700b0458800c14588003f
:101ed400b0418000c14180002200200087fe07003d
:101ee400d0458800e1458800704180008141800030
:101ef4003200200050fe070010468800214688006a
:101f040090418000a1418000420020004afe070069
:101f14003046880041468800b0418000c1418000bd
:101f24005200200044fe07005046880061468800a5
:101f3400d0418000e141800062002000acfe070037
:101f4400f0448800014588005046800061468000c6
:101f540018c0b30002002000a33a2400c8f9070007
:101f64000000e00001003c000044eb000804e00035
:101f74000d003200504680006146800018c0b30056
:101f840002002000c33d2400bbf907000000e0006c
:101f9400010035000044eb000804e00002003200b8
:101fa400e028ef0006003700100020007040880091
:101fb4003000200070408800100020000047880096
:101fc4002140800030062000808f50001a00340029
:101fd40070408000e50f500017003a00b4468000be
:101fe400c5468000b2458000c3458000904680000d
:101ff400a146800098458000a94580000403be00e6
:102004000202be000001be000800be00aafb0700d9
:102014000428ef0090458000a14580009046880088
:10202400a1468800b0458000c1458000b0468800c4
:10203400c146880003003700204080000000e8000b
:1020440020408800b2fa0700100020008040880079
:102054000080fa003400f9004f04be004f03be00b4
:102064004f02be004f01be004f00be003600f90013
:042074000040060022
:020000040000fa
:1020780000080000e000000000000000e008000088
:102088009600000002000000010001000080c3006b
:10209800c9010a0020312d00547572006e206f00ae
:1020a8006e20530079737400656d00000a203000bb
:1020b8002d547500726e20006f66660020537900fb
:1020c800737465006d000a0020565f0050563d008d
:1020d800000a2000522d520065616400204461000e
:1020e800746100000a2049005f5056003d000a0054
:1020f8002044750074793d00000a2000565f6f0087
:1021080075743d00000a2000506f770065723d002d
:10211800000a20002a2a2a005379730074656d008a
:10212800204f4e002a2a2a00200a00000a202a00ee
:102138002a2a530079737400656d20004f464600c3
:102148002a2a2a00200a00000a445500545900008f
:042158000000000083
:020000040000fa
:10215c00f03fb1000180b10006003500ee0309002c
:10216c0000000000403fb1000180b100fbff3d00ca
:10217c001000b000203fb0000200350000800900c4
:08218c00000000000000060045
:020000040000fa
:102194000000fa000080fa00000006000000fa00c7
:0821a4000080fa0000000600b3
:020000040000fa
:0200000401f009
:04000000f3bf00004a
:020000040000fa
:0200000401f009
:04000400ff7f00007a
:020000040000fa
:0200000401f009
:04000800ecff000009
:00000001FF
