:020000040000fa
:080000000001040000000000f3
:020000040000fa
:04000800f8010000fb
:020000040000fa
:04000c00c801000027
:020000040000fa
:04001000ce0100001d
:020000040000fa
:04001400d401000013
:020000040000fa
:04001800da01000009
:020000040000fa
:04001c00f8010000e7
:020000040000fa
:04002000f8010000e3
:020000040000fa
:04002400f8010000df
:020000040000fa
:04002800f8010000db
:020000040000fa
:04002c00f8010000d7
:020000040000fa
:04003000f8010000d3
:020000040000fa
:04003400060d0000b5
:020000040000fa
:04003800f8010000cb
:020000040000fa
:04003c00f8010000c7
:020000040000fa
:04004000f8010000c3
:020000040000fa
:04004400f8010000bf
:020000040000fa
:04004800f8010000bb
:020000040000fa
:04004c00f8010000b7
:020000040000fa
:04005000f8010000b3
:020000040000fa
:04005400f8010000af
:020000040000fa
:04005800f8010000ab
:020000040000fa
:04005c00f8010000a7
:020000040000fa
:04006000f8010000a3
:020000040000fa
:04006400f80100009f
:020000040000fa
:04006800f80100009b
:020000040000fa
:04006c00f801000097
:020000040000fa
:04007000f801000093
:020000040000fa
:04007400f80100008f
:020000040000fa
:04007800f80100008b
:020000040000fa
:04007c00f801000087
:020000040000fa
:04008000f801000083
:020000040000fa
:04008400f80100007f
:020000040000fa
:04008800f80100007b
:020000040000fa
:04008c00f801000077
:020000040000fa
:04009000f801000073
:020000040000fa
:04009400f80100006f
:020000040000fa
:04009800f80100006b
:020000040000fa
:04009c00f801000067
:020000040000fa
:0400a000f801000063
:020000040000fa
:0400a400f80100005f
:020000040000fa
:0400a800f80100005b
:020000040000fa
:0400ac00f801000057
:020000040000fa
:0400b000f801000053
:020000040000fa
:0400b400f80100004f
:020000040000fa
:0400b800f80100004b
:020000040000fa
:0400bc00f801000047
:020000040000fa
:0400c000f801000043
:020000040000fa
:0400c400f80100003f
:020000040000fa
:0400c800f80100003b
:020000040000fa
:0400cc00f801000037
:020000040000fa
:0400d000f801000033
:020000040000fa
:0400d400f80100002f
:020000040000fa
:0400d800f80100002b
:020000040000fa
:04010800f8010000fa
:020000040000fa
:04010c00e00100000e
:020000040000fa
:04011000e601000004
:020000040000fa
:04011400ec010000fa
:020000040000fa
:04011800f2010000f0
:020000040000fa
:04011c00f8010000e6
:020000040000fa
:04012000f8010000e2
:020000040000fa
:04012400f8010000de
:020000040000fa
:04012800f8010000da
:020000040000fa
:04012c00f8010000d6
:020000040000fa
:04013000f8010000d2
:020000040000fa
:04013400f8010000ce
:020000040000fa
:04013800f8010000ca
:020000040000fa
:04013c00f8010000c6
:020000040000fa
:04014000f8010000c2
:020000040000fa
:04014400f8010000be
:020000040000fa
:04014800f8010000ba
:020000040000fa
:04014c00f8010000b6
:020000040000fa
:04015000f8010000b2
:020000040000fa
:04015400f8010000ae
:020000040000fa
:04015800f8010000aa
:020000040000fa
:04015c00f8010000a6
:020000040000fa
:04016000f8010000a2
:020000040000fa
:04016400f80100009e
:020000040000fa
:04016800f80100009a
:020000040000fa
:04016c00f801000096
:020000040000fa
:04017000f801000092
:020000040000fa
:04017400f80100008e
:020000040000fa
:04017800f80100008a
:020000040000fa
:04017c00f801000086
:020000040000fa
:04018000f801000082
:020000040000fa
:04018400f80100007e
:020000040000fa
:04018800f80100007a
:020000040000fa
:04018c00f801000076
:020000040000fa
:04019000f801000072
:020000040000fa
:04019400f80100006e
:020000040000fa
:04019800f80100006a
:020000040000fa
:04019c00f801000066
:020000040000fa
:0401a000f801000062
:020000040000fa
:0401a400f80100005e
:020000040000fa
:0401a800f80100005a
:020000040000fa
:0401ac00f801000056
:020000040000fa
:0401b000f801000052
:020000040000fa
:0401b400f80100004e
:020000040000fa
:0401b800f80100004a
:020000040000fa
:0401bc00f801000046
:020000040000fa
:0401c000f801000042
:020000040000fa
:0401c400f80100003e
:020000040000fa
:0401c800f80100003a
:020000040000fa
:0401cc00f801000036
:020000040000fa
:0401d000f801000032
:020000040000fa
:0401d400f80100002e
:020000040000fa
:0401d800f80100002a
:020000040000fa
:100200000f9320000eff20000e0188000000000068
:10021000000020000000e000020032000001200089
:100220002002880014000700730007000000e000af
:1002300003003a0040e920000100200002003700de
:100240000000200001002000810f7000010032003a
:1002500014000700000020000000e000020032004f
:100260000000020000000000fa0c02000000000084
:100270000040da000000fe004440a9000000200019
:100280000000e0000300320000002000a001880010
:100290004440a800000006008a1f78008b1f7800e9
:1002a0000000060091018800800478000000eb0047
:1002b0001a003700e284440032a0b4009905ba0065
:1002c000e284440032a0b4009906ba00e2844400fb
:1002d00032a0b4000006eb00476fde00fd07b2005d
:1002e000636ce10003003a00ebff07000000eb0045
:1002f0000a003700606ce10004003a00005deb008a
:100300008b05e900fdff3e00040037006168e10055
:10031000010032000086eb000b00070019c7ba008d
:100320001905ba000e04e00003003a000a00e000dc
:10033000e0ff3a0000000600fe07b2009e018800c0
:100340008a047800f5ff3700395dba008b05e900b3
:100350000c003200295dba008b05e900080032006c
:100360000c00e00003003a00e284440032a0b40034
:10037000f5ff370019ddba008b05e900faff3a00f6
:100380008904e800e184440032a0b40000000600c3
:100390000000fa008020a900ffff37000000fa00eb
:1003a0008060a900ffff37000000fa008040a9002c
:1003b000ffff37000000fa008080a900ffff370030
:1003c0000000fa008020a900ffff37000000fa00bb
:1003d0008060a900ffff37000000fa008040a900fc
:1003e000ffff37000000fa008080a900ffff370000
:1003f0000000fa00ffff37000000050003f0a20034
:10040000889fbe008a9fbe008c1f78001b010700da
:10041000220133006450e1004f0032006420e1000b
:100420005200320003826c0007003b000905d00037
:100430000306d000820f54000c065d000200390054
:100440000200320089017800030678008582550099
:1004500004003d000003fd008103fd008502ea0069
:100460008b854200840f720002003b006000100088
:10047000e08018006011b8000005eb007a28e10068
:100480000a00390006007800c75ddd00f707b200fa
:10049000878075002d003700828171000a01780085
:1004a000610560008180d1000080d3008502e900f1
:1004b000f9ff3b00060440008784480002003b002f
:1004c00060041400e0841c000988a30007003200c7
:1004d0008a81710082817100610164008904d10008
:1004e0000884d3008b05e800170037000978a300c3
:1004f00013003a000b00e000130034008b05e90004
:100500000804440089844c000a4474000978a3005c
:100510000d003a000b00e000070034008b05e900f5
:100520000804440089844c0001003a000b002000bc
:100530000978a300f7ff32000001eb00020037004a
:10054000828171000a017800910007000cf0a70079
:1005500001f0a000da0037006420e10002003a0058
:10056000838f6c00da0033000801be000200be0079
:10057000d3003700889fbe008a9fbe008c1f780082
:10058000be000700c500330003866c006450e10024
:100590002e0032006420e100330032006150e1009f
:1005a0002f0032006120e1003100320085855500c6
:1005b000eb07b00009002000080420000500370008
:1005c0000804440089844c000a00310006034300fb
:1005d00087834b000001530081815b00f8ff3300eb
:1005e0000203be000800a0000804440089844c00f7
:1005f000f6ff3900c639dd008301730001003200c7
:10060000130020008904d1000884d3000998a300b6
:10061000050032000800a7000300a0008904d100f3
:100620000884d3008b05e8008904d1000884d30036
:100630000001eb000281d2005500070001f0a1008b
:100640000cf0a70001f0a0009d0037006420e1003d
:100650009f0032000801be000200be00f7ff370015
:100660006120e1009a0032006000b800f3ff37001b
:100670000000200001f82700f0ff370014002000e0
:10068000ca003700f4ff2f00c80037000001be0089
:10069000650007000470a70003f0a1006509b10020
:1006a000160032000d0035006828e1000600350014
:1006b000f0ff2f00f1ff27000300e00013003b00d4
:1006c0000100280000000500000040008180480073
:1006d0008502e900fcff3a0008003700f88f42006d
:1006e00002003c008000eb00000005008100d1000a
:1006f0000080d3008502e800fcff3a000300e00020
:1007000002003b0060001000e080180000000600be
:100710000001be00440007000470a70003f0a10020
:1007200003f8a30013003a006509b100100032007d
:10073000090035006928e1000200350001002800a9
:100740000000050000004000818048008502e900ab
:10075000fcff3a0000000600f88f4200050035005b
:100760008100d1000080d3008502e800fcff3a0040
:10077000000006008000eb00000005004f89de004d
:1007800082017800a40037006011b800b200370081
:1007900081002000618055000b003d000b0020000f
:1007a00061fe2f000100e1001d0034008281710014
:1007b000610164008904d1000884d3000000e800ce
:1007c000faff3a007100200061006400030070002d
:1007d000020060000900320061044400e0844c0023
:1007e0000988a500050032008b05e8006808e100d3
:1007f00002003a008904d1000884d300f20f2000df
:100800000258e10005003d00c75ddd00f907b200b8
:100810008980750008007800000006000bf82700aa
:100820008b00780000000500c70ade00f107b20067
:10083000f50fb20008003200e1cf420002003200a2
:100840000170a00024000500810f7000010032003b
:100850000408050044000500810f700002003a0002
:10086000140005008502e9000000400081c0480036
:10087000fcff3b000170a000240005000004be0046
:10088000e9ff07000003be000405be000200be0031
:10089000e5ff0700844f7500000006000200be005f
:1008a0006450e100050036006420e10002003600db
:1008b0000968a30001003a000800be000160a00022
:1008c0004f0678004f05be004f04be000000060032
:1008d000f0ff2f00f1ff2700f9ff3700889fbe00cf
:1008e0008a9fbe008c1f7800e4ff0700ebff3300f7
:1008f00003866c006450e100240032006420e100b3
:10090000270032006150e100220032006120e10046
:10091000210032008b854200eb07b1000134b800a2
:10092000003ab8000804420089844a00013ab8003d
:100930000030b8008880400009014a0004003300fc
:100940000000400081804800020149008b05e90059
:10095000c909dd008301700001003200130020008e
:10096000c814de004814dd004709de001200b200a2
:10097000c808de000884700085ff070001f0a100b0
:100980000cf0a70001f0a000cdff37006120e100ce
:10099000cfff32000801be000200be00f7ff3700a3
:1009a0006150e100fcff3a00c9ff3700889fbe009c
:1009b0008a9fbe00841f7800b0ff07004f007800b8
:1009c00011003300f0ff2f00838f6c0006003b0006
:1009d000040565000a00a7000800370009f0a6001a
:1009e0001000200008003700820f5400838f5c0045
:1009f000030039001000200001003e00000020002c
:100a000009f0a7000000ea004f05be004f04be0039
:100a10000000e00000000600881f78000304780052
:100a20000300e00007003d0060001000e0801800b7
:100a300060011900e081190002003b0001f02d0067
:100a4000030037000400070008f0a70001f0a00031
:100a50004f04780000000600889fbe008a9fbe00f9
:100a600000827000040271000482710026003200ce
:100a70000004be000200be006011b8006b09200037
:100a8000950220000182cf000a0039000541b10023
:100a90000082cf00070039000541b1000982cf0074
:100aa000040039000541b1000882cf00010039007f
:100ab0000541b10005425200120032000a003b001d
:100ac00082817100610164008100d1000080d30047
:100ad0008984d3000884d3008b05e8000442e80031
:100ae000f7ff3a00070037000804440089844c00ef
:100af00000004800818048008b05e9000442e900bd
:100b0000f9ff3a0022ff07004f05be004f04be0068
:040b100000000600db
:020000040000fa
:100b14000200fa000000eb00000f78000000eb0078
:100b2400000f7800130037001e007800c200dd00bb
:100b340080812000008140006000b8000089be0070
:100b44001e007800c200dd00008320000081400008
:100b54006000b8000089be001e007800c200dd00fd
:100b640080842000008140006000b8000089be003d
:100b74001e0fe8001e007800e50f5000eaff340065
:100b84000080fa00000006000200fa00889fbe0000
:100b94000000eb00000f7800c010800061006000ce
:100ba4000000e0002c003200e0108000000f78000c
:100bb400100320009e007800808f50000a003a0045
:100bc40000408000e40f500007003a00a04080007d
:100bd4000000e00004003a001000200010408800eb
:100be4002000200000408800000320009e007800c0
:100bf400808f500005003a0010002000004088005b
:100c04000228ef0010002000004088002007200088
:100c14009e007800808f50000400320020052000e0
:100c24009e007800808f50000b003a004243800001
:100c340053438000b40e8000204380003143800081
:100c4400a8438000b94380000203be000001be0037
:100c54000800be004f0207004f04be000080fa00e7
:100c6400000006000000fa00d642a800d602a80040
:100c74003045800041458000bffe0700d2cc2c00e7
:100c8400c3dc230014ff0700a0fe07005a0407007a
:100c9400d602a9004101200000902000690207004b
:100ca4000080fa00000006000000fa006000b800ae
:100cb40032010700d642a9005101200040912000d2
:100cc400600207000080fa00000006000200fa003b
:100cd400881f7800f4ff07000000eb00000f780085
:100ce40010002000a04088002000200074010700ac
:100cf4008000eb00a3fe0700a0448800b1448800f4
:100d0400a0448000b144800002002000030a2400b3
:100d1400f1fe070002f02f00f377240014fe070011
:100d2400404488005144880040448000514480007d
:100d340002002000a32c2400e7fe070000458800e1
:100d440011458800004580001145800052002000b4
:100d540056020700a0438800b1438800a0438000e6
:100d6400b143800018c0b30002002000031a24001d
:100d740043fe07000000e00001003c000044eb00db
:100d84000804e0000c003200a0438000b14380005e
:100d940018c0b300020020000322240036fe07001e
:100da4000000e000010035000044eb000804e0000e
:100db400010032001e0fe800401f20009e00780052
:100dc400808f500005003a000000eb00000f78000f
:100dd4001428ef0020002000004088004f04780011
:100de4000080fa00000006003c00fa00881f78002a
:100df4006017980071179800021f9800131f98003d
:100e0400241f9800351f9800461f9800571f98000c
:100e140010408000e10f5000d5003a0060662600c3
:100e240061f62300008fbe00d0cc2c00c1ec23005f
:100e34002007980031079800f026210031b02300e4
:100e44004007980051079800a0702d0031c223007c
:100e54006007980071079800a0702d0031c223002c
:100e6400000f9800110f9800a0702d0031c22300cc
:100e7400200f9800310f98004e199000de19900051
:100e84002e189000be1890005bfd0700400f9800dc
:100e9400510f98000e1990009e1990006e1090004a
:100ea400fe10900054fd0700600f9800710f980029
:100eb40018c0b3006e019000fe0190006e0890000f
:100ec400fe089000ecfd07000000e0000100340083
:100ed4000044eb000804e000400032006e00900083
:100ee400fe00900001f0a20018c0b3006e0990004b
:100ef400fe099000e0fd07000000e000010034005e
:100f04000044eb000804e0003400320018c0b300d1
:100f14000e0990009e0990004e089000de08900093
:100f2400d5fd07000000e000010034000044eb00a0
:100f34000804e0000e0032000e0890009e089000a5
:100f440001f0a20018c0b3004e099000de09900021
:100f5400c9fd07000000e000010034000044eb007c
:100f64000804e000020032000000000061003700c5
:100f740018c0b3000e0990009e0990004e0890001e
:100f8400de089000befd07000000e00001003c0008
:100f94000044eb000804e0000800320070408000c8
:100fa400814080004e019000de01900012fd070098
:100fb40070408800814088004e00370070408000f7
:100fc400814080004e019000de0190000bfd07007f
:100fd4007040880081408800460037006e11900000
:100fe400fe1190002e189000be18900060fd0700be
:100ff40000179800111798006e099000fe099000e0
:101004004e089000de08900059fd07002017980054
:10101400311798002e119000be1190000e10900010
:101024009e109000f5fc0700401798005117980097
:1010340018c0b3002e099000be0990004e10900015
:10104400de1090008cfd07000000e0000100340079
:101054000044eb000804e0000c0032002e0890006d
:10106400be08900001f0a20018c0b3004e11900019
:10107400de11900080fd07000000e0000100340054
:101084000044eb000804e0001a003a0018c0b30062
:101094002e099000be0990004e109000de109000c2
:1010a40077fd07000000e00001003c000044eb0075
:1010b4000804e00008003200704080008140800095
:1010c4004e019000de019000cbfc070070408800c8
:1010d4008140880007003700704080008140800014
:1010e4004e019000de019000c4fc070070408800af
:1010f40081408800704080008140800018c0b300a7
:101104001e01be005efd07000000e00001003d007e
:101114000044eb000804e000030032001e01be009e
:1011240072408800834088007040800081408000c5
:1011340018c0b3002e019000be0190004efd0700c0
:101144000000e000010034000044eb000804e0006b
:10115400040032002e019000be019000724088000d
:1011640083408800704080008140800003000700b5
:101174004f0478000080fa00000006000400fa0022
:10118400008fbe0002002c00634124001e00be003c
:10119400d1fd07005dfd070000007800b00e880057
:1011a4001e01be000000200001f8230092fc07008d
:1011b40002002c0063412400c7fd070053fd070013
:1011c40000007800c00e88000080fa0000000600cd
:1011d4000000fa00d622ef00c00f2000901688000d
:1011e400f01f2000301688000421ef002108800041
:1011f400f0fc2f00008060000040a0002008880060
:1012040050e6200010088800a1048000f0ff2800a8
:101214000080600000c0a000a00488008460a900d1
:101224008c60a80005e1a80000f02f00401588009c
:10123400a022ef0001158000f0cf2f000080600095
:101244000090a00000158800aa22ef00a222ef005f
:101254005000200020158800a622ef00a1e2a8007b
:1012640030032000400e8800ca21ef00c021ef00a7
:10127400010e800030ff2f0000806000000e880007
:10128400010e8000c0ff2f00008060000010a0004d
:10129400000e8800c0122000200e8800c221ef003a
:1012a400c1e1a80010062000f010880017e2a80091
:1012b40019e2a8001942a8000080fa000000060004
:1012c4000200fa00000f78001e0078003015880034
:1012d400a022a8001000200001002000c602070080
:1012e400a022a90000000000001580006100600039
:1012f4000000e000fcff3200001480000080fa00cf
:10130400000006000200fa00000f78009e0078003a
:1013140041408800f07022009e007800808f5000c9
:101324001400360040408000017122007300070061
:101334004040880040408000813e20006f0007004c
:101344004040880040408000410620006b000700b8
:101354004040880040408000a10020006700070052
:1013640040408800404080001100200063000700d6
:1013740040408800703e20009e007800808f50001e
:1013840014003600f07022009e007800808f500018
:1013940010003e0040408000813e200057000700be
:1013a4004040880040408000410620005300070070
:1013b4004040880040408000a10020004f0007000a
:1013c4004040880040408000110020004b0007008e
:1013d40040408800300620009e007800808f500036
:1013e40010003600703e20009e007800808f500070
:1013f4000c003e0040408000410620003f000700f2
:101404004040880040408000a10020003b000700cd
:101414004040880040408000110020003700070051
:10142400404088001e007800e90f50000c00360090
:10143400300620009e007800808f500008003e0097
:1014440040408000a10020002c000700404088009c
:101454004040800011002000280007004040880020
:101464001e007800e90f500004003e004040800058
:101474001100200021000700404088000080fa008d
:10148400000006000400fa00008fbe001e00be002b
:101494007dfc070000007800504088005040800028
:1014a400cf80de00b4fc07000001be001e00be00b9
:1014b400d1fb070020408800314088002040800094
:1014c4003140800002002000a347240002fd0700f1
:1014d4006dfc0700000078006040880050408000e8
:1014e40088ff0700e0c2b3001e00070060408000d0
:1014f40084ff07000080fa00000006000400fa00e0
:10150400000f78001107980000000000c11080004f
:1015140000202000008060000000e000fbff3a0093
:101524009e0078001e009000000178001100090060
:101534008280d8000003b000d01088009e0078009c
:101544001e00900000017800110009008280d8007c
:101554008000fd00000f78000000eb000080fa001e
:10156400000006000200fa00004f780000000000ae
:10157400c110800000202000008060000000e00016
:10158400fbff3a001e00fb00d01088000080fa0028
:10159400000006000e00fa00008fbe00220798002b
:1015a4003307980044079800560798006707980087
:1015b40081002000108d2000220007001e00be00c4
:1015c400b0ff070060c5b300e6ff070081002000fc
:1015d400708e20001b0007002e009000be009000bb
:1015e400a8ff070010c4b300deff0700810020003d
:1015f400f08e2000130007004e0090008000eb00e6
:1016040060fc0700325c2f00030c2400d8fb0700a9
:101614009cff070050c2b300d2ff070091002000d6
:10162400708f2000070007005e009000ee0090001d
:1016340094ff070060c5b300caff07000080fa00ea
:10164400000006000400fa00000f7800110798005b
:10165400a428ef000e00370000000000c110800035
:1016640000202000008060000000e000fbff3a0042
:10167400204580001e004000104078000000fb0060
:10168400d0108800204580000000e8002045880034
:101694001e0090008000e90020458000808f5000eb
:1016a400edff3c000080fa00000006000600fa008e
:1016b400889fbe00008fbe00220798000200200011
:1016c40003f023001e00be0083fc07000004be00dc
:1016d4002e009000c200dd008081200000804000c8
:1016e4001000be000200200003f023007afc070073
:1016f4000001be000800be0040fb07002e01900060
:10170400c211dd0082842000028141000089be00f4
:101714002e009000c200dd00808120000080400087
:101724003e1878002e1078002e009000c200dd00d4
:1017340080842000008040001000be002e01900034
:10174400c211dd0002832000028141000089be0035
:101754002e009000c200dd00808420000080400044
:101764001000be004f04be000080fa000000060016
:101774000600fa00889fbe00008fbe002207980072
:101784008299290093cf23001e00be0052fc07005b
:101794000004be002e009000c200dd008081200005
:1017a400008040001000be008299290093cf2300de
:1017b40049fc07000001be000800be000ffb070043
:1017c4000004be002e009000c200dd000083200053
:1017d400008040001000be006266260003f723006c
:1017e4003dfc07000001be000800be0003fb07002b
:1017f4002e019000c211dd0082842000028141008c
:101804000089be002e009000c200dd00808120000f
:10181400008040003e1878002e1078002e009000c2
:10182400c200dd0080842000008040001000be0063
:101834002e019000c211dd000283200002814100cc
:101844000089be002e009000c200dd0080842000cc
:10185400008040001000be004f04be000080fa006b
:10186400000006000000fa00881f78002000200015
:1018740093fe07008000eb00c2fb0700a044880031
:10188400b1448800a0448000b144800002002000dc
:10189400030a240010fc070002f02f00f377240051
:1018a40033fb0700404488005144880040448000d2
:1018b4005144800002002000a32c240006fc0700f1
:1018c40000458800114588000045800011458000ce
:1018d4005200200075ff0700a0438800b143880030
:1018e400a0438000b143800018c0b3000200200070
:1018f400031a240062fb07000000e00001003c0022
:101904000044eb000804e0000e003200a043800015
:10191400b143800018c0b300020020000322240059
:1019240055fb07000000e000010035000044eb0017
:101934000804e00003003200b04080000000e8002a
:10194400b0408800b1408000401f2000808f5000cc
:1019540005003a001628ef001428ef00c1fc070028
:1019640020002000004088004f0478000080fa0026
:10197400000006000000fa0000408000e20f500062
:101984000e003200e20f500005003e000000e000af
:1019940008003200e10f50000c0032001200370042
:1019a400e40f50000f003200e40f50000b00390028
:1019b4000d003700abff07000b003700a9fc070040
:1019c400500020000040880007003700b6fc0700e4
:1019d400400020000040880003003700bbfc0700e3
:1019e40001003700000000000080fa00000006003b
:1019f4000000fa00f6fd070045fc070062fc070042
:101a0400dcff0700fdff37003600f800809fbe00b2
:101a1400829fbe00849fbe00869fbe00889fbe003a
:101a24003400f80000002000a00188000000fa0043
:101a34008460a900b01680000000d10061406000fd
:101a440011c0b30000c05000614060000080fb0082
:101a54006100600000004000b11680000110a10088
:101a640001007000b0168800cb02a8000000eb0053
:101a740013fe07008000eb0042fb0700804488004f
:101a8400914488008044800091448000020020003a
:101a9400030a240090fb070002f02f00f3772400d0
:101aa400b3fa070000448800114488000044800011
:101ab40011448000020020000317240086fb070065
:101ac4000200200003082400a9fa0700e04488006b
:101ad400f144880010002000f9fd07008000eb00ad
:101ae40028fb07006044880071448800604480003b
:101af4007144800002002000030a240076fb0700e2
:101b040002f02f00f377240099fa0700204488009c
:101b140031448800204480003144800002002000c9
:101b2400031424006cfb0700c0448800d1448800df
:101b340020002000e2fd07008000eb0011fb0700fd
:101b4400a0448800b1448800a0448000b1448000cf
:101b540002002000030a24005ffb070002f02f00ac
:101b6400f377240082fa0700404488005144880037
:101b7400404480005144800002002000a32c240033
:101b840055fb07000045880011458800c0448000cb
:101b9400d14480000001eb00f5fe070000438800fb
:101ba40011438800e0448000f144800012002000ca
:101bb400effe070020438800314388000045800081
:101bc4001145800022002000e9fe07004043880000
:101bd40051438800c0448000d1448000320020007a
:101be400b2fe07006043880071438800e04480002f
:101bf400f144800042002000acfe070080438800ce
:101c04009143880000458000114580005200200067
:101c1400a6fe0700a0438800b1438800a0438000cb
:101c2400b143800018c0b30002002000031a24004e
:101c340091fa07000000e000010035000044eb00c9
:101c44000804e0000b003a00a0438000b143800088
:101c540018c0b300020020000322240088fa070001
:101c64000000e00001003c000044eb000804e00038
:101c74000400320010002000a04088003000200042
:101c8400004088009140800030062000808f500082
:101c940017003400e4438000f543800022438000b1
:101ca40033438000c0438000d14380000843800058
:101cb400194380000403be000202be000001be00fe
:101cc4000800be0048fc07001228ef000043800013
:101cd40011438000c0438800d14388002043800022
:101ce40031438000e0438800f1438800030037005b
:101cf400904080000000e80090408800cb02a900da
:101d04000080fa003400f9004f04be004f03be0007
:101d14004f02be004f01be004f00be003600f90066
:041d24000040060075
:020000040000fa
:101d280000080000a600000000000000a60800004f
:101d38008a0000000200000080c3c900010a2000d8
:101d4800312d540075726e00206f6e00205379009b
:101d5800737465006d000a0020302d005475720000
:101d68006e206f00666620005379730074656d00fd
:101d7800000a2000565f5000563d00000a2052001d
:101d88002d526500616420004461740061000a00fe
:101d980020495f0050563d00000a20004475740039
:101da800793d00000a2056005f6f7500743d000001
:101db8000a202a002a2a530079737400656d2000ce
:101dc8004f4e2a002a2a20000a000a00202a2a0048
:101dd8002a537900737465006d204f0046462a0027
:101de8002a2a20000a000a0044555400590000001d
:041df80000000000e7
:020000040000fa
:101dfc00f03fb1000180b10006003500ee03090090
:101e0c0000000000403fb1000180b100fbff3d002d
:101e1c001000b000203fb000020035000080090027
:081e2c000000000000000600a8
:020000040000fa
:101e34000000fa000080fa00000006000000fa002a
:081e44000080fa000000060016
:020000040000fa
:0200000401f009
:04000000f3bf00004a
:020000040000fa
:0200000401f009
:04000400ff7f00007a
:020000040000fa
:0200000401f009
:04000800fcff0000f9
:00000001FF
