:020000040000fa
:080000000001040000000000f3
:020000040000fa
:04000800f8010000fb
:020000040000fa
:04000c00c801000027
:020000040000fa
:04001000ce0100001d
:020000040000fa
:04001400d401000013
:020000040000fa
:04001800da01000009
:020000040000fa
:04001c00f8010000e7
:020000040000fa
:04002000f8010000e3
:020000040000fa
:04002400f8010000df
:020000040000fa
:04002800f8010000db
:020000040000fa
:04002c00f8010000d7
:020000040000fa
:04003000f8010000d3
:020000040000fa
:04003400f8010000cf
:020000040000fa
:04003800f8010000cb
:020000040000fa
:04003c00f8010000c7
:020000040000fa
:04004000f8010000c3
:020000040000fa
:04004400f8010000bf
:020000040000fa
:04004800f8010000bb
:020000040000fa
:04004c00f8010000b7
:020000040000fa
:04005000f8010000b3
:020000040000fa
:04005400f8010000af
:020000040000fa
:04005800f8010000ab
:020000040000fa
:04005c00f8010000a7
:020000040000fa
:04006000f8010000a3
:020000040000fa
:04006400f80100009f
:020000040000fa
:04006800f80100009b
:020000040000fa
:04006c00f801000097
:020000040000fa
:04007000f801000093
:020000040000fa
:04007400f80100008f
:020000040000fa
:04007800f80100008b
:020000040000fa
:04007c00f801000087
:020000040000fa
:04008000f801000083
:020000040000fa
:04008400f80100007f
:020000040000fa
:04008800f80100007b
:020000040000fa
:04008c00f801000077
:020000040000fa
:04009000f801000073
:020000040000fa
:04009400f80100006f
:020000040000fa
:04009800f80100006b
:020000040000fa
:04009c00f801000067
:020000040000fa
:0400a000f801000063
:020000040000fa
:0400a400f80100005f
:020000040000fa
:0400a800f80100005b
:020000040000fa
:0400ac00f801000057
:020000040000fa
:0400b000f801000053
:020000040000fa
:0400b400f80100004f
:020000040000fa
:0400b800f80100004b
:020000040000fa
:0400bc00f801000047
:020000040000fa
:0400c000f801000043
:020000040000fa
:0400c400f80100003f
:020000040000fa
:0400c800f80100003b
:020000040000fa
:0400cc00f801000037
:020000040000fa
:0400d000f801000033
:020000040000fa
:0400d400f80100002f
:020000040000fa
:0400d800f80100002b
:020000040000fa
:04010800f8010000fa
:020000040000fa
:04010c00e00100000e
:020000040000fa
:04011000e601000004
:020000040000fa
:04011400ec010000fa
:020000040000fa
:04011800f2010000f0
:020000040000fa
:04011c00f8010000e6
:020000040000fa
:04012000f8010000e2
:020000040000fa
:04012400f8010000de
:020000040000fa
:04012800f8010000da
:020000040000fa
:04012c00f8010000d6
:020000040000fa
:04013000f8010000d2
:020000040000fa
:04013400f8010000ce
:020000040000fa
:04013800f8010000ca
:020000040000fa
:04013c00f8010000c6
:020000040000fa
:04014000f8010000c2
:020000040000fa
:04014400f8010000be
:020000040000fa
:04014800f8010000ba
:020000040000fa
:04014c00f8010000b6
:020000040000fa
:04015000f8010000b2
:020000040000fa
:04015400f8010000ae
:020000040000fa
:04015800f8010000aa
:020000040000fa
:04015c00f8010000a6
:020000040000fa
:04016000f8010000a2
:020000040000fa
:04016400f80100009e
:020000040000fa
:04016800f80100009a
:020000040000fa
:04016c00f801000096
:020000040000fa
:04017000f801000092
:020000040000fa
:04017400f80100008e
:020000040000fa
:04017800f80100008a
:020000040000fa
:04017c00f801000086
:020000040000fa
:04018000f801000082
:020000040000fa
:04018400f80100007e
:020000040000fa
:04018800f80100007a
:020000040000fa
:04018c00f801000076
:020000040000fa
:04019000f801000072
:020000040000fa
:04019400f80100006e
:020000040000fa
:04019800f80100006a
:020000040000fa
:04019c00f801000066
:020000040000fa
:0401a000f801000062
:020000040000fa
:0401a400f80100005e
:020000040000fa
:0401a800f80100005a
:020000040000fa
:0401ac00f801000056
:020000040000fa
:0401b000f801000052
:020000040000fa
:0401b400f80100004e
:020000040000fa
:0401b800f80100004a
:020000040000fa
:0401bc00f801000046
:020000040000fa
:0401c000f801000042
:020000040000fa
:0401c400f80100003e
:020000040000fa
:0401c800f80100003a
:020000040000fa
:0401cc00f801000036
:020000040000fa
:0401d000f801000032
:020000040000fa
:0401d400f80100002e
:020000040000fa
:0401d800f80100002a
:020000040000fa
:100200004f8a20000eff20000e0188000000000031
:10021000000020000000e000020032000001200089
:100220002002880014000700730007000000e000af
:1002300003003a00a0cd200001002000020037009a
:100240000000200001002000810f7000010032003a
:1002500014000700000020000000e000020032004f
:1002600000000200000000008a08020000000000f8
:100270000040da000000fe004440a9000000200019
:100280000000e0000300320000002000a001880010
:100290004440a800000006008a1f78008b1f7800e9
:1002a0000000060091018800800478000000eb0047
:1002b0001a003700e284440032a0b4009905ba0065
:1002c000e284440032a0b4009906ba00e2844400fb
:1002d00032a0b4000006eb00476fde00fd07b2005d
:1002e000636ce10003003a00ebff07000000eb0045
:1002f0000a003700606ce10004003a00005deb008a
:100300008b05e900fdff3e00040037006168e10055
:10031000010032000086eb000b00070019c7ba008d
:100320001905ba000e04e00003003a000a00e000dc
:10033000e0ff3a0000000600fe07b2009e018800c0
:100340008a047800f5ff3700395dba008b05e900b3
:100350000c003200295dba008b05e900080032006c
:100360000c00e00003003a00e284440032a0b40034
:10037000f5ff370019ddba008b05e900faff3a00f6
:100380008904e800e184440032a0b40000000600c3
:100390000000fa008020a900ffff37000000fa00eb
:1003a0008060a900ffff37000000fa008040a9002c
:1003b000ffff37000000fa008080a900ffff370030
:1003c0000000fa008020a900ffff37000000fa00bb
:1003d0008060a900ffff37000000fa008040a900fc
:1003e000ffff37000000fa008080a900ffff370000
:1003f0000000fa00ffff37000000050003f0a20034
:10040000889fbe008a9fbe008c1f78001b010700da
:10041000220133006450e1004f0032006420e1000b
:100420005200320003826c0007003b000905d00037
:100430000306d000820f54000c065d000200390054
:100440000200320089017800030678008582550099
:1004500004003d000003fd008103fd008502ea0069
:100460008b854200840f720002003b006000100088
:10047000e08018006011b8000005eb007a28e10068
:100480000a00390006007800c75ddd00f707b200fa
:10049000878075002d003700828171000a01780085
:1004a000610560008180d1000080d3008502e900f1
:1004b000f9ff3b00060440008784480002003b002f
:1004c00060041400e0841c000988a30007003200c7
:1004d0008a81710082817100610164008904d10008
:1004e0000884d3008b05e800170037000978a300c3
:1004f00013003a000b00e000130034008b05e90004
:100500000804440089844c000a4474000978a3005c
:100510000d003a000b00e000070034008b05e900f5
:100520000804440089844c0001003a000b002000bc
:100530000978a300f7ff32000001eb00020037004a
:10054000828171000a017800910007000cf0a70079
:1005500001f0a000da0037006420e10002003a0058
:10056000838f6c00da0033000801be000200be0079
:10057000d3003700889fbe008a9fbe008c1f780082
:10058000be000700c500330003866c006450e10024
:100590002e0032006420e100330032006150e1009f
:1005a0002f0032006120e1003100320085855500c6
:1005b000eb07b00009002000080420000500370008
:1005c0000804440089844c000a00310006034300fb
:1005d00087834b000001530081815b00f8ff3300eb
:1005e0000203be000800a0000804440089844c00f7
:1005f000f6ff3900c639dd008301730001003200c7
:10060000130020008904d1000884d3000998a300b6
:10061000050032000800a7000300a0008904d100f3
:100620000884d3008b05e8008904d1000884d30036
:100630000001eb000281d2005500070001f0a1008b
:100640000cf0a70001f0a0009d0037006420e1003d
:100650009f0032000801be000200be00f7ff370015
:100660006120e1009a0032006000b800f3ff37001b
:100670000000200001f82700f0ff370014002000e0
:10068000ca003700f4ff2f00c80037000001be0089
:10069000650007000470a70003f0a1006509b10020
:1006a000160032000d0035006828e1000600350014
:1006b000f0ff2f00f1ff27000300e00013003b00d4
:1006c0000100280000000500000040008180480073
:1006d0008502e900fcff3a0008003700f88f42006d
:1006e00002003c008000eb00000005008100d1000a
:1006f0000080d3008502e800fcff3a000300e00020
:1007000002003b0060001000e080180000000600be
:100710000001be00440007000470a70003f0a10020
:1007200003f8a30013003a006509b100100032007d
:10073000090035006928e1000200350001002800a9
:100740000000050000004000818048008502e900ab
:10075000fcff3a0000000600f88f4200050035005b
:100760008100d1000080d3008502e800fcff3a0040
:10077000000006008000eb00000005004f89de004d
:1007800082017800a40037006011b800b200370081
:1007900081002000618055000b003d000b0020000f
:1007a00061fe2f000100e1001d0034008281710014
:1007b000610164008904d1000884d3000000e800ce
:1007c000faff3a007100200061006400030070002d
:1007d000020060000900320061044400e0844c0023
:1007e0000988a500050032008b05e8006808e100d3
:1007f00002003a008904d1000884d300f20f2000df
:100800000258e10005003d00c75ddd00f907b200b8
:100810008980750008007800000006000bf82700aa
:100820008b00780000000500c70ade00f107b20067
:10083000f50fb20008003200e1cf420002003200a2
:100840000170a00024000500810f7000010032003b
:100850000408050044000500810f700002003a0002
:10086000140005008502e9000000400081c0480036
:10087000fcff3b000170a000240005000004be0046
:10088000e9ff07000003be000405be000200be0031
:10089000e5ff0700844f7500000006000200be005f
:1008a0006450e100050036006420e10002003600db
:1008b0000968a30001003a000800be000160a00022
:1008c0004f0678004f05be004f04be000000060032
:1008d000f0ff2f00f1ff2700f9ff3700889fbe00cf
:1008e0008a9fbe008c1f7800e4ff0700ebff3300f7
:1008f00003866c006450e100240032006420e100b3
:10090000270032006150e100220032006120e10046
:10091000210032008b854200eb07b1000134b800a2
:10092000003ab8000804420089844a00013ab8003d
:100930000030b8008880400009014a0004003300fc
:100940000000400081804800020149008b05e90059
:10095000c909dd008301700001003200130020008e
:10096000c814de004814dd004709de001200b200a2
:10097000c808de000884700085ff070001f0a100b0
:100980000cf0a70001f0a000cdff37006120e100ce
:10099000cfff32000801be000200be00f7ff3700a3
:1009a0006150e100fcff3a00c9ff3700889fbe009c
:1009b0008a9fbe00841f7800b0ff07004f007800b8
:1009c00011003300f0ff2f00838f6c0006003b0006
:1009d000040565000a00a7000800370009f0a6001a
:1009e0001000200008003700820f5400838f5c0045
:1009f000030039001000200001003e00000020002c
:100a000009f0a7000000ea004f05be004f04be0039
:100a10000000e00000000600881f78000304780052
:100a20000300e00007003d0060001000e0801800b7
:100a300060011900e081190002003b0001f02d0067
:100a4000030037000400070008f0a70001f0a00031
:100a50004f04780000000600889fbe008a9fbe00f9
:100a600000827000040271000482710026003200ce
:100a70000004be000200be006011b8006b09200037
:100a8000950220000182cf000a0039000541b10023
:100a90000082cf00070039000541b1000982cf0074
:100aa000040039000541b1000882cf00010039007f
:100ab0000541b10005425200120032000a003b001d
:100ac00082817100610164008100d1000080d30047
:100ad0008984d3000884d3008b05e8000442e80031
:100ae000f7ff3a00070037000804440089844c00ef
:100af00000004800818048008b05e9000442e900bd
:100b0000f9ff3a0022ff07004f05be004f04be0068
:040b100000000600db
:020000040000fa
:100b14000400fa00008fbe0002002c006341240090
:100b24001e00be006cff0700f8fe070000007800fe
:100b3400b00e88001e01be000000200001f8230052
:100b44002dfe070002002c006341240062ff070011
:100b5400eefe070000007800c00e88000080fa0056
:100b6400000006000000fa00d622ef00e00f20008b
:100b740090168800f01f200030168800c702a900d4
:100b840000f02f0040158800a022ef00011580001e
:100b9400f0cf2f00008060000090a00000158800b6
:100ba400aa22ef00a222ef005000200020158800a6
:100bb400a622ef00a1e2a80030032000400e880026
:100bc400ca21ef00c021ef00010e800030ff2f008a
:100bd40000806000000e8800010e8000c0ff2f001e
:100be400008060000010a000000e8800c0122000e9
:100bf400200e8800c221ef00c1e1a80010062000e9
:100c0400f010880017e2a80019e2a8001942a80011
:100c14000080fa00000006000200fa00000f7800cd
:100c24001e00780030158800a022a80010002000c3
:100c34000100200092030700a022a9000000000088
:100c440000158000610060000000e000fcff32003d
:100c5400001480000080fa00000006000200fa0080
:100c6400000f78009e007800c1448800f0702200d4
:100c74009e007800808f500014003600c04480002d
:100c84000171220073000700c0448800c044800042
:100c9400813e20006f000700c0448800c0448000eb
:100ca400410620006b000700c0448800c044800057
:100cb400a100200067000700c0448800c0448000f1
:100cc4001100200063000700c0448800703e20002b
:100cd4009e007800808f500014003600f0702200cf
:100ce4009e007800808f500010003e00c0448000b9
:100cf400813e200057000700c0448800c0448000a3
:100d04004106200053000700c0448800c04480000e
:100d1400a10020004f000700c0448800c0448000a8
:100d2400110020004b000700c0448800300620005a
:100d34009e007800808f500010003600703e200026
:100d44009e007800808f50000c003e00c04480005c
:100d5400410620003f000700c0448800c0448000d2
:100d6400a10020003b000700c0448800c04480006c
:100d74001100200037000700c04488001e007800de
:100d8400e90f50000c003600300620009e00780069
:100d9400808f500008003e00c0448000a100200065
:100da4002c000700c0448800c044800011002000cb
:100db40028000700c04488001e007800e90f500096
:100dc40004003e00c0448000110020002100070000
:100dd400c04488000080fa00000006000400fa0005
:100de400008fbe001e00be0027fe07000000780032
:100df400d0448800d0448000cf80de005efe07002f
:100e04000001be001e00be007bfd0700f044880008
:100e140001458800f0448000014580000200200064
:100e2400a3472400acfe070017fe0700000078006b
:100e3400e0448800d044800088ff0700e0c2b3008b
:100e44001d000700e044800084ff07000080fa00d2
:100e5400000006000400fa00000f78001107980053
:100e640000000000c110800000202000008060000d
:100e74000000e000fbff3a009e0078001e00900096
:100e840000017800110009008280d8000003b0003e
:100e9400d01088009e0078001e00900000017800a9
:100ea400110009008280d8008000fd00000f780046
:100eb4000080fa00000006000200fa00004f7800eb
:100ec40000000000c11080000020200000806000ad
:100ed4000000e000fbff3a001e00fb00d010880079
:100ee4000080fa00000006000e00fa00008fbe0029
:100ef4002207980033079800440798005607980083
:100f040067079800810020007082200022000700fb
:100f14002e009000be009000b0ff070060c5b30033
:100f2400e5ff070081002000d08320001a0007009d
:100f34001e00be00a9ff070010c4b300deff0700b7
:100f44008100200050842000130007004e00900010
:100f54008000eb000bfe0700325c2f00030c240022
:100f640083fd07009dff070050c2b300d2ff0700b6
:100f740091002000d0842000070007005e0090004c
:100f8400ee00900095ff070060c5b300caff07009c
:100f94000080fa00000006000400fa00000f780048
:100fa40011079800a228ef000e003700000000008f
:100fb400c110800000202000008060000000e000dc
:100fc400fbff3a00104580001e00400010407800ee
:100fd4000000fb00d0108800104580000000e800ed
:100fe400104588001e0090008000e9001045800034
:100ff400808f5000edff3c000080fa0000000600e6
:101004000400fa00889fbe00000f780011079800c2
:101014001e007800cf80de00d7fd0700e2412700e4
:1010240073ed23002cfe07000004be001e00900098
:10103400800040006088200000804000100078009c
:10104400cf80de00ccfd0700e241270073ed2300d2
:1010540021fe07000001be000800be00e7fc0700f7
:101064000004be001e00900080004000c0882000e4
:101074000080400010007800cf80de00befd070035
:1010840082f8220023e2230013fe07000001be00c1
:101094000800be00d9fc07007bfd07008000780033
:1010a4001e00900000014000208920000000410043
:1010b400010878001e009000800040006088200035
:1010c400008040001e0878001e0090008000400050
:1010d4002089200000804000900078001e009000cd
:1010e40000014000c0882000000041000108780091
:1010f4001e009000800040002089200000804000f5
:10110400100078004f04be000080fa0000000600c2
:101114008800fa00881f780040062000600f9800bd
:101124006e0890008000e900710f98004200dd0015
:101134000000e8000000e8000000d100800040004a
:101144000f007800818747000000e8000000d1000c
:1011540000004000001798006e0890008000e9002d
:10116400111798004200dd000000e8000000e800cc
:101174000000d100800040000f0078008187470004
:101184000000e8000000d100000040002017980093
:101194006e0890008000e900311798004200dd00dd
:1011a4000000e8000000e8000000d10080004000da
:1011b4000f007800818747000000e8000000d1009c
:1011c40000004000401798000000eb006007980002
:1011d4000000eb00501798000000eb007007980027
:1011e4000000eb00601798000000200001f02300cd
:1011f400400f9800510f98006066260061f62300a6
:1012040070179800011f9800d0cc2c00c1ec23006b
:10121400101f9800211f9800f026210031b02300f0
:10122400301f9800411f9800a0702d0031c2230088
:10123400501f9800611f9800a0702d0031c2230038
:10124400701f980001279800a0702d0031c2230060
:101254001027980021279800f026210031a82300a8
:10126400302798004127980000382c00911c20005a
:1012740050279800612798003afe07006000b800e4
:1012840023fe0700030037000000000001003700c0
:10129400000000005e209000ee20900036fd070064
:1012a4003e219000ce2190008bfd070017fd070022
:1012b400f3010700501680004800de006140600022
:1012c40000c0ea00614060000080fb006100600033
:1012d4004800dd00511680000180a100010070006b
:1012e400501688000000eb004bfe07008000eb0066
:1012f40024fd070070279800012f980002002000a9
:10130400030a24007e2090008e28900072fd0700be
:1013140002f02f00f377240095fc0700102f9800ab
:10132400212f980002002000031724001e2890009b
:10133400ae28900068fd0700020020000308240086
:101344008bfc0700302f9800412f980010002000dc
:1013540031fe07008000eb000afd0700502f9800c3
:10136400612f980002002000030a24005e289000e8
:10137400ee28900058fd070002f02f00f3772400b8
:101384007bfc0700702f98000137980002002000b2
:10139400031424007e2890008e3090004efd070038
:1013a4001037980021379800200020001afe07000b
:1013b4008000eb00f3fc07003037980041379800b9
:1013c40002002000030a24003e309000ce3090003a
:1013d40041fd070002f02f00f377240064fc0700ae
:1013e400503798006137980002002000a32c240095
:1013f4005e309000ee30900037fd070070379800a3
:10140400013f98008e1090006e0090004200dd00b5
:10141400008040003e299000ce2990000288be0042
:10142400ae1090006e0090004200dd00008040008d
:101434001e319000ae3190000288be00ce109000a4
:101444006e0090004200dd00008040007e3190007c
:101454008e3990000288be006e0090000000e80003
:1014640060079800ee0090006e089000808f500096
:1014740085ff3a006000b800008fbe006000b8002d
:1014840020079800310798006000b80040079800d2
:10149400510798000000eb00600798002200370015
:1014a4008e1090006e0090004200dd00008040002d
:1014b4001000be000001be001e00be00cffb0700ee
:1014c400008fbe00ae1090006e0090004200dd0060
:1014d400008040001000be000001be002e009000fd
:1014e400be009000c5fb0700200798003107980054
:1014f400ce1090006e0090004200dd00008040009d
:101504001000be000001be004e009000de009000fe
:10151400bafb070040079800510798006e0090003e
:101524000000e80060079800ee0090006e0890004c
:10153400808f5000daff35006e089000cf80de0007
:101544008dfc07000001be001e00be0008fc070061
:10155400008fbe006e089000cf80de0086fc07007e
:101564000001be002e009000be00900000fc0700a9
:1015740020079800310798006e089000cf80de00a5
:101584007dfc07000001be004e009000de009000cc
:10159400f7fb070040079800510798000000eb0094
:1015a40060079800e0108000103f98009e3890007b
:1015b40010032000808f500013003a007e0090003a
:1015c4000000e00010003a001000200070079800ae
:1015d40041012000608520006ffe0700d642a8006c
:1015e400d602a8005e209000ee20900062fc070066
:1015f400d2cc2c00c3dc2300b7fc070043fc07005b
:101604001f010700d602a9009e38900000032000a5
:10161400808f500005003a000000eb00700798002e
:1016240051012000a08620005bfe07002007200057
:10163400103f98009e38900020072000808f5000b3
:10164400040032009e38900020052000808f500056
:1016540008003a00b00e80004e039000de039000b4
:10166400000278001e01be002e009000be00900013
:101674001dfe07007e0090000000e00003003a0019
:101684006000b80022fd0700d642a9007e00900049
:10169400e10f5000fefe3a000e0990009e099000f2
:1016a4001e00be0054fb0700203f9800313f980005
:1016b4002e099000be0990002e009000be009000fc
:1016c4004dfb0700403f9800513f980018c0b300fd
:1016d4005e199000ee1990004e389000de389000ac
:1016e400e5fb07000000e000010034000044eb00cb
:1016f4000804e000400032005e189000ee189000ec
:1017040001f0a20018c0b3004e399000de399000f9
:10171400d9fb07000000e000010034000044eb00a6
:101724000804e0003400320018c0b3007e199000b1
:101734008e2190002e389000be389000cefb07001a
:101744000000e000010034000044eb000804e00065
:101754000e0032007e1890008e20900001f0a2004e
:1017640018c0b3002e399000be399000c2fb0700a8
:101774000000e000010034000044eb000804e00035
:1017840002003200000000006000370018c0b300ff
:101794007e1990008e2190002e389000be38900063
:1017a400b7fb07000000e00001003c000044eb0030
:1017b4000804e000080032003e199000ce199000a1
:1017c4004e089000de0890000bfb0700400f9800c5
:1017d400510f98004d0037003e199000ce1990002b
:1017e4004e089000de08900004fb0700400f9800ac
:1017f400510f9800450037002e019000be01900063
:101804001e00be005afb0700603f9800713f98001d
:101814004e399000de3990002e389000be3890008a
:1018240053fb070000879800118798000e819000f1
:101834009e8190006e389000fe389000effa070009
:10184400208798003187980018c0b3001e219000ab
:10185400ae2190002e809000be80900086fb070091
:101864000000e000010034000044eb000804e00044
:101874000c0032001e209000ae20900001f0a20067
:1018840018c0b3002e819000be8190007afb07003f
:101894000000e000010034000044eb000804e00014
:1018a4001a003a0018c0b3001e219000ae21900027
:1018b4002e809000be80900071fb07000000e000c5
:1018c40001003c000044eb000804e0000800320082
:1018d4003e199000ce1990004e089000de0890004a
:1018e400c5fa0700400f9800510f98000700370011
:1018f4003e199000ce1990004e089000de0890002a
:10190400befa0700400f9800510f980018c0b300aa
:101914007e1190008e1990004e089000de08900011
:1019240057fb07000000e00001003d000044eb000d
:101934000804e000040032007e1190008e1990002b
:10194400420f9800530f980018c0b3001e1990005e
:10195400ae1990004e089000de08900046fb070088
:101964000000e000010034000044eb000804e00043
:10197400040032001e199000ae199000420f980026
:10198400530f98001e01be00020f9800130f980019
:101994002e019000be019000220f9800330f980092
:1019a4004e089000de08900059fc070039fe37000d
:020000040000fa
:1019b400860800001e00000000000000000800006f
:1019c40086000000020000000a2031002d5475003a
:1019d400726e20006f6e20005379730074656d0081
:1019e400000a2000302d540075726e00206f6600ce
:1019f4006620530079737400656d00000a20560058
:101a04005f5056003d000a0020522d0052656100cf
:101a14006420440061746100000a2000495f5000a2
:101a2400563d00000a204400757479003d000a0008
:101a340020565f006f7574003d000a00202a2a00ba
:101a44002a537900737465006d204f004e2a2a00d2
:101a54002a200a00000a20002a2a2a005379730047
:101a640074656d00204f4600462a2a002a200a0089
:101a7400000a440055545900000000000000000012
:020000040000fa
:101a8400f03fb1000180b10006003500ee0309000b
:101a940000000000403fb1000180b100fbff3d00a9
:101aa4001000b000203fb0000200350000800900a3
:081ab400000000000000060024
:020000040000fa
:101abc000000fa000080fa00000006000000fa00a6
:081acc000080fa000000060092
:020000040000fa
:0200000401f009
:04000000f3bf00004a
:020000040000fa
:0200000401f009
:04000400ff7f00007a
:020000040000fa
:0200000401f009
:04000800fc7f000079
:00000001FF
