:020000040000fa
:080000000001040000000000f3
:020000040000fa
:04000800f8010000fb
:020000040000fa
:04000c00c801000027
:020000040000fa
:04001000ce0100001d
:020000040000fa
:04001400d401000013
:020000040000fa
:04001800da01000009
:020000040000fa
:04001c00f8010000e7
:020000040000fa
:04002000f8010000e3
:020000040000fa
:04002400f8010000df
:020000040000fa
:04002800f8010000db
:020000040000fa
:04002c00f8010000d7
:020000040000fa
:04003000f8010000d3
:020000040000fa
:040034009610000022
:020000040000fa
:04003800f8010000cb
:020000040000fa
:04003c00f8010000c7
:020000040000fa
:04004000f8010000c3
:020000040000fa
:04004400f8010000bf
:020000040000fa
:04004800f8010000bb
:020000040000fa
:04004c00f8010000b7
:020000040000fa
:04005000f8010000b3
:020000040000fa
:04005400f8010000af
:020000040000fa
:04005800f8010000ab
:020000040000fa
:04005c00f8010000a7
:020000040000fa
:04006000f8010000a3
:020000040000fa
:04006400f80100009f
:020000040000fa
:04006800f80100009b
:020000040000fa
:04006c00f801000097
:020000040000fa
:04007000f801000093
:020000040000fa
:04007400f80100008f
:020000040000fa
:04007800f80100008b
:020000040000fa
:04007c00f801000087
:020000040000fa
:04008000f801000083
:020000040000fa
:04008400f80100007f
:020000040000fa
:04008800f80100007b
:020000040000fa
:04008c00f801000077
:020000040000fa
:04009000f801000073
:020000040000fa
:04009400f80100006f
:020000040000fa
:04009800f80100006b
:020000040000fa
:04009c00f801000067
:020000040000fa
:0400a000f801000063
:020000040000fa
:0400a400f80100005f
:020000040000fa
:0400a800f80100005b
:020000040000fa
:0400ac00f801000057
:020000040000fa
:0400b000f801000053
:020000040000fa
:0400b400f80100004f
:020000040000fa
:0400b800f80100004b
:020000040000fa
:0400bc00f801000047
:020000040000fa
:0400c000f801000043
:020000040000fa
:0400c400f80100003f
:020000040000fa
:0400c800f80100003b
:020000040000fa
:0400cc00f801000037
:020000040000fa
:0400d000f801000033
:020000040000fa
:0400d400f80100002f
:020000040000fa
:0400d800f80100002b
:020000040000fa
:04010800f8010000fa
:020000040000fa
:04010c00e00100000e
:020000040000fa
:04011000e601000004
:020000040000fa
:04011400ec010000fa
:020000040000fa
:04011800f2010000f0
:020000040000fa
:04011c00f8010000e6
:020000040000fa
:04012000f8010000e2
:020000040000fa
:04012400f8010000de
:020000040000fa
:04012800f8010000da
:020000040000fa
:04012c00f8010000d6
:020000040000fa
:04013000f8010000d2
:020000040000fa
:04013400f8010000ce
:020000040000fa
:04013800f8010000ca
:020000040000fa
:04013c00f8010000c6
:020000040000fa
:04014000f8010000c2
:020000040000fa
:04014400f8010000be
:020000040000fa
:04014800f8010000ba
:020000040000fa
:04014c00f8010000b6
:020000040000fa
:04015000f8010000b2
:020000040000fa
:04015400f8010000ae
:020000040000fa
:04015800f8010000aa
:020000040000fa
:04015c00f8010000a6
:020000040000fa
:04016000f8010000a2
:020000040000fa
:04016400f80100009e
:020000040000fa
:04016800f80100009a
:020000040000fa
:04016c00f801000096
:020000040000fa
:04017000f801000092
:020000040000fa
:04017400f80100008e
:020000040000fa
:04017800f80100008a
:020000040000fa
:04017c00f801000086
:020000040000fa
:04018000f801000082
:020000040000fa
:04018400f80100007e
:020000040000fa
:04018800f80100007a
:020000040000fa
:04018c00f801000076
:020000040000fa
:04019000f801000072
:020000040000fa
:04019400f80100006e
:020000040000fa
:04019800f80100006a
:020000040000fa
:04019c00f801000066
:020000040000fa
:0401a000f801000062
:020000040000fa
:0401a400f80100005e
:020000040000fa
:0401a800f80100005a
:020000040000fa
:0401ac00f801000056
:020000040000fa
:0401b000f801000052
:020000040000fa
:0401b400f80100004e
:020000040000fa
:0401b800f80100004a
:020000040000fa
:0401bc00f801000046
:020000040000fa
:0401c000f801000042
:020000040000fa
:0401c400f80100003e
:020000040000fa
:0401c800f80100003a
:020000040000fa
:0401cc00f801000036
:020000040000fa
:0401d000f801000032
:020000040000fa
:0401d400f80100002e
:020000040000fa
:0401d800f80100002a
:020000040000fa
:100200002f9f20000eff20000e018800000000003c
:10021000000020000000e000020032000001200089
:100220002002880014000700730007000000e000af
:1002300003003a000078210001002000020037008e
:100240000000200001002000810f7000010032003a
:1002500014000700000020000000e000020032004f
:1002600000000200000000006e100200000000000c
:100270000040da000000fe004440a9000006200013
:100280000000e0000300320000002000a001880010
:100290004440a800000006008a1f78008b1f7800e9
:1002a0000000060091018800800478000000eb0047
:1002b0001a003700e284440032a0b4009905ba0065
:1002c000e284440032a0b4009906ba00e2844400fb
:1002d00032a0b4000006eb00476fde00fd07b2005d
:1002e000636ce10003003a00ebff07000000eb0045
:1002f0000a003700606ce10004003a00005deb008a
:100300008b05e900fdff3e00040037006168e10055
:10031000010032000086eb000b00070019c7ba008d
:100320001905ba000e04e00003003a000a00e000dc
:10033000e0ff3a0000000600fe07b2009e018800c0
:100340008a047800f5ff3700395dba008b05e900b3
:100350000c003200295dba008b05e900080032006c
:100360000c00e00003003a00e284440032a0b40034
:10037000f5ff370019ddba008b05e900faff3a00f6
:100380008904e800e184440032a0b40000000600c3
:100390000000fa008020a900ffff37000000fa00eb
:1003a0008060a900ffff37000000fa008040a9002c
:1003b000ffff37000000fa008080a900ffff370030
:1003c0000000fa008020a900ffff37000000fa00bb
:1003d0008060a900ffff37000000fa008040a900fc
:1003e000ffff37000000fa008080a900ffff370000
:1003f0000000fa00ffff37000000050003f0a20034
:10040000889fbe008a9fbe008c1f78001b010700da
:10041000220133006450e1004f0032006420e1000b
:100420005200320003826c0007003b000905d00037
:100430000306d000820f54000c065d000200390054
:100440000200320089017800030678008582550099
:1004500004003d000003fd008103fd008502ea0069
:100460008b854200840f720002003b006000100088
:10047000e08018006011b8000005eb007a28e10068
:100480000a00390006007800c75ddd00f707b200fa
:10049000878075002d003700828171000a01780085
:1004a000610560008180d1000080d3008502e900f1
:1004b000f9ff3b00060440008784480002003b002f
:1004c00060041400e0841c000988a30007003200c7
:1004d0008a81710082817100610164008904d10008
:1004e0000884d3008b05e800170037000978a300c3
:1004f00013003a000b00e000130034008b05e90004
:100500000804440089844c000a4474000978a3005c
:100510000d003a000b00e000070034008b05e900f5
:100520000804440089844c0001003a000b002000bc
:100530000978a300f7ff32000001eb00020037004a
:10054000828171000a017800910007000cf0a70079
:1005500001f0a000da0037006420e10002003a0058
:10056000838f6c00da0033000801be000200be0079
:10057000d3003700889fbe008a9fbe008c1f780082
:10058000be000700c500330003866c006450e10024
:100590002e0032006420e100330032006150e1009f
:1005a0002f0032006120e1003100320085855500c6
:1005b000eb07b00009002000080420000500370008
:1005c0000804440089844c000a00310006034300fb
:1005d00087834b000001530081815b00f8ff3300eb
:1005e0000203be000800a0000804440089844c00f7
:1005f000f6ff3900c639dd008301730001003200c7
:10060000130020008904d1000884d3000998a300b6
:10061000050032000800a7000300a0008904d100f3
:100620000884d3008b05e8008904d1000884d30036
:100630000001eb000281d2005500070001f0a1008b
:100640000cf0a70001f0a0009d0037006420e1003d
:100650009f0032000801be000200be00f7ff370015
:100660006120e1009a0032006000b800f3ff37001b
:100670000000200001f82700f0ff370014002000e0
:10068000ca003700f4ff2f00c80037000001be0089
:10069000650007000470a70003f0a1006509b10020
:1006a000160032000d0035006828e1000600350014
:1006b000f0ff2f00f1ff27000300e00013003b00d4
:1006c0000100280000000500000040008180480073
:1006d0008502e900fcff3a0008003700f88f42006d
:1006e00002003c008000eb00000005008100d1000a
:1006f0000080d3008502e800fcff3a000300e00020
:1007000002003b0060001000e080180000000600be
:100710000001be00440007000470a70003f0a10020
:1007200003f8a30013003a006509b100100032007d
:10073000090035006928e1000200350001002800a9
:100740000000050000004000818048008502e900ab
:10075000fcff3a0000000600f88f4200050035005b
:100760008100d1000080d3008502e800fcff3a0040
:10077000000006008000eb00000005004f89de004d
:1007800082017800a40037006011b800b200370081
:1007900081002000618055000b003d000b0020000f
:1007a00061fe2f000100e1001d0034008281710014
:1007b000610164008904d1000884d3000000e800ce
:1007c000faff3a007100200061006400030070002d
:1007d000020060000900320061044400e0844c0023
:1007e0000988a500050032008b05e8006808e100d3
:1007f00002003a008904d1000884d300f20f2000df
:100800000258e10005003d00c75ddd00f907b200b8
:100810008980750008007800000006000bf82700aa
:100820008b00780000000500c70ade00f107b20067
:10083000f50fb20008003200e1cf420002003200a2
:100840000170a00024000500810f7000010032003b
:100850000408050044000500810f700002003a0002
:10086000140005008502e9000000400081c0480036
:10087000fcff3b000170a000240005000004be0046
:10088000e9ff07000003be000405be000200be0031
:10089000e5ff0700844f7500000006000200be005f
:1008a0006450e100050036006420e10002003600db
:1008b0000968a30001003a000800be000160a00022
:1008c0004f0678004f05be004f04be000000060032
:1008d000f0ff2f00f1ff2700f9ff3700889fbe00cf
:1008e0008a9fbe008c1f7800e4ff0700ebff3300f7
:1008f00003866c006450e100240032006420e100b3
:10090000270032006150e100220032006120e10046
:10091000210032008b854200eb07b1000134b800a2
:10092000003ab8000804420089844a00013ab8003d
:100930000030b8008880400009014a0004003300fc
:100940000000400081804800020149008b05e90059
:10095000c909dd008301700001003200130020008e
:10096000c814de004814dd004709de001200b200a2
:10097000c808de000884700085ff070001f0a100b0
:100980000cf0a70001f0a000cdff37006120e100ce
:10099000cfff32000801be000200be00f7ff3700a3
:1009a0006150e100fcff3a00c9ff3700889fbe009c
:1009b0008a9fbe00841f7800b0ff07004f007800b8
:1009c00011003300f0ff2f00838f6c0006003b0006
:1009d000040565000a00a7000800370009f0a6001a
:1009e0001000200008003700820f5400838f5c0045
:1009f000030039001000200001003e00000020002c
:100a000009f0a7000000ea004f05be004f04be0039
:100a10000000e00000000600881f78000304780052
:100a20000300e00007003d0060001000e0801800b7
:100a300060011900e081190002003b0001f02d0067
:100a4000030037000400070008f0a70001f0a00031
:100a50004f04780000000600889fbe008a9fbe00f9
:100a600000827000040271000482710026003200ce
:100a70000004be000200be006011b8006b09200037
:100a8000950220000182cf000a0039000541b10023
:100a90000082cf00070039000541b1000982cf0074
:100aa000040039000541b1000882cf00010039007f
:100ab0000541b10005425200120032000a003b001d
:100ac00082817100610164008100d1000080d30047
:100ad0008984d3000884d3008b05e8000442e80031
:100ae000f7ff3a00070037000804440089844c00ef
:100af00000004800818048008b05e9000442e900bd
:100b0000f9ff3a0022ff07004f05be004f04be0068
:100b1000000006008001780002003700b15978001b
:100b20000201e9000200e000fcff3a0000000600bc
:100b3000020037000204e0000b003200810178005f
:100b40000002780030417800b14f5100f9ff3200c7
:100b50001000200014427800934f5200030031002f
:100b60000080eb00000006000000eb000000060023
:020000040000fa
:100b7000535900004e43000000440000434200006f
:100b80005553000000560000505600000049000078
:100b9000505600000050000057520000005700005f
:100ba000484f00004953000000230000534f00004d
:100bb0004c41000052330000233000003623000077
:100bc0000a000000425200004f4100004443000070
:100bd000415300005400000023440000495300002a
:100be00023300000332300000a000000434f0000c0
:100bf0004d4d000045520000524f000052000000d1
:100c0000234500005252000023300000332300002f
:100c10000a000000230a000000000000434f00000b
:100c20004d4d000045520000524f000052000000a0
:020000040000fa
:100c30000400fa00004680001146800002002000f7
:100c40000312240025ff070090fe070080007800b3
:100c5000809e200001087800c0458000d1458000ba
:100c600002002000031224001cff070087fe07007b
:100c700080007800809e200011009800e0458000f0
:100c8000f1458000020020000312240013ff07003a
:100c90007efe070080007800809e200021009800e2
:100ca000c4458000d5458000e0458000f1458000c6
:100cb0000001be000400be0008ff0700008fbe0058
:100cc00002002000031224001e00be0003ff0700e4
:100cd0006efe070080007800809e200031009800a2
:100ce0000080fa00000006000000fa003140800099
:100cf000703e2000808f500006003400604080006d
:100d0000e10f500003003a002f0007000628ef0013
:100d10000d00370031408000703e2000808f500071
:100d20000600340070408000e10f500003003a00dc
:100d30003d0007000628ef00030037003040800028
:100d40000000e8003040880041408000703e2000f4
:100d5000808f5000030034000828ef00b4ff070024
:100d600003003700404080000000e8004040880059
:100d70000080fa00000006000000fa00a040800099
:100d80000000a20000f0a7000000ea000000ea0056
:100d90004f00de00a04088000080fa00000006003e
:100da0000000fa00b04080000000a20000f0a700a0
:100db0000000ea000000ea004f00de00b0408800ba
:100dc0000080fa00000006000000fa00889fbe00c4
:100dd000a0408000e10f500010003a00b60e8000e5
:100de000044680001546800022458000334580007f
:100df000e0458000f1458000c8458000d94580006d
:100e0000861f78000403be000202be000001be007f
:100e10000800be00140307008f87e9004f04be00de
:100e20000080fa00000006000000fa00889fbe0063
:100e3000b0408000e10f500010003a00b60e800074
:100e4000044680001546800022458000334580001e
:100e5000e0458000f1458000c8458000d94580000c
:100e6000861f78000403be000202be000001be001f
:100e70000800be00310307008f87e9004f04be0061
:100e80000080fa00000006000200fa000000eb00fb
:100e9000000f78000000eb00000f7800130037000f
:100ea0001e007800c200dd00408420000081400068
:100eb0006000b8000089be001e007800c200dd009e
:100ec00000862000008140006000b8000089be005c
:100ed0001e007800c200dd00c087200000814000b5
:100ee0006000b8000089be001e0fe8001e007800f8
:100ef000e60f5000eaff34000080fa000000060010
:100f00000600fa000000eb00000f78000040eb0044
:100f1000204798000000eb0020079800c0108000d8
:100f2000610060000000e000ba003200804f8000e5
:100f30000000e0004a003a00e0108000000f780056
:100f4000100320009e007800808f500009003a00b6
:100f5000304780000000e00006003a000e28ef0055
:100f60000c28ef00100020004047880020002000df
:100f700080408800100320009e007800808f500081
:100f800009003a0030478000e10f500006003a00a7
:100f90000e28ef000c28ef001000200040478800ca
:100fa0003000200080408800000320009e00780070
:100fb000808f500005003a000e28ef000c28ef004b
:100fc000e828ef0010002000804088002006200064
:100fd0009e007800808f5000040032002004200022
:100fe0009e007800808f500004003a00100020001e
:100ff000604088000e28ef005fff070050062000c9
:101000009e007800808f50000400320050042000c1
:101010009e007800808f500004003a0010002000ed
:10102000704088000c28ef005dff070000072000db
:101030009e007800808f50000400320000052000e0
:101040009e007800808f500062003a00100020005f
:10105000804f88000e28ef000c28ef005d0037005d
:10106000e010800020479800d0408000e10f500041
:1010700015003200e10f500003003900e20f50006c
:101080002800320053003700ae40900030c2b30059
:1010900080cf500005003a00cac2a80089070700a7
:1010a00010002000d04088004a003700e429ef00fb
:1010b000214f8000c0972000008040008040eb005e
:1010c0000148780043003700ae40900030c2b300c2
:1010d00080cf50000a003a00214f8000c0972000c6
:1010e000008040008040eb0001487800a000200014
:1010f000304f880020002000d040880035003700a5
:10110000214f8000c097200000804000ae4090003a
:1011100001487800204f80000000e800204f880040
:101120002c003700ae40900030c2b30080cf50009a
:1011300017003a00214f8000104f8000808f500030
:1011400009003a00214f8000c09720000080400035
:101150008040eb00014878001c050700cac2a900c6
:101160001a28ef0008003700a2002000e1602800e4
:10117000c097200067fe07008669ef00130507008f
:10118000cac2a9001a28ef001828ef001100370082
:101190002e4090000000fb0001fd2f0080804000e9
:1011a000304f80000088b90080007800104f800028
:1011b00000804000104f8800314f8000a0002000c8
:1011c00000017800110009008200d800304f88002b
:1011d00000000000c1408000c05d2000808f5000f2
:1011e0000c003400caa2a80002003700e010800002
:1011f00020479800c0108000610060000000e000ff
:10120000faff3a001828ef002e0707001a28ef000f
:10121000caa2a9000080fa00000006000000fa003f
:10122000d642a800d662a8005047800061478000df
:1012300052fd07000200200003f02300a7fd070075
:1012400033fd07006e070700d662a9000080fa0090
:10125000000006000000fa006000b800f900070076
:101260000080fa00000006000000fa00304780000d
:101270000000e00004003a00504080000000e80058
:1012800050408800010037000a28ef0051408000dc
:10129000301f2000808f500006003400404780003f
:1012a000e10f500003003a000a28ef002000200060
:1012b000804088000080fa00000006003c00fa0030
:1012c000881f78006017980071179800021f980017
:1012d000131f9800241f9800351f9800461f980080
:1012e000571f98006066260061f62300008fbe003d
:1012f0000000200001f0230020079800310798002b
:10130000f026210031b023004007980051079800d3
:10131000a0702d0031c2230060079800710798006b
:10132000a0702d0031c22300000f9800110f98000b
:10133000a0702d0031c22300200f9800310f9800bb
:101340004e199000de1990002e189000be189000e3
:101350002afc0700400f9800510f98000e199000ca
:101360009e1990006e109000fe10900023fc070064
:10137000600f9800710f980018c0b3006e019000c4
:10138000fe0190006e089000fe089000bbfc070074
:101390000000e000010034000044eb000804e0001d
:1013a000400032006e009000fe00900001f0a200ac
:1013b00018c0b3006e099000fe099000affc070052
:1013c0000000e000010034000044eb000804e000ed
:1013d0003400320018c0b3000e0990009e0990003e
:1013e0004e089000de089000a4fc07000000e0001a
:1013f000010034000044eb000804e0000e0032005d
:101400000e0890009e08900001f0a20018c0b300e2
:101410004e099000de09900098fc07000000e000f3
:10142000010034000044eb000804e0000200320038
:10143000000000006100370018c0b3000e099000e2
:101440009e0990004e089000de0890008dfc070079
:101450000000e00001003c000044eb000804e00054
:101460000800320000408000114080004e019000d2
:10147000de019000e1fb0700004088001140880079
:101480004e00370000408000114080004e01900067
:10149000de019000dafb0700004088001140880060
:1014a000460037006e119000fe1190002e1890003b
:1014b000be1890002ffc0700001798001117980025
:1014c0006e099000fe0990004e089000de08900022
:1014d00028fc070020179800311798002e11900063
:1014e000be1190000e1090009e109000c4fb0700eb
:1014f000401798005117980018c0b3002e099000ab
:10150000be0990004e109000de1090005bfc0700ba
:101510000000e000010034000044eb000804e0009b
:101520000c0032002e089000be08900001f0a200ce
:1015300018c0b3004e119000de1190004ffc070060
:101540000000e000010034000044eb000804e0006b
:101550001a003a0018c0b3002e099000be0990008e
:101560004e109000de10900046fc07000000e000e6
:1015700001003c000044eb000804e00008003200d9
:1015800000408000114080004e019000de0190007c
:101590009afb0700004088001140880007003700d0
:1015a00000408000114080004e019000de0190005c
:1015b00093fb070000408800114088000040800035
:1015c0001140800018c0b3001e01be002dfc0700b2
:1015d0000000e00001003d000044eb000804e000d2
:1015e000030032001e01be00024088001340880044
:1015f000004080001140800018c0b3002e01900010
:10160000be0190001dfc07000000e0000100340056
:101610000044eb000804e000040032002e019000ba
:10162000be01900002408800134088000040800006
:1016300011408000030007004f0478000080fa008a
:10164000000006000400fa00008fbe0002002c001b
:10165000634124001e00be00a0fc07002cfc070014
:1016600000007800b00e88001e01be0000002000bf
:1016700001f8230061fb070002002c0063412400f5
:1016800096fc070022fc070000007800c00e8800ce
:101690000080fa00000006000000fa00d622ef00e9
:1016a000000f200090168800f01f200030168800e0
:1016b0000421ef0021088000f0fc2f000080600072
:1016c0000040a0002008880050e620001008880094
:1016d000a1048000f0ff28000080600000c0a0008e
:1016e000a00488008460a9008c60a80005e1a8001f
:1016f00000f02f0040158800a022ef0001158000a7
:10170000f0cf2f00008060000090a000001588003e
:10171000aa22ef00a222ef0050002000201588002e
:10172000a622ef00a1e2a80030032000400e8800ae
:10173000ca21ef00c021ef00010e800030ff2f0012
:1017400000806000000e8800010e8000c0ff2f00a6
:10175000008060000010a000000e8800c012200071
:10176000200e8800c221ef00c1e1a8000002200085
:10177000f010880017e2a80019e2a8001942a8009a
:101780000080fa00000006000200fa00000f780056
:101790001e00780030158800a022a800100020004c
:1017a0000100200016060700a022a900000000008a
:1017b00000158000610060000000e000fcff3200c6
:1017c000001480000080fa00000006000400fa0007
:1017d000100798009e009000010f78009e00900076
:1017e000f0702200808f500014003600017122003a
:1017f0001e00780076000700000f7800813e200070
:101800001e00780072000700000f780041062000db
:101810001e0078006e000700000f7800a100200075
:101820001e0078006a000700000f780011002000f9
:101830001e00780066000700000f78009e009000f0
:10184000703e2000808f5000140036009e009000f3
:10185000f0702200808f500010003e00813e20007a
:101860001e0078005a000700000f78004106200093
:101870001e00780056000700000f7800a10020002d
:101880001e00780052000700000f780011002000b1
:101890001e0078004e000700000f78009e009000a8
:1018a00030062000808f5000100036009e0090000f
:1018b000703e2000808f50000c003e00410620004a
:1018c0001e00780042000700000f7800a1002000f1
:1018d0001e0078003e000700000f78001100200075
:1018e0001e0078003a000700000f78001e009000ec
:1018f000e90f50000c0036009e00900030062000da
:10190000808f500008003e00a10020001e007800db
:101910002f000700000f7800110020001e00780043
:101920002b000700000f78001e009000e90f500008
:1019300004003e00110020001e0078002400070073
:10194000000f78000080fa00000006000c00fa008a
:1019500040079800510798004e009000de0090006c
:101960004afb0700000f78001e007800cf80de00e1
:1019700082fb07000001be004e009000de009000d8
:101980009efa070010079800210798000200200027
:10199000a34724001e009000ae009000cffb07007c
:1019a0003afb0700300798001e00780087ff070009
:1019b000e0c2b300200007003e00900083ff070054
:1019c0003e00900081ff07000080fa000000060042
:1019d0000400fa00000f78001107980000000000d2
:1019e000c110800000202000008060000000e000a6
:1019f000fbff3a009e0078001e0090000001780076
:101a0000110009008280d8000003b000d0108800c7
:101a10009e0078001e00900000017800110009006f
:101a20008280d8008000fd00000f78001e00780042
:101a30000080fa00000006000200fa00004f780063
:101a400000000000c1108000002020000080600025
:101a50000000e000fbff3a001e00fb00d0108800f1
:101a60000080fa00000006001000fa00008fbe009f
:101a700022079800330798004407980055079800fc
:101a80006607980077079800810020005091200099
:101a9000500007001e00be00acff070060c5b30089
:101aa000e5ff070081002000b092200049000700f8
:101ab0002e009000be009000a4ff070010c4b300e9
:101ac000ddff070091002000409420004100070046
:101ad0004e009000de0090009cff070070c5b30030
:101ae000d5ff070091002000b093200039000700c7
:101af0006e009000fe00900094ff070060c5b300e8
:101b0000cdff070081002000309320003100070046
:101b10004eb897008000eb001bfb0700325c2f00e3
:101b2000030c240093fa070088ff070050c2b3009b
:101b3000c1ff07000080fa00000006001000fa0054
:101b4000008fbe00220798003307980044079800d2
:101b50005507980066079800770798001e00be009a
:101b60007aff0700b0c3b300b3ff07002e00900058
:101b7000be00900075ff0700b0c3b300aeff0700c2
:101b80004e009000de00900070ff0700b0c3b3006d
:101b9000a9ff07006e009000fe0090006bff070099
:101ba000b0c3b300a4ff07004eb897008000eb005d
:101bb000f5fa0700325c2f00030c24006dfa0700d1
:101bc00062ff0700a0c0b3009bff07000080fa007f
:101bd000000006000400fa00000f780011079800ca
:101be000e428ef000e00370000000000c110800064
:101bf00000202000008060000000e000fbff3a00b1
:101c0000204780001e004000104078000000fb00cc
:101c1000d0108800204780000000e800204788009e
:101c20001e0090008000e90020478000808f500057
:101c3000edff3c000080fa00000006000600fa00fc
:101c4000889fbe00008fbe0022079800020020007f
:101c500003f023001e00be0020fb07000004be00ae
:101c60002e009000c200dd00408420000080400073
:101c70001000be000200200003f0230017fb070045
:101c80000001be000800be00ddf907002e01900033
:101c9000c211dd00c2872000028141000089be0020
:101ca0002e009000c200dd00408420000080400033
:101cb0003e1878002e1078002e009000c200dd0043
:101cc000c0872000008040001000be002e01900060
:101cd000c211dd0002862000028141000089be00a1
:101ce0002e009000c200dd00c08720000080400070
:101cf0001000be004f04be000080fa000000060085
:101d00000600fa00889fbe00008fbe0022079800e0
:101d10008299290093cf23001e00be00effa07002e
:101d20000004be002e009000c200dd0040842000b0
:101d3000008040001000be008299290093cf23004c
:101d4000e6fa07000001be000800be00acf907007b
:101d50000004be002e009000c200dd0000862000be
:101d6000008040001000be006266260003f72300da
:101d7000dafa07000001be000800be00a0f9070063
:101d80002e019000c211dd00c287200002814100b7
:101d90000089be002e009000c200dd0040842000bb
:101da000008040003e1878002e1078002e00900031
:101db000c200dd00c0872000008040001000be008f
:101dc0002e019000c211dd00028620000281410038
:101dd0000089be002e009000c200dd00c0872000f8
:101de000008040001000be004f04be000080fa00da
:101df000000006000600fa00889fbe00008fbe00ab
:101e00002207980092e42300d3b423001e00be00f2
:101e1000b2fa07000004be002e009000c200dd00f0
:101e200040842000008040001000be0092e42300a7
:101e3000d3b42300a9fa07000001be000800be00c9
:101e40006ff907000004be002e009000c200dd0004
:101e500000862000008040001000be00325826009e
:101e6000e3f723009dfa07000001be000800be0052
:101e700063f907002e019000c211dd00c287200027
:101e8000028141000089be002e009000c200dd00ea
:101e900040842000008040003e1878002e1078001a
:101ea0002e009000c200dd00c087200000804000ae
:101eb0001000be002e019000c211dd00028620003d
:101ec000028141000089be002e009000c200dd00aa
:101ed000c0872000008040001000be004f04be00fc
:101ee0000080fa00000006000600fa00889fbe008d
:101ef000008fbe002207980002882a00439a230020
:101f00001e00be0075fa07000004be002e009000ff
:101f1000c200dd0040842000008040001000be00b0
:101f200002882a00439a23006cfa07000001be00d1
:101f30000800be0032f907000004be002e00900029
:101f4000c200dd0000862000008040001000be00be
:101f5000626d2d00f3f7230060fa07000001be0058
:101f60000800be0026f907002e019000c211dd0016
:101f7000c2872000028141000089be002e0090002f
:101f8000c200dd0040842000008040003e18780040
:101f90002e1078002e009000c200dd00c0872000c7
:101fa000008040001000be002e019000c211dd0034
:101fb00002862000028141000089be002e009000b0
:101fc000c200dd00c0872000008040001000be007d
:101fd0004f04be000080fa00000006000000fa0076
:101fe0006000b80097fd0700304780000000e00067
:101ff00004003a00504080000000e8005040880093
:10200000010037000a28ef0051408000301f2000f7
:10201000808f50000600340040478000e10f5000e0
:1020200003003a000a28ef002000200080408800ca
:102030000080fa00000006000000fa0080408000e6
:10204000e30f50001b003200e30f500005003e007c
:10205000e10f500013003200e10f50000d003e0070
:1020600007003700e50f500017003200e50f500061
:1020700017003900e60f500011003200150037003c
:10208000d6ff07000000200001f023006dfd0700cf
:102090001000370061fc07005000200080408800dd
:1020a0000c0037006bfc07004000200080408800d7
:1020b0000800370067fc07006000200080408800af
:1020c00069fc070003003700000000000100370032
:1020d000000000000080fa00000006000000fa0086
:1020e000c00f200090168800d622a8006000b8001b
:1020f00054fd070068fd0700c702a900c6e2a90059
:10210000c6c2a900c6a2a900c682a9005efb07003c
:1021100090408000e10f500002003a00c6ff070027
:102120001228ef0076fb0700f9ff37003600f800b1
:10213000809fbe00829fbe00849fbe00869fbe001f
:10214000889fbe003400f80000002000a001880035
:102150000000fa008460a900cb02a8000000eb0098
:1021600089fd07008000eb0087f9070060418800c7
:1021700071418800604180007141800002002000b0
:10218000030a2400d5f9070002f02f00f37724009a
:10219000f8f80700e0408800f1408800e040800047
:1021a000f14080000200200003172400cbf9070053
:1021b0000200200003082400eef80700c041880058
:1021c000d1418800c0418000d1418000a2992900fe
:1021d00013f82300c1f90700f2282c0053e723006d
:1021e00087f80700c0418800d14188001000200016
:1021f00065fd07008000eb0063f90700404188009f
:10220000514188004041800051418000020020007f
:10221000030a2400b1f9070002f02f00f37724002d
:10222000d4f8070000418800114188000041800077
:10223000114180000200200003142400a7f90700c8
:10224000a0418800b1418800a0418000b1418000d8
:10225000f25a220043f62300a0f90700e27a240094
:1022600013f2230066f80700a0418800b1418800fe
:102270002000200044fd07008000eb0042f9070029
:102280008041880091418800804180009141800018
:1022900002002000030a240090f9070002f02f003a
:1022a000f3772400b3f8070020418800314188000b
:1022b000204180003141800002002000a32c240036
:1022c00086f90700e0418800f1418800e041800084
:1022d000f1418000122d2200b3f723007ff907009f
:1022e00012ae2700c30b240045f80700e041880028
:1022f000f1418800c4418000d5418000a0418000a8
:10230000b14180000001be000400be0073f9070067
:102310000042880011428800a0418000b141800045
:102320000001eb0076fe0700c0458800d14588001b
:10233000c0418000d14180001200200070fe0700e3
:10234000e0458800f1458800e0418000f1418000cf
:10235000220020006afe070000468800114688001f
:10236000a0418000b14180003200200033fe070010
:102370004046880051468800c0418000d14180001d
:10238000420020002dfe070060468800714688004c
:10239000e0418000f14180005200200027fe07004c
:1023a00080468800914688000042800011428000eb
:1023b000620020008ffe070020458800314588001c
:1023c000804680009146800018c0b30002002000c3
:1023d000a33a2400abf807000000e00001003c0035
:1023e0000044eb000804e0000d003200804680004d
:1023f0009146800018c0b30002002000c33d2400b5
:102400009ef807000000e000010035000044eb00ea
:102410000804e00002003200e628ef000600370062
:10242000100020008040880030002000804088009c
:102430001000200030478800214080003006200036
:10244000808f50001a00340080408000e50f50005b
:1024500017003a00e4468000f5468000e24580001f
:10246000f3458000c0468000d1468000c84580000a
:10247000d94580000403be000202be000001be0078
:102480000800be008dfb07000428ef00c045800057
:10249000d1458000c0468800d1468800e0458000d4
:1024a000f1458000e0468800f146880003003700cf
:1024b000204080000000e800204088000afa070061
:1024c0001000200090408800c04080000000e8001c
:1024d000c0408800cb02a9000080fa003400f90057
:1024e0004f04be004f03be004f02be004f01be00ae
:1024f0004f00be003600f900004006000800fa0058
:1025000020079800310798000000eb00000f7800ca
:102510000000eb00100798000000eb00000f7800af
:102520001800370000000000c110800000202000cb
:10253000008060000000e000fbff3a000000eb00bc
:102540001007980004003700000000001e009000f3
:102550000000e800100798009e0090001003200083
:10256000808f5000f8ff34001e007800ae0090000d
:1025700000804000104078000000fb00d010880070
:102580001e0fe8003e0090000000e9009e0f500082
:10259000e4ff3c000080fa00000006000200fa00a0
:1025a000004f780000000000c110800000202000d3
:1025b000008060000000e000fbff3a001e00fb000e
:1025c000d01088000080fa00000006000c00fa001d
:1025d0000000eb00000f78000040eb00204798005f
:1025e000815b2800c097200051f907000000e0003f
:1025f00002003a00330207006c003700d15b28006c
:10260000c09720004af907000000e0000e003a00e1
:102610000000eb00000f780002003700000000000f
:102620001e0fe800301f20009e007800808f5000b1
:10263000faff3400809e200010007800930007000d
:102640002002070059003700315c2800c0972000a5
:1026500037f907000000e0000e003a000000eb0030
:10266000000f780002003700000000001e0fe80095
:10267000301f20009e007800808f5000faff340049
:10268000809e200010009000800007000d020700cf
:1026900046003700715c2800c097200024f907002d
:1026a0000000e0000e003a000000eb00000f780090
:1026b00002003700000000001e0fe800301f20005d
:1026c0009e007800808f5000faff3400809e20002a
:1026d000200090006d000700fa010700330037006a
:1026e000b15c2800c097200011f907000000e0004d
:1026f0000e003a000000eb00000f780002003700e7
:10270000000000001e0fe800301f20009e0078002f
:10271000808f5000faff3400809e2000300090002f
:102720005a000700e701070020003700f15c28008d
:10273000c0972000fef807000000e00005003a0006
:10274000d1002000505d28006cff0700dd0107006c
:1027500016003700215e2800c0972000f4f807001b
:102760000000e00006003a00a1002000c05e280042
:1027700062ff0700f029ef00d20107000b003700cd
:10278000615f2800c0972000e9f807000000e00022
:1027900005003a00a10020000060280057ff070054
:1027a000c801070001003700c60107000080fa00d9
:1027b000000006000600fa00200798000000eb0069
:1027c000000f7800803e2000100798002e00900037
:1027d000104078000000fb0001fd2f0080804000c9
:1027e0001e0090000088b90000007800000f7800fb
:1027f00040062000100798002e0090000000e8001e
:10280000104078000000fb0001fd2f008080400098
:102810001e0090000088b900000078001e0f4000e4
:10282000a0002000100798002e0090000080e80013
:10283000104078000000fb0001fd2f008080400068
:102840001e0090000088b900000078001e0f4000b4
:1028500010002000100798002e0090006300400038
:10286000104078000000fb0001fd2f008080400038
:102870001e0090000088b900000078001e0f400084
:102880001e0078000080fa00000006001400fa0024
:10289000100f98000000eb0020079800040037009c
:1028a000000000002e0090000000e80020079800c3
:1028b000ae009000301f2000808f5000f8ff3400e1
:1028c0001e0890000000e00003003d001e0890007c
:1028d0000000ea00100f98009e0890002107980061
:1028e00010002000000f78000a003700ae009000b2
:1028f000a000200000017800110009008200d8002b
:10290000200798001e0078006a00b90000007800d7
:10291000000f78002e009000e90f5000f3ff3c00fc
:102920000000eb00100798001c0037009e08900084
:102930001e00780000017800110009008200d80014
:10294000004078000043b0008040780066014700f6
:102950001e00900000004100014878009e08900091
:102960001e00780000017800110009008200d800e4
:102970008000fd00100f98009e007800a00020004d
:1029800000017800110009008200d800000f7800d3
:102990001e0090000000e800100798001e0078005c
:1029a0000000e000e1ff3c00e60047001e00900050
:1029b000008040008040eb000148780000c3b30075
:1029c000005798001e009000004078000043b000bf
:1029d0001057980030c2b300f0fe07001e009000b0
:1029e0008000e80066004700c4fe070030c2b30064
:1029f000eafe07007000470031002000bffe07001c
:102a000030c2b300e5fe07000080fa0000000600b7
:102a10001400fa00100f98000000eb002007980047
:102a200004003700000000002e0090000000e800c5
:102a300020079800ae009000301f2000808f5000cb
:102a4000f8ff34001e0890000000e00003003d0085
:102a50001e0890000000ea00100f98009e089000e9
:102a60002107980010002000000f78000a003700ae
:102a7000ae009000a00020000001780011000900c5
:102a80008200d800200798001e0078006a00b90074
:102a900000007800000f78002e009000e90f500031
:102aa000f3ff3c009e08900040062000808f5000fd
:102ab000430034000000eb00100798003c00370092
:102ac000400620009e007800808f50001c003a00d5
:102ad0009e0890001e007800000178001100090097
:102ae0008200d800004078000043b00080407800a9
:102af000660147001e009000000041000148780078
:102b00001e0090000000e80010079800e600470053
:102b10001e00900000804000e1c2b3000148780030
:102b20009e0890001e007800000178001100090046
:102b30008200d8008000fd00100f980013003700bd
:102b40009e0890001e007800000178001100090026
:102b50008200d800004078000043b0008040780038
:102b6000660147001e009000000041000148780007
:102b70009e0890001e0078000001780011000900f6
:102b80008200d8008000fd00100f98009e007800a1
:102b9000a000200000017800110009008200d80088
:102ba000000f78001e0090000000e8001007980059
:102bb0001e0078000000e000c1ff3c001700370055
:102bc00000c3b30060479800e0c2b30070479800ac
:102bd0009e089000a000200000017800110009006c
:102be0008200d800004078000043b000004f9800f9
:102bf0009e089000a000200000017800110009004c
:102c00008200d8008000fd00004078000043b00042
:102c1000104f98004000200010079800e600470081
:102c20001e009000008040008040eb0001487800ca
:102c300000c3b300005798001e00900000407800c9
:102c40000043b0001057980030c2b30053fe070095
:102c50001e0090008000e8006600470027fe070085
:102c600030c2b3004dfe0700700047003100200065
:102c700022fe070021002000a06028001ffe0700a0
:102c80000080fa00000006001400fa00100f9800ff
:102c90000000eb002007980004003700000000004f
:102ca0002e0090000000e80020079800ae00900081
:102cb000301f2000808f5000f8ff34001e08900065
:102cc0000000e00003003d001e0890000000ea0044
:102cd000100f98009e089000210798001000200017
:102ce000000f78000a003700ae009000a00020001e
:102cf00000017800110009008200d8002007980028
:102d00001e0078006a00b90000007800000f78000b
:102d10002e009000e90f5000f3ff3c001e089000c9
:102d2000ea0f5000420034000000eb00100798004a
:102d30003b0037001e007800ea0f50001c003a00ec
:102d40009e0890001e007800000178001100090024
:102d50008200d800004078000043b0008040780036
:102d6000660147001e009000000041000148780005
:102d70001e0090000000e80010079800e6004700e1
:102d80001e00900000804000e1c2b30001487800be
:102d90009e0890001e0078000001780011000900d4
:102da0008200d8008000fd00100f9800130037004b
:102db0009e0890001e0078000001780011000900b4
:102dc0008200d800004078000043b00080407800c6
:102dd000660147001e009000000041000148780095
:102de0009e0890001e007800000178001100090084
:102df0008200d8008000fd00100f98009e0078002f
:102e0000a000200000017800110009008200d80015
:102e1000000f78001e0090000000e80010079800e6
:102e20001e0078000000e000c2ff3c000a003700ee
:102e300000c3b30060479800e0c2b3007047980039
:102e40001e089000004078000043b000004f98003a
:102e50003000200010079800e60047001e00900098
:102e6000008040008040eb000148780000c3b300c0
:102e7000005798001e009000004078000043b0000a
:102e80001057980030c2b300c4fd07001e00900028
:102e90008000e8006600470098fd070030c2b300dc
:102ea000befd0700700047003100200093fd0700c1
:102eb00021002000a060280090fd07000080fa009b
:102ec000000006000000fa00e229ef00e429ef000c
:102ed0007c69ef000080fa00000006000000fa00a4
:102ee0000080fa00000006000000fa000080fa00ee
:102ef000000006000000fa000080fa000000060052
:020000040000fa
:102f000000080000e600000000000000e6080000e5
:102f10009600000002000000010001000080c300d4
:102f2000c9010a0020312d00547572006e206f0017
:102f30006e20530079737400656d00000a20300024
:102f40002d547500726e20006f6666002053790064
:102f5000737465006d000a0020565f0050563d00f6
:102f6000000a2000522d5200656164002044610077
:102f7000746100000a2049005f5056003d000a00bd
:102f80002044750074793d00000a2000565f6f00f0
:102f900075743d00000a2000506f770065723d0097
:102fa000000a20002a2a2a005379730074656d00f4
:102fb000204f4e002a2a2a00200a00000a202a0058
:102fc0002a2a530079737400656d20004f4646002d
:102fd0002a2a2a00200a00000a44550054590000f9
:102fe0007c0900007400000000000000f0090000ef
:102ff00002000000020000000100000000000000cc
:020000040000fa
:10300000f03fb1000180b10006003500ee03090079
:1030100000000000403fb1000180b100fbff3d0017
:103020001000b000203fb000020035000080090011
:08303000000000000000060092
:020000040000fa
:103038000000fa000080fa00000006000000fa0014
:083048000080fa000000060000
:020000040000fa
:0200000401f009
:04000000f3bf00004a
:020000040000fa
:0200000401f009
:04000400ff7f00007a
:020000040000fa
:0200000401f009
:04000800ecff000009
:00000001FF
