:020000040000fa
:080000000001040000000000f3
:020000040000fa
:04000800f8010000fb
:020000040000fa
:04000c00c801000027
:020000040000fa
:04001000ce0100001d
:020000040000fa
:04001400d401000013
:020000040000fa
:04001800da01000009
:020000040000fa
:04001c00f8010000e7
:020000040000fa
:04002000f8010000e3
:020000040000fa
:04002400f8010000df
:020000040000fa
:04002800f8010000db
:020000040000fa
:04002c00f8010000d7
:020000040000fa
:04003000f8010000d3
:020000040000fa
:040034009e0b00001f
:020000040000fa
:04003800f8010000cb
:020000040000fa
:04003c00f8010000c7
:020000040000fa
:04004000f8010000c3
:020000040000fa
:04004400f8010000bf
:020000040000fa
:04004800f8010000bb
:020000040000fa
:04004c00f8010000b7
:020000040000fa
:04005000f8010000b3
:020000040000fa
:04005400f8010000af
:020000040000fa
:04005800f8010000ab
:020000040000fa
:04005c00f8010000a7
:020000040000fa
:04006000f8010000a3
:020000040000fa
:04006400f80100009f
:020000040000fa
:04006800f80100009b
:020000040000fa
:04006c00f801000097
:020000040000fa
:04007000f801000093
:020000040000fa
:04007400f80100008f
:020000040000fa
:04007800f80100008b
:020000040000fa
:04007c00f801000087
:020000040000fa
:04008000f801000083
:020000040000fa
:04008400f80100007f
:020000040000fa
:04008800f80100007b
:020000040000fa
:04008c00f801000077
:020000040000fa
:04009000f801000073
:020000040000fa
:04009400f80100006f
:020000040000fa
:04009800f80100006b
:020000040000fa
:04009c00f801000067
:020000040000fa
:0400a000f801000063
:020000040000fa
:0400a400f80100005f
:020000040000fa
:0400a800f80100005b
:020000040000fa
:0400ac00f801000057
:020000040000fa
:0400b000f801000053
:020000040000fa
:0400b400f80100004f
:020000040000fa
:0400b800f80100004b
:020000040000fa
:0400bc00f801000047
:020000040000fa
:0400c000f801000043
:020000040000fa
:0400c400f80100003f
:020000040000fa
:0400c800f80100003b
:020000040000fa
:0400cc00f801000037
:020000040000fa
:0400d000f801000033
:020000040000fa
:0400d400f80100002f
:020000040000fa
:0400d800f80100002b
:020000040000fa
:04010800f8010000fa
:020000040000fa
:04010c00e00100000e
:020000040000fa
:04011000e601000004
:020000040000fa
:04011400ec010000fa
:020000040000fa
:04011800f2010000f0
:020000040000fa
:04011c00f8010000e6
:020000040000fa
:04012000f8010000e2
:020000040000fa
:04012400f8010000de
:020000040000fa
:04012800f8010000da
:020000040000fa
:04012c00f8010000d6
:020000040000fa
:04013000f8010000d2
:020000040000fa
:04013400f8010000ce
:020000040000fa
:04013800f8010000ca
:020000040000fa
:04013c00f8010000c6
:020000040000fa
:04014000f8010000c2
:020000040000fa
:04014400f8010000be
:020000040000fa
:04014800f8010000ba
:020000040000fa
:04014c00f8010000b6
:020000040000fa
:04015000f8010000b2
:020000040000fa
:04015400f8010000ae
:020000040000fa
:04015800f8010000aa
:020000040000fa
:04015c00f8010000a6
:020000040000fa
:04016000f8010000a2
:020000040000fa
:04016400f80100009e
:020000040000fa
:04016800f80100009a
:020000040000fa
:04016c00f801000096
:020000040000fa
:04017000f801000092
:020000040000fa
:04017400f80100008e
:020000040000fa
:04017800f80100008a
:020000040000fa
:04017c00f801000086
:020000040000fa
:04018000f801000082
:020000040000fa
:04018400f80100007e
:020000040000fa
:04018800f80100007a
:020000040000fa
:04018c00f801000076
:020000040000fa
:04019000f801000072
:020000040000fa
:04019400f80100006e
:020000040000fa
:04019800f80100006a
:020000040000fa
:04019c00f801000066
:020000040000fa
:0401a000f801000062
:020000040000fa
:0401a400f80100005e
:020000040000fa
:0401a800f80100005a
:020000040000fa
:0401ac00f801000056
:020000040000fa
:0401b000f801000052
:020000040000fa
:0401b400f80100004e
:020000040000fa
:0401b800f80100004a
:020000040000fa
:0401bc00f801000046
:020000040000fa
:0401c000f801000042
:020000040000fa
:0401c400f80100003e
:020000040000fa
:0401c800f80100003a
:020000040000fa
:0401cc00f801000036
:020000040000fa
:0401d000f801000032
:020000040000fa
:0401d400f80100002e
:020000040000fa
:0401d800f80100002a
:020000040000fa
:100200002f9020000eff20000e018800000000004b
:10021000000020000000e000020032000001200089
:100220002002880014000700730007000000e000af
:1002300003003a0020cf2000010020000200370018
:100240000000200001002000810f7000010032003a
:1002500014000700000020000000e000020032004f
:100260000000020000000000c80a020000000000b8
:100270000040da000000fe004440a9000000200019
:100280000000e0000300320000002000a001880010
:100290004440a800000006008a1f78008b1f7800e9
:1002a0000000060091018800800478000000eb0047
:1002b0001a003700e284440032a0b4009905ba0065
:1002c000e284440032a0b4009906ba00e2844400fb
:1002d00032a0b4000006eb00476fde00fd07b2005d
:1002e000636ce10003003a00ebff07000000eb0045
:1002f0000a003700606ce10004003a00005deb008a
:100300008b05e900fdff3e00040037006168e10055
:10031000010032000086eb000b00070019c7ba008d
:100320001905ba000e04e00003003a000a00e000dc
:10033000e0ff3a0000000600fe07b2009e018800c0
:100340008a047800f5ff3700395dba008b05e900b3
:100350000c003200295dba008b05e900080032006c
:100360000c00e00003003a00e284440032a0b40034
:10037000f5ff370019ddba008b05e900faff3a00f6
:100380008904e800e184440032a0b40000000600c3
:100390000000fa008020a900ffff37000000fa00eb
:1003a0008060a900ffff37000000fa008040a9002c
:1003b000ffff37000000fa008080a900ffff370030
:1003c0000000fa008020a900ffff37000000fa00bb
:1003d0008060a900ffff37000000fa008040a900fc
:1003e000ffff37000000fa008080a900ffff370000
:1003f0000000fa00ffff37000000050003f0a20034
:10040000889fbe008a9fbe008c1f78001b010700da
:10041000220133006450e1004f0032006420e1000b
:100420005200320003826c0007003b000905d00037
:100430000306d000820f54000c065d000200390054
:100440000200320089017800030678008582550099
:1004500004003d000003fd008103fd008502ea0069
:100460008b854200840f720002003b006000100088
:10047000e08018006011b8000005eb007a28e10068
:100480000a00390006007800c75ddd00f707b200fa
:10049000878075002d003700828171000a01780085
:1004a000610560008180d1000080d3008502e900f1
:1004b000f9ff3b00060440008784480002003b002f
:1004c00060041400e0841c000988a30007003200c7
:1004d0008a81710082817100610164008904d10008
:1004e0000884d3008b05e800170037000978a300c3
:1004f00013003a000b00e000130034008b05e90004
:100500000804440089844c000a4474000978a3005c
:100510000d003a000b00e000070034008b05e900f5
:100520000804440089844c0001003a000b002000bc
:100530000978a300f7ff32000001eb00020037004a
:10054000828171000a017800910007000cf0a70079
:1005500001f0a000da0037006420e10002003a0058
:10056000838f6c00da0033000801be000200be0079
:10057000d3003700889fbe008a9fbe008c1f780082
:10058000be000700c500330003866c006450e10024
:100590002e0032006420e100330032006150e1009f
:1005a0002f0032006120e1003100320085855500c6
:1005b000eb07b00009002000080420000500370008
:1005c0000804440089844c000a00310006034300fb
:1005d00087834b000001530081815b00f8ff3300eb
:1005e0000203be000800a0000804440089844c00f7
:1005f000f6ff3900c639dd008301730001003200c7
:10060000130020008904d1000884d3000998a300b6
:10061000050032000800a7000300a0008904d100f3
:100620000884d3008b05e8008904d1000884d30036
:100630000001eb000281d2005500070001f0a1008b
:100640000cf0a70001f0a0009d0037006420e1003d
:100650009f0032000801be000200be00f7ff370015
:100660006120e1009a0032006000b800f3ff37001b
:100670000000200001f82700f0ff370014002000e0
:10068000ca003700f4ff2f00c80037000001be0089
:10069000650007000470a70003f0a1006509b10020
:1006a000160032000d0035006828e1000600350014
:1006b000f0ff2f00f1ff27000300e00013003b00d4
:1006c0000100280000000500000040008180480073
:1006d0008502e900fcff3a0008003700f88f42006d
:1006e00002003c008000eb00000005008100d1000a
:1006f0000080d3008502e800fcff3a000300e00020
:1007000002003b0060001000e080180000000600be
:100710000001be00440007000470a70003f0a10020
:1007200003f8a30013003a006509b100100032007d
:10073000090035006928e1000200350001002800a9
:100740000000050000004000818048008502e900ab
:10075000fcff3a0000000600f88f4200050035005b
:100760008100d1000080d3008502e800fcff3a0040
:10077000000006008000eb00000005004f89de004d
:1007800082017800a40037006011b800b200370081
:1007900081002000618055000b003d000b0020000f
:1007a00061fe2f000100e1001d0034008281710014
:1007b000610164008904d1000884d3000000e800ce
:1007c000faff3a007100200061006400030070002d
:1007d000020060000900320061044400e0844c0023
:1007e0000988a500050032008b05e8006808e100d3
:1007f00002003a008904d1000884d300f20f2000df
:100800000258e10005003d00c75ddd00f907b200b8
:100810008980750008007800000006000bf82700aa
:100820008b00780000000500c70ade00f107b20067
:10083000f50fb20008003200e1cf420002003200a2
:100840000170a00024000500810f7000010032003b
:100850000408050044000500810f700002003a0002
:10086000140005008502e9000000400081c0480036
:10087000fcff3b000170a000240005000004be0046
:10088000e9ff07000003be000405be000200be0031
:10089000e5ff0700844f7500000006000200be005f
:1008a0006450e100050036006420e10002003600db
:1008b0000968a30001003a000800be000160a00022
:1008c0004f0678004f05be004f04be000000060032
:1008d000f0ff2f00f1ff2700f9ff3700889fbe00cf
:1008e0008a9fbe008c1f7800e4ff0700ebff3300f7
:1008f00003866c006450e100240032006420e100b3
:10090000270032006150e100220032006120e10046
:10091000210032008b854200eb07b1000134b800a2
:10092000003ab8000804420089844a00013ab8003d
:100930000030b8008880400009014a0004003300fc
:100940000000400081804800020149008b05e90059
:10095000c909dd008301700001003200130020008e
:10096000c814de004814dd004709de001200b200a2
:10097000c808de000884700085ff070001f0a100b0
:100980000cf0a70001f0a000cdff37006120e100ce
:10099000cfff32000801be000200be00f7ff3700a3
:1009a0006150e100fcff3a00c9ff3700889fbe009c
:1009b0008a9fbe00841f7800b0ff07004f007800b8
:1009c00011003300f0ff2f00838f6c0006003b0006
:1009d000040565000a00a7000800370009f0a6001a
:1009e0001000200008003700820f5400838f5c0045
:1009f000030039001000200001003e00000020002c
:100a000009f0a7000000ea004f05be004f04be0039
:100a10000000e00000000600881f78000304780052
:100a20000300e00007003d0060001000e0801800b7
:100a300060011900e081190002003b0001f02d0067
:100a4000030037000400070008f0a70001f0a00031
:100a50004f04780000000600889fbe008a9fbe00f9
:100a600000827000040271000482710026003200ce
:100a70000004be000200be006011b8006b09200037
:100a8000950220000182cf000a0039000541b10023
:100a90000082cf00070039000541b1000982cf0074
:100aa000040039000541b1000882cf00010039007f
:100ab0000541b10005425200120032000a003b001d
:100ac00082817100610164008100d1000080d30047
:100ad0008984d3000884d3008b05e8000442e80031
:100ae000f7ff3a00070037000804440089844c00ef
:100af00000004800818048008b05e9000442e900bd
:100b0000f9ff3a0022ff07004f05be004f04be0068
:040b100000000600db
:020000040000fa
:100b14003c00fa00881f780060179800711798004d
:100b2400021f9800131f9800241f9800351f980077
:100b3400461f9800571f980030448000e10f500072
:100b4400d5003a006066260061f62300008fbe00df
:100b5400d0cc2c00c1ec230020079800310798006a
:100b6400f026210031b02300400798005107980077
:100b7400a0702d0031c2230060079800710798000f
:100b8400a0702d0031c22300000f9800110f9800af
:100b9400a0702d0031c22300200f9800310f98005f
:100ba4004e199000de1990002e189000be18900087
:100bb40011fe0700400f9800510f98000e19900085
:100bc4009e1990006e109000fe1090000afe07001f
:100bd400600f9800710f980018c0b3006e01900068
:100be400fe0190006e089000fe089000a2fe07002f
:100bf4000000e000010034000044eb000804e000c1
:100c0400400032006e009000fe00900001f0a2004f
:100c140018c0b3006e099000fe09900096fe07000c
:100c24000000e000010034000044eb000804e00090
:100c34003400320018c0b3000e0990009e099000e1
:100c44004e089000de0890008bfe07000000e000d4
:100c5400010034000044eb000804e0000e00320000
:100c64000e0890009e08900001f0a20018c0b30086
:100c74004e099000de0990007ffe07000000e000ae
:100c8400010034000044eb000804e00002003200dc
:100c9400000000006100370018c0b3000e09900086
:100ca4009e0990004e089000de08900074fe070034
:100cb4000000e00001003c000044eb000804e000f8
:100cc4000800320090448000a14480004e0190004e
:100cd400de019000c8fd070090448800a14488000c
:100ce4004e00370090448000a14480004e019000e3
:100cf400de019000c1fd070090448800a1448800f3
:100d0400460037006e119000fe1190002e189000de
:100d1400be18900016fe07000017980011179800df
:100d24006e099000fe0990004e089000de089000c5
:100d34000ffe070020179800311798002e1190001d
:100d4400be1190000e1090009e109000abfd0700a5
:100d5400401798005117980018c0b3002e0990004e
:100d6400be0990004e109000de10900042fe070075
:100d74000000e000010034000044eb000804e0003f
:100d84000c0032002e089000be08900001f0a20072
:100d940018c0b3004e119000de11900036fe07001b
:100da4000000e000010034000044eb000804e0000f
:100db4001a003a0018c0b3002e099000be09900032
:100dc4004e109000de1090002dfe07000000e000a1
:100dd40001003c000044eb000804e000080032007d
:100de40090448000a14480004e019000de019000f8
:100df40081fd070090448800a14488000700370063
:100e040090448000a14480004e019000de019000d7
:100e14007afd070090448800a14488009044800033
:100e2400a144800018c0b3001e01be0014fe0700d8
:100e34000000e00001003d000044eb000804e00075
:100e4400030032001e01be0092448800a3448800bf
:100e540090448000a144800018c0b3002e0190008b
:100e6400be01900004fe07000000e0000100340011
:100e74000044eb000804e000040032002e0190005e
:100e8400be01900092448800a344880090448000ee
:100e9400a1448000030007004f0478000080fa009a
:100ea400000006000400fa00008fbe0002002c00bf
:100eb400634124001e00be0087fe070013fe0700e6
:100ec40000007800b00e88001e01be000000200063
:100ed40001f8230048fd070002002c0063412400b0
:100ee4007dfe070009fe070000007800c00e8800a0
:100ef4000080fa00000006000000fa00d622ef008d
:100f0400c00f200090168800f01f200030168800c3
:100f14000421ef0021088000f0fc2f000080600015
:100f24000040a0002008880050e620001008880037
:100f3400a1048000f0ff28000080600000c0a00031
:100f4400a00488008460a9008c60a80005e1a800c2
:100f540000f02f0040158800a022ef00011580004a
:100f6400f0cf2f00008060000090a00000158800e2
:100f7400aa22ef00a222ef005000200020158800d2
:100f8400a622ef00a1e2a80030032000400e880052
:100f9400ca21ef00c021ef00010e800030ff2f00b6
:100fa40000806000000e8800010e8000c0ff2f004a
:100fb400008060000010a000000e8800c012200015
:100fc400200e8800c221ef00c1e1a8001006200015
:100fd400f010880017e2a80019e2a8001942a8003e
:100fe4000080fa00000006000200fa00000f7800fa
:100ff4001e00780030158800a022a80010002000f0
:1010040001002000aa020700a022a900000000009d
:1010140000158000610060000000e000fcff320069
:10102400001480000080fa00000006000200fa00ac
:10103400000f78009e00780061448800f070220060
:101044009e007800808f50001400360060448000b9
:10105400017122007300070060448800604480002e
:10106400813e20006f0007006044880060448000d7
:10107400410620006b000700604488006044800043
:10108400a1002000670007006044880060448000dd
:10109400110020006300070060448800703e2000b7
:1010a4009e007800808f500014003600f0702200fb
:1010b4009e007800808f500010003e006044800045
:1010c400813e20005700070060448800604480008f
:1010d40041062000530007006044880060448000fb
:1010e400a10020004f000700604488006044800095
:1010f400110020004b0007006044880030062000e7
:101104009e007800808f500010003600703e200052
:101114009e007800808f50000c003e0060448000e8
:10112400410620003f0007006044880060448000be
:10113400a10020003b000700604488006044800058
:101144001100200037000700604488001e0078006a
:10115400e90f50000c003600300620009e00780095
:10116400808f500008003e0060448000a1002000f1
:101174002c000700604488006044800011002000b7
:1011840028000700604488001e007800e90f500022
:1011940004003e006044800011002000210007008c
:1011a400604488000080fa00000006000400fa0091
:1011b400008fbe001e00be0033fd07000000780053
:1011c4007044880070448000cf80de006afd070010
:1011d4000001be001e00be0087fc070040448800da
:1011e40051448800404480005144800002002000a3
:1011f400a3472400b8fd070023fd07000000780082
:10120400804488007044800088ff0700e0c2b30077
:101214001e0007008044800084ff07000080fa005d
:10122400000006000400fa00000f7800110798007f
:1012340000000000c1108000002020000080600039
:101244000000e000fbff3a009e0078001e009000c2
:1012540000017800110009008280d8000003b0006a
:10126400d01088009e0078001e00900000017800d5
:10127400110009008280d8008000fd00000f780072
:101284000000eb000080fa00000006000200fa00f3
:10129400004f780000000000c110800000202000f2
:1012a400008060000000e000fbff3a001e00fb002d
:1012b400d01088000080fa00000006000e00fa003a
:1012c400008fbe0022079800330798004407980057
:1012d400560798006707980081002000708220005c
:1012e400220007001e00be00b0ff070060c5b30067
:1012f400e6ff070081002000d08320001b000700c8
:101304002e009000be009000a8ff070010c4b30098
:10131400deff070081002000508420001300070036
:101324004e0090008000eb0016fd0700325c2f0099
:10133400030c24008efc07009cff070050c2b3007e
:10134400d2ff070091002000d0842000070007008e
:101354005e009000ee00900094ff070060c5b300ab
:10136400caff07000080fa00000006000400fa002b
:10137400000f7800110798000029ef000e003700d5
:1013840000000000c11080000020200000806000e8
:101394000000e000fbff3a00004880001e0040000f
:1013a400104078000000fb00d01088000048800046
:1013b4000000e800004888001e0090008000e9005a
:1013c40000488000808f5000edff3c000080fa0050
:1013d400000006000600fa00889fbe00008fbe00d1
:1013e400220798000200200003f023001e00be0024
:1013f40039fd07000004be002e009000c200dd008d
:1014040080892000008040001000be0002002000ff
:1014140003f0230030fd07000001be000800be00f9
:10142400f6fb07002e019000c211dd00828c200023
:10143400028141000089be002e009000c200dd0040
:1014440080892000008040003e1878002e1078002b
:101454002e009000c200dd00808c2000008040003f
:101464001000be002e019000c211dd00028b20008e
:10147400028141000089be002e009000c200dd0000
:10148400808c2000008040001000be004f04be008d
:101494000080fa00000006000600fa00889fbe00e3
:1014a400008fbe00220798008299290093cf230061
:1014b4001e00be0008fd07000004be002e009000c0
:1014c400c200dd0080892000008040001000be00c2
:1014d4008299290093cf2300fffc07000001be007e
:1014e4000800be00c5fb07000004be002e009000eb
:1014f400c200dd00008b2000008040001000be0010
:101504006266260003f72300f3fc07000001be0017
:101514000800be00b9fb07002e019000c211dd00d7
:10152400828c2000028141000089be002e009000c0
:10153400c200dd0080892000008040003e18780051
:101544002e1078002e009000c200dd00808c200058
:10155400008040001000be002e019000c211dd008a
:10156400028b2000028141000089be002e00900001
:10157400c200dd00808c2000008040001000be000e
:101584004f04be000080fa00000006000800fa00c4
:10159400889fbe000000eb00000f78000000eb0005
:1015a4001007980000382c00911c20002007980098
:1015b4003107980010002000304488004efe0700d8
:1015c4006000b80037fe07000000eb00000f780051
:1015d400130037001e007800c200dd00808920005f
:1015e400008140006000b8000089be001e00780041
:1015f400c200dd00008b2000008140006000b800c4
:101604000089be001e007800c200dd00808c20002e
:10161400008140006000b8000089be001e0fe80091
:101624001e007800e50f5000eaff34000300370085
:10163400000000000100370000000000c01080001e
:10164400610060000000e000f9ff3200e01080005b
:10165400100798009e00900010032000808f500017
:1016640013003a00304480000000e00010003a000b
:1016740010002000304488004101200060852000d3
:101684003aff0700d642a800d602a8002e00900018
:10169400be00900038fc0700d2cc2c00c3dc230031
:1016a4008dfc070019fc070001010700d602a90000
:1016b4009e00900000032000808f50000a003a0032
:1016c40030448000e10f500007003a008628ef0004
:1016d4006000b800f3fd0700d642a90051012000c4
:1016e400a086200021ff07009e0090002007200014
:1016f400808f5000040032009e00900020052000de
:10170400808f5000ccff3a0042478000534780004e
:10171400b40e80002047800031478000a847800035
:10172400b94780000203be000001be000800be00ed
:10173400e2fe0700c1ff37003600f800809fbe00bc
:10174400829fbe00849fbe00869fbe00889fbe000d
:101754003400f80000002000a00188002400fa00f2
:101764008460a900b01680000000d10061406000d0
:1017740011c0b30000c05000614060000080fb0055
:101784006100600000004000b11680000110a1005b
:1017940001007000b0168800cb02a8000000eb0026
:1017a40011fe07008000eb00f6fb0700008fbe006f
:1017b40002002000030a24001e00be0046fc0700ad
:1017c40002f02f00f377240069fb0700200798003c
:1017d4003107980002002000031724002e00900017
:1017e400be0090003cfc0700020020000308240017
:1017f4005ffb070040079800510798001000200085
:10180400f9fd07008000eb00defb0700600798008d
:101814007107980002002000030a24006e00900063
:10182400fe0090002cfc070002f02f00f377240048
:101834004ffb0700000f9800110f980002002000d2
:10184400031424000e0890009e08900022fc070058
:10185400200f9800310f980020002000e2fd0700bf
:101864008000eb00c7fb0700400f9800510f980061
:1018740002002000030a24004e089000de089000b5
:1018840015fc070002f02f00f377240038fb070053
:10189400600f9800710f980002002000a32c240010
:1018a4006e089000fe0890000bfc070000179800db
:1018b400111798000001eb002e089000be0890005c
:1018c400f5fe070000478800114788001200200039
:1018d4004e009000de009000effe070020478800d5
:1018e40031478800220020000e1090009e109000c6
:1018f400e9fe070040478800514788003200200075
:101904002e089000be089000b2fe070060478800d1
:1019140071478800420020004e009000de009000d5
:10192400acfe0700804788009147880052002000e1
:101934000e1090009e109000a6fe0700a04788009d
:10194400b1478800b144800030062000808f5000e9
:1019540017003400e4478000f547800022478000e8
:1019640033478000c0478000d1478000084780008b
:10197400194780000403be000202be000001be003d
:101984000800be0062fc07009628ef0000478000b4
:1019940011478000c0478800d14788002047800055
:1019a40031478000e0478800f14788000300370092
:1019b400b04480000000e800b04488000080fa00d1
:1019c4003400f9004f04be004f03be004f02be00b6
:1019d4004f01be004f00be003600f9000040060073
:020000040000fa
:1019e400860800007c0000000000000000080000e1
:1019f40086000000020000000a2031002d5475000a
:101a0400726e20006f6e20005379730074656d0050
:101a1400000a2000302d540075726e00206f66009d
:101a24006620530079737400656d00000a20560027
:101a34005f5056003d000a0020522d00526561009f
:101a44006420440061746100000a2000495f500072
:101a5400563d00000a204400757479003d000a00d8
:101a640020565f006f7574003d000a00202a2a008a
:101a74002a537900737465006d204f004e2a2a00a2
:101a84002a200a00000a20002a2a2a005379730017
:101a940074656d00204f4600462a2a002a200a0059
:101aa400000a4400555459000000000000000000e2
:020000040000fa
:101ab400f03fb1000180b10006003500ee030900db
:101ac40000000000403fb1000180b100fbff3d0079
:101ad4001000b000203fb000020035000080090073
:081ae4000000000000000600f4
:020000040000fa
:101aec000000fa000080fa00000006000000fa0076
:081afc000080fa000000060062
:020000040000fa
:0200000401f009
:04000000f3bf00004a
:020000040000fa
:0200000401f009
:04000400ff7f00007a
:020000040000fa
:0200000401f009
:04000800fc7f000079
:00000001FF
